{
  "_format": "hh-sol-artifact-1",
  "contractName": "DataGatheringFacet",
  "sourceName": "contracts/facets/DataGatheringFacet.sol",
  "abi": [
    {
      "inputs": [],
      "name": "UintUtils__InsufficientHexLength",
      "type": "error"
    },
    {
      "anonymous": false,
      "inputs": [
        {
          "indexed": true,
          "internalType": "address",
          "name": "newIngesterProxy",
          "type": "address"
        }
      ],
      "name": "IngesterProxyAddressUpdated",
      "type": "event"
    },
    {
      "anonymous": false,
      "inputs": [
        {
          "indexed": true,
          "internalType": "address",
          "name": "ingesterAddress",
          "type": "address"
        },
        {
          "indexed": false,
          "internalType": "string",
          "name": "usersIpfsHash",
          "type": "string"
        },
        {
          "indexed": false,
          "internalType": "string",
          "name": "chatsIpfsHash",
          "type": "string"
        },
        {
          "indexed": false,
          "internalType": "string",
          "name": "messagesIpfsHash",
          "type": "string"
        }
      ],
      "name": "IpfsHashAdded",
      "type": "event"
    },
    {
      "anonymous": false,
      "inputs": [
        {
          "indexed": true,
          "internalType": "bytes32",
          "name": "role",
          "type": "bytes32"
        },
        {
          "indexed": true,
          "internalType": "bytes32",
          "name": "previousAdminRole",
          "type": "bytes32"
        },
        {
          "indexed": true,
          "internalType": "bytes32",
          "name": "newAdminRole",
          "type": "bytes32"
        }
      ],
      "name": "RoleAdminChanged",
      "type": "event"
    },
    {
      "anonymous": false,
      "inputs": [
        {
          "indexed": true,
          "internalType": "bytes32",
          "name": "role",
          "type": "bytes32"
        },
        {
          "indexed": true,
          "internalType": "address",
          "name": "account",
          "type": "address"
        },
        {
          "indexed": true,
          "internalType": "address",
          "name": "sender",
          "type": "address"
        }
      ],
      "name": "RoleGranted",
      "type": "event"
    },
    {
      "anonymous": false,
      "inputs": [
        {
          "indexed": true,
          "internalType": "bytes32",
          "name": "role",
          "type": "bytes32"
        },
        {
          "indexed": true,
          "internalType": "address",
          "name": "account",
          "type": "address"
        },
        {
          "indexed": true,
          "internalType": "address",
          "name": "sender",
          "type": "address"
        }
      ],
      "name": "RoleRevoked",
      "type": "event"
    },
    {
      "inputs": [
        {
          "internalType": "string",
          "name": "usersHash",
          "type": "string"
        },
        {
          "internalType": "string",
          "name": "chatsHash",
          "type": "string"
        },
        {
          "internalType": "string",
          "name": "messagesHash",
          "type": "string"
        }
      ],
      "name": "addIpfsHash",
      "outputs": [],
      "stateMutability": "nonpayable",
      "type": "function"
    },
    {
      "inputs": [
        {
          "internalType": "uint256",
          "name": "numerator",
          "type": "uint256"
        },
        {
          "internalType": "uint256",
          "name": "denominator",
          "type": "uint256"
        }
      ],
      "name": "divideAndRoundUp",
      "outputs": [
        {
          "internalType": "uint256",
          "name": "",
          "type": "uint256"
        }
      ],
      "stateMutability": "pure",
      "type": "function"
    },
    {
      "inputs": [
        {
          "internalType": "uint256",
          "name": "clusterId",
          "type": "uint256"
        }
      ],
      "name": "getCluster",
      "outputs": [
        {
          "components": [
            {
              "internalType": "address[]",
              "name": "ingesterAddresses",
              "type": "address[]"
            },
            {
              "internalType": "uint256",
              "name": "clusterGroupCount",
              "type": "uint256"
            },
            {
              "internalType": "uint256",
              "name": "clusterRemainingCapacity",
              "type": "uint256"
            }
          ],
          "internalType": "struct IIngesterGroupManager.ClusterSlim",
          "name": "",
          "type": "tuple"
        }
      ],
      "stateMutability": "view",
      "type": "function"
    },
    {
      "inputs": [],
      "name": "getClusters",
      "outputs": [
        {
          "internalType": "uint256[]",
          "name": "",
          "type": "uint256[]"
        }
      ],
      "stateMutability": "view",
      "type": "function"
    },
    {
      "inputs": [
        {
          "internalType": "address",
          "name": "controllerAddress",
          "type": "address"
        }
      ],
      "name": "getControllerIngesters",
      "outputs": [
        {
          "components": [
            {
              "internalType": "address",
              "name": "ingesterAddress",
              "type": "address"
            },
            {
              "internalType": "bool",
              "name": "verified",
              "type": "bool"
            },
            {
              "internalType": "uint256",
              "name": "clusterId",
              "type": "uint256"
            }
          ],
          "internalType": "struct IIngesterRegistration.Ingester[]",
          "name": "",
          "type": "tuple[]"
        }
      ],
      "stateMutability": "view",
      "type": "function"
    },
    {
      "inputs": [],
      "name": "getGroupCount",
      "outputs": [
        {
          "internalType": "uint256",
          "name": "",
          "type": "uint256"
        }
      ],
      "stateMutability": "view",
      "type": "function"
    },
    {
      "inputs": [
        {
          "internalType": "address",
          "name": "ingesterAddress",
          "type": "address"
        }
      ],
      "name": "getIngester",
      "outputs": [
        {
          "components": [
            {
              "internalType": "address",
              "name": "ingesterAddress",
              "type": "address"
            },
            {
              "internalType": "bool",
              "name": "verified",
              "type": "bool"
            },
            {
              "internalType": "uint256",
              "name": "clusterId",
              "type": "uint256"
            }
          ],
          "internalType": "struct IIngesterRegistration.Ingester",
          "name": "",
          "type": "tuple"
        }
      ],
      "stateMutability": "view",
      "type": "function"
    },
    {
      "inputs": [],
      "name": "getIngesterCount",
      "outputs": [
        {
          "internalType": "uint256",
          "name": "",
          "type": "uint256"
        }
      ],
      "stateMutability": "view",
      "type": "function"
    },
    {
      "inputs": [
        {
          "internalType": "address",
          "name": "ingesterAddress",
          "type": "address"
        }
      ],
      "name": "getIngesterWithGroups",
      "outputs": [
        {
          "components": [
            {
              "internalType": "address",
              "name": "ingesterAddress",
              "type": "address"
            },
            {
              "internalType": "bool",
              "name": "verified",
              "type": "bool"
            },
            {
              "internalType": "uint256",
              "name": "clusterId",
              "type": "uint256"
            },
            {
              "internalType": "string[]",
              "name": "assignedGroups",
              "type": "string[]"
            }
          ],
          "internalType": "struct IIngesterRegistration.IngesterWithGroups",
          "name": "",
          "type": "tuple"
        }
      ],
      "stateMutability": "view",
      "type": "function"
    },
    {
      "inputs": [],
      "name": "getIngesters",
      "outputs": [
        {
          "internalType": "address[]",
          "name": "",
          "type": "address[]"
        }
      ],
      "stateMutability": "view",
      "type": "function"
    },
    {
      "inputs": [
        {
          "internalType": "address",
          "name": "ingesterAddress",
          "type": "address"
        }
      ],
      "name": "getIpfsHashes",
      "outputs": [
        {
          "components": [
            {
              "internalType": "string",
              "name": "usersIpfsHash",
              "type": "string"
            },
            {
              "internalType": "string",
              "name": "chatsIpfsHash",
              "type": "string"
            },
            {
              "internalType": "string",
              "name": "messagesIpfsHash",
              "type": "string"
            }
          ],
          "internalType": "struct IIngesterDataGathering.IpfsHash",
          "name": "ipfsHashes",
          "type": "tuple"
        }
      ],
      "stateMutability": "view",
      "type": "function"
    },
    {
      "inputs": [
        {
          "internalType": "bytes32",
          "name": "role",
          "type": "bytes32"
        }
      ],
      "name": "getRoleAdmin",
      "outputs": [
        {
          "internalType": "bytes32",
          "name": "",
          "type": "bytes32"
        }
      ],
      "stateMutability": "view",
      "type": "function"
    },
    {
      "inputs": [],
      "name": "getUnallocatedGroups",
      "outputs": [
        {
          "internalType": "string[]",
          "name": "",
          "type": "string[]"
        }
      ],
      "stateMutability": "view",
      "type": "function"
    },
    {
      "inputs": [
        {
          "internalType": "bytes32",
          "name": "role",
          "type": "bytes32"
        },
        {
          "internalType": "address",
          "name": "account",
          "type": "address"
        }
      ],
      "name": "grantRole",
      "outputs": [],
      "stateMutability": "nonpayable",
      "type": "function"
    },
    {
      "inputs": [
        {
          "internalType": "bytes32",
          "name": "role",
          "type": "bytes32"
        },
        {
          "internalType": "address",
          "name": "account",
          "type": "address"
        }
      ],
      "name": "hasRole",
      "outputs": [
        {
          "internalType": "bool",
          "name": "",
          "type": "bool"
        }
      ],
      "stateMutability": "view",
      "type": "function"
    },
    {
      "inputs": [
        {
          "internalType": "address",
          "name": "ingester",
          "type": "address"
        },
        {
          "internalType": "address",
          "name": "controller",
          "type": "address"
        }
      ],
      "name": "isIngesterOwnedByController",
      "outputs": [
        {
          "internalType": "bool",
          "name": "",
          "type": "bool"
        }
      ],
      "stateMutability": "view",
      "type": "function"
    },
    {
      "inputs": [
        {
          "internalType": "address",
          "name": "controller",
          "type": "address"
        }
      ],
      "name": "isRegisteredController",
      "outputs": [
        {
          "internalType": "bool",
          "name": "",
          "type": "bool"
        }
      ],
      "stateMutability": "view",
      "type": "function"
    },
    {
      "inputs": [
        {
          "internalType": "address",
          "name": "ingesterAddress",
          "type": "address"
        }
      ],
      "name": "isRegisteredIngester",
      "outputs": [
        {
          "internalType": "bool",
          "name": "",
          "type": "bool"
        }
      ],
      "stateMutability": "view",
      "type": "function"
    },
    {
      "inputs": [
        {
          "internalType": "bytes32",
          "name": "role",
          "type": "bytes32"
        }
      ],
      "name": "renounceRole",
      "outputs": [],
      "stateMutability": "nonpayable",
      "type": "function"
    },
    {
      "inputs": [
        {
          "internalType": "bytes32",
          "name": "role",
          "type": "bytes32"
        },
        {
          "internalType": "address",
          "name": "account",
          "type": "address"
        }
      ],
      "name": "revokeRole",
      "outputs": [],
      "stateMutability": "nonpayable",
      "type": "function"
    }
  ],
  "bytecode": "0x608060405234801561001057600080fd5b50611a45806100206000396000f3fe608060405234801561001057600080fd5b506004361061012c5760003560e01c8063812e53d2116100ad578063be43fb6c11610071578063be43fb6c14610292578063c4df5007146102b2578063c9926a9e146102d2578063d547741f146102e7578063fd3bad52146102fa57600080fd5b8063812e53d2146102395780638bb9c5bf1461024c5780638cdcb3e61461022657806391d148541461025f578063978abee01461027257600080fd5b80632f2ff15d116100f45780632f2ff15d146101b4578063307f4f0a146101c957806332fa7d2114610209578063594920901461021e5780635e91a74a1461022657600080fd5b80630179240c1461013157806306545a931461015a57806316f1d42a1461016c5780631a5d7f3e14610181578063248a9ca3146101a1575b600080fd5b61014461013f366004611352565b61030d565b604051610151919061136b565b60405180910390f35b600b545b604051908152602001610151565b6101746103d1565b60405161015191906113da565b61019461018f36600461143a565b61042c565b60405161015191906114b1565b61015e6101af366004611352565b61062f565b6101c76101c2366004611512565b610640565b005b6101f96101d736600461153e565b6001600160a01b03918216600090815260016020526040902054821691161490565b6040519015158152602001610151565b610211610661565b6040516101519190611568565b60045461015e565b6101f961023436600461143a565b6106c9565b6101c76102473660046115f2565b6106f5565b6101c761025a366004611352565b6108f9565b6101f961026d366004611512565b610905565b61028561028036600461143a565b610918565b60405161015191906116e1565b6102a56102a036600461143a565b610b4a565b604051610151919061172c565b6102c56102c036600461143a565b610be9565b604051610151919061178d565b6102da610cff565b60405161015191906117b9565b6101c76102f5366004611512565b610ddb565b61015e6103083660046117cc565b610df7565b61033160405180606001604052806060815260200160008152602001600081525090565b60408051600084815260086020908152838220805460809281028501830190955260608401858152929484939284018282801561039757602002820191906000526020600020905b81546001600160a01b03168152600190910190602001808311610379575b5050509183525050600085815260086020818152604080842060018101548387015298909352526002909501549401939093525090919050565b6060600060090180548060200260200160405190810160405280929190818152602001828054801561042257602002820191906000526020600020905b81548152602001906001019080831161040e575b5050505050905090565b61045060405180606001604052806060815260200160608152602001606081525090565b6001600160a01b0382166000908152600e602052604090819020815160608101909252805482908290610482906117ee565b80601f01602080910402602001604051908101604052809291908181526020018280546104ae906117ee565b80156104fb5780601f106104d0576101008083540402835291602001916104fb565b820191906000526020600020905b8154815290600101906020018083116104de57829003601f168201915b50505050508152602001600182018054610514906117ee565b80601f0160208091040260200160405190810160405280929190818152602001828054610540906117ee565b801561058d5780601f106105625761010080835404028352916020019161058d565b820191906000526020600020905b81548152906001019060200180831161057057829003601f168201915b505050505081526020016002820180546105a6906117ee565b80601f01602080910402602001604051908101604052809291908181526020018280546105d2906117ee565b801561061f5780601f106105f45761010080835404028352916020019161061f565b820191906000526020600020905b81548152906001019060200180831161060257829003601f168201915b5050505050815250509050919050565b600061063a82610e7f565b92915050565b61064982610e7f565b61065281610ea1565b61065c8383610eab565b505050565b60606000806003018054806020026020016040519081016040528092919081815260200182805480156106bd57602002820191906000526020600020905b81546001600160a01b0316815260019091019060200180831161069f575b50939695505050505050565b600061063a7f5e4113f64ef62a4dcf877571d6adf627b68af233a523753b8dcf1d3fb18974ed83610f0d565b61071f7f5e4113f64ef62a4dcf877571d6adf627b68af233a523753b8dcf1d3fb18974ed33610f0d565b6107815760405162461bcd60e51b815260206004820152602860248201527f4c696241707053746f726167653a204e6f74206120726567697374657265642060448201526734b733b2b9ba32b960c11b60648201526084015b60405180910390fd5b6040805160806020601f890181900402820181019092526060810187815233926000929182918b908b9081908501838280828437600092019190915250505090825250604080516020601f8a0181900481028201810190925288815291810191908990899081908401838280828437600092019190915250505090825250604080516020601f88018190048102820181019092528681529181019190879087908190840183828082843760009201829052509390945250506001600160a01b0385168152600e6020908152604090912083518051949550859491935061086b9284929101906112b9565b50602082810151805161088492600185019201906112b9565b50604082015180516108a09160028401916020909101906112b9565b50905050816001600160a01b03167f4a91c5c6c2b23e82aa7b3e531ffa0ec1f52cc09186bfb1a33e0a1823ebe82a448989898989896040516108e796959493929190611851565b60405180910390a25050505050505050565b61090281610f32565b50565b60006109118383610f0d565b9392505050565b60408051608081018252600080825260208201819052918101919091526060808201526001600160a01b038281166000908152600160205260409020541661099d5760405162461bcd60e51b815260206004820152601860248201527724b733b2b9ba32b9103237b2b9903737ba1032bc34b9ba1760411b6044820152606401610778565b6001600160a01b03808316600090815260016020818152604080842080549301549290941680845260029091529282208054919291839081106109e2576109e261189a565b600091825260208083206040805160608101825260029490940290910180546001600160a01b038082168652600160a01b90910460ff16151585850152600190910154848301819052855260088352818520908a1685526004018252808420805482518185028101850190935280835293955090929091849084015b82821015610b0a578382906000526020600020018054610a7d906117ee565b80601f0160208091040260200160405190810160405280929190818152602001828054610aa9906117ee565b8015610af65780601f10610acb57610100808354040283529160200191610af6565b820191906000526020600020905b815481529060010190602001808311610ad957829003601f168201915b505050505081526020019060010190610a5e565b5050604080516080810182526001600160a01b03909a168a526020868101511515908b015294850151948901949094525060608701525093949350505050565b6001600160a01b0381166000908152600260209081526040808320805482518185028101850190935280835260609492939192909184015b82821015610bde576000848152602090819020604080516060810182526002860290920180546001600160a01b0381168452600160a01b900460ff16151583850152600190810154918301919091529083529092019101610b82565b505050509050919050565b60408051606081018252600080825260208201819052918101919091526001600160a01b0382811660009081526001602052604090205416610c685760405162461bcd60e51b815260206004820152601860248201527724b733b2b9ba32b9103237b2b9903737ba1032bc34b9ba1760411b6044820152606401610778565b6001600160a01b038083166000908152600160208181526040808420805493015492909416808452600290915292909120805482908110610cab57610cab61189a565b600091825260209182902060408051606081018252600290930290910180546001600160a01b038116845260ff600160a01b9091041615159383019390935260019092015491810191909152949350505050565b60606000600d01805480602002602001604051908101604052809291908181526020016000905b82821015610dd2578382906000526020600020018054610d45906117ee565b80601f0160208091040260200160405190810160405280929190818152602001828054610d71906117ee565b8015610dbe5780601f10610d9357610100808354040283529160200191610dbe565b820191906000526020600020905b815481529060010190602001808311610da157829003601f168201915b505050505081526020019060010190610d26565b50505050905090565b610de482610e7f565b610ded81610ea1565b61065c8383610f38565b600081600003610e3c5760405162461bcd60e51b815260206004820152601060248201526f4469766973696f6e206279207a65726f60801b6044820152606401610778565b6000610e4883856118dc565b90506000610e5684866118f0565b905083610e64826002611904565b10610e7757610e74600183611923565b91505b509392505050565b60009081526000805160206119f0833981519152602052604090206002015490565b6109028133610f9a565b60008281526000805160206119f083398151915260205260409020610ed09082611000565b5060405133906001600160a01b0383169084907f2f8788117e7eff1d82e926ec794901d17c78024a50270940304540a733656f0d90600090a45050565b60008281526000805160206119f0833981519152602052604081206109119083611015565b61090281335b60008281526000805160206119f083398151915260205260409020610f5d9082611037565b5060405133906001600160a01b0383169084907ff6391f5c32d9c69d2a47ea670b442974b53935d1edc7fd64eb21e047a839171b90600090a45050565b610fa48282610f0d565b610ffc57610fba816001600160a01b031661104c565b610fc583602061105e565b604051602001610fd692919061193b565b60408051601f198184030181529082905262461bcd60e51b8252610778916004016119b0565b5050565b6000610911836001600160a01b0384166111b1565b6001600160a01b03811660009081526001830160205260408120541515610911565b6000610911836001600160a01b0384166111f4565b606061063a6001600160a01b03831660145b6060600061106d836002611904565b611078906002611923565b67ffffffffffffffff811115611090576110906119c3565b6040519080825280601f01601f1916602001820160405280156110ba576020820181803683370190505b509050600360fc1b816000815181106110d5576110d561189a565b60200101906001600160f81b031916908160001a905350600f60fb1b816001815181106111045761110461189a565b60200101906001600160f81b031916908160001a905350600160028402015b6001811115611191576f181899199a1a9b1b9c1cb0b131b232b360811b85600f16601081106111545761115461189a565b1a60f81b82828151811061116a5761116a61189a565b60200101906001600160f81b031916908160001a90535060049490941c9360001901611123565b5083156109115760405163c913478560e01b815260040160405180910390fd5b600081815260018301602052604081205461063a575081546001808201845560008481526020808220909301849055845493815293810190915260409092205590565b600081815260018301602052604081205480156112b2578354600090859060001981019081106112265761122661189a565b906000526020600020015490508085600001600184038154811061124c5761124c61189a565b600091825260208083209091019290925591825260018601905260409020819055835484908061127e5761127e6119d9565b6001900381819060005260206000200160009055905583600101600084815260200190815260200160002060009055600191505b5092915050565b8280546112c5906117ee565b90600052602060002090601f0160209004810192826112e7576000855561132d565b82601f1061130057805160ff191683800117855561132d565b8280016001018555821561132d579182015b8281111561132d578251825591602001919060010190611312565b5061133992915061133d565b5090565b5b80821115611339576000815560010161133e565b60006020828403121561136457600080fd5b5035919050565b6020808252825160608383015280516080840181905260009291820190839060a08601905b808310156113b95783516001600160a01b03168252928401926001929092019190840190611390565b50838701516040870152604087015160608701528094505050505092915050565b6020808252825182820181905260009190848201906040850190845b81811015611412578351835292840192918401916001016113f6565b50909695505050505050565b80356001600160a01b038116811461143557600080fd5b919050565b60006020828403121561144c57600080fd5b6109118261141e565b60005b83811015611470578181015183820152602001611458565b8381111561147f576000848401525b50505050565b6000815180845261149d816020860160208601611455565b601f01601f19169290920160200192915050565b6020815260008251606060208401526114cd6080840182611485565b90506020840151601f19808584030160408601526114eb8383611485565b92506040860151915080858403016060860152506115098282611485565b95945050505050565b6000806040838503121561152557600080fd5b823591506115356020840161141e565b90509250929050565b6000806040838503121561155157600080fd5b61155a8361141e565b91506115356020840161141e565b6020808252825182820181905260009190848201906040850190845b818110156114125783516001600160a01b031683529284019291840191600101611584565b60008083601f8401126115bb57600080fd5b50813567ffffffffffffffff8111156115d357600080fd5b6020830191508360208285010111156115eb57600080fd5b9250929050565b6000806000806000806060878903121561160b57600080fd5b863567ffffffffffffffff8082111561162357600080fd5b61162f8a838b016115a9565b9098509650602089013591508082111561164857600080fd5b6116548a838b016115a9565b9096509450604089013591508082111561166d57600080fd5b5061167a89828a016115a9565b979a9699509497509295939492505050565b600081518084526020808501808196508360051b8101915082860160005b858110156116d45782840389526116c2848351611485565b988501989350908401906001016116aa565b5091979650505050505050565b6020815260018060a01b038251166020820152602082015115156040820152604082015160608201526000606083015160808084015261172460a084018261168c565b949350505050565b6020808252825182820181905260009190848201906040850190845b818110156114125761177a83855180516001600160a01b03168252602080820151151590830152604090810151910152565b9284019260609290920191600101611748565b81516001600160a01b03168152602080830151151590820152604080830151908201526060810161063a565b602081526000610911602083018461168c565b600080604083850312156117df57600080fd5b50508035926020909101359150565b600181811c9082168061180257607f821691505b60208210810361182257634e487b7160e01b600052602260045260246000fd5b50919050565b81835281816020850137506000828201602090810191909152601f909101601f19169091010190565b60608152600061186560608301888a611828565b8281036020840152611878818789611828565b9050828103604084015261188d818587611828565b9998505050505050505050565b634e487b7160e01b600052603260045260246000fd5b634e487b7160e01b600052601260045260246000fd5b634e487b7160e01b600052601160045260246000fd5b6000826118eb576118eb6118b0565b500490565b6000826118ff576118ff6118b0565b500690565b600081600019048311821515161561191e5761191e6118c6565b500290565b60008219821115611936576119366118c6565b500190565b7f416363657373436f6e74726f6c3a206163636f756e7420000000000000000000815260008351611973816017850160208801611455565b7001034b99036b4b9b9b4b733903937b6329607d1b60179184019182015283516119a4816028840160208801611455565b01602801949350505050565b6020815260006109116020830184611485565b634e487b7160e01b600052604160045260246000fd5b634e487b7160e01b600052603160045260246000fdfed3889cc5458b268d0544e5534672df1296288ca3f93cbd39bd6f497a5c622811a264697066735822122054a2fce0d64445fc7cad6d9d20bacb3e46e04e84cdb36b4443f3197aac0afcdb64736f6c634300080e0033",
  "linkReferences": {},
  "deployedLinkReferences": {}
}