{
  "_format": "hh-sol-artifact-1",
  "contractName": "GroupManagerFacet",
  "sourceName": "contracts/facets/GroupManagerFacet.sol",
  "abi": [
    {
      "inputs": [
        {
          "internalType": "address",
          "name": "_user",
          "type": "address"
        },
        {
          "internalType": "address",
          "name": "_contractOwner",
          "type": "address"
        }
      ],
      "name": "NotContractOwner",
      "type": "error"
    },
    {
      "inputs": [],
      "name": "UintUtils__InsufficientHexLength",
      "type": "error"
    },
    {
      "anonymous": false,
      "inputs": [
        {
          "indexed": false,
          "internalType": "string",
          "name": "groupUsername",
          "type": "string"
        }
      ],
      "name": "GroupAdded",
      "type": "event"
    },
    {
      "anonymous": false,
      "inputs": [
        {
          "indexed": false,
          "internalType": "uint256",
          "name": "clusterId",
          "type": "uint256"
        },
        {
          "indexed": false,
          "internalType": "string",
          "name": "groupUsername",
          "type": "string"
        },
        {
          "indexed": false,
          "internalType": "address",
          "name": "ingesterAddress",
          "type": "address"
        }
      ],
      "name": "GroupDistributed",
      "type": "event"
    },
    {
      "anonymous": false,
      "inputs": [
        {
          "indexed": false,
          "internalType": "string",
          "name": "groupUsername",
          "type": "string"
        }
      ],
      "name": "GroupRemoved",
      "type": "event"
    },
    {
      "anonymous": false,
      "inputs": [
        {
          "indexed": true,
          "internalType": "uint256",
          "name": "_clusterId",
          "type": "uint256"
        },
        {
          "indexed": true,
          "internalType": "string",
          "name": "_groupUsername",
          "type": "string"
        }
      ],
      "name": "GroupRemovedFromCluster",
      "type": "event"
    },
    {
      "anonymous": false,
      "inputs": [
        {
          "indexed": true,
          "internalType": "address",
          "name": "ingesterAddress",
          "type": "address"
        },
        {
          "indexed": false,
          "internalType": "string",
          "name": "group",
          "type": "string"
        }
      ],
      "name": "GroupRemovedFromIngester",
      "type": "event"
    },
    {
      "anonymous": false,
      "inputs": [
        {
          "indexed": true,
          "internalType": "address",
          "name": "ingesterAddress",
          "type": "address"
        },
        {
          "indexed": false,
          "internalType": "string[]",
          "name": "assignedGroups",
          "type": "string[]"
        }
      ],
      "name": "IngesterRegisteredGroups",
      "type": "event"
    },
    {
      "anonymous": false,
      "inputs": [
        {
          "indexed": true,
          "internalType": "address",
          "name": "ingesterAddress",
          "type": "address"
        },
        {
          "indexed": true,
          "internalType": "string",
          "name": "groupId",
          "type": "string"
        }
      ],
      "name": "IngesterRemovedFromGroup",
      "type": "event"
    },
    {
      "anonymous": false,
      "inputs": [
        {
          "indexed": false,
          "internalType": "uint256",
          "name": "maxClusterSize",
          "type": "uint256"
        }
      ],
      "name": "MaxClusterSizeUpdated",
      "type": "event"
    },
    {
      "anonymous": false,
      "inputs": [
        {
          "indexed": false,
          "internalType": "uint256",
          "name": "maxGroupsPerIngester",
          "type": "uint256"
        }
      ],
      "name": "MaxGroupsPerIngesterUpdated",
      "type": "event"
    },
    {
      "anonymous": false,
      "inputs": [
        {
          "indexed": false,
          "internalType": "uint256",
          "name": "maxNumberIngesterPerGroup",
          "type": "uint256"
        }
      ],
      "name": "MaxIngesterPerGroupUpdated",
      "type": "event"
    },
    {
      "anonymous": false,
      "inputs": [
        {
          "indexed": false,
          "internalType": "string",
          "name": "unAllocatedGroup",
          "type": "string"
        }
      ],
      "name": "RemoveUnallocatedGroup",
      "type": "event"
    },
    {
      "anonymous": false,
      "inputs": [
        {
          "indexed": true,
          "internalType": "bytes32",
          "name": "role",
          "type": "bytes32"
        },
        {
          "indexed": true,
          "internalType": "bytes32",
          "name": "previousAdminRole",
          "type": "bytes32"
        },
        {
          "indexed": true,
          "internalType": "bytes32",
          "name": "newAdminRole",
          "type": "bytes32"
        }
      ],
      "name": "RoleAdminChanged",
      "type": "event"
    },
    {
      "anonymous": false,
      "inputs": [
        {
          "indexed": true,
          "internalType": "bytes32",
          "name": "role",
          "type": "bytes32"
        },
        {
          "indexed": true,
          "internalType": "address",
          "name": "account",
          "type": "address"
        },
        {
          "indexed": true,
          "internalType": "address",
          "name": "sender",
          "type": "address"
        }
      ],
      "name": "RoleGranted",
      "type": "event"
    },
    {
      "anonymous": false,
      "inputs": [
        {
          "indexed": true,
          "internalType": "bytes32",
          "name": "role",
          "type": "bytes32"
        },
        {
          "indexed": true,
          "internalType": "address",
          "name": "account",
          "type": "address"
        },
        {
          "indexed": true,
          "internalType": "address",
          "name": "sender",
          "type": "address"
        }
      ],
      "name": "RoleRevoked",
      "type": "event"
    },
    {
      "anonymous": false,
      "inputs": [
        {
          "indexed": false,
          "internalType": "string[]",
          "name": "groups",
          "type": "string[]"
        }
      ],
      "name": "UnAllocatedGroupsAdded",
      "type": "event"
    },
    {
      "inputs": [
        {
          "internalType": "string",
          "name": "groupUsername",
          "type": "string"
        }
      ],
      "name": "addGroup",
      "outputs": [],
      "stateMutability": "nonpayable",
      "type": "function"
    },
    {
      "inputs": [
        {
          "internalType": "address",
          "name": "ingesterAddress",
          "type": "address"
        }
      ],
      "name": "distributeGroupsToIngester",
      "outputs": [],
      "stateMutability": "nonpayable",
      "type": "function"
    },
    {
      "inputs": [],
      "name": "distributeUnallocatedGroups",
      "outputs": [],
      "stateMutability": "nonpayable",
      "type": "function"
    },
    {
      "inputs": [
        {
          "internalType": "uint256",
          "name": "numerator",
          "type": "uint256"
        },
        {
          "internalType": "uint256",
          "name": "denominator",
          "type": "uint256"
        }
      ],
      "name": "divideAndRoundUp",
      "outputs": [
        {
          "internalType": "uint256",
          "name": "",
          "type": "uint256"
        }
      ],
      "stateMutability": "pure",
      "type": "function"
    },
    {
      "inputs": [
        {
          "internalType": "uint256",
          "name": "clusterId",
          "type": "uint256"
        }
      ],
      "name": "getCluster",
      "outputs": [
        {
          "components": [
            {
              "internalType": "address[]",
              "name": "ingesterAddresses",
              "type": "address[]"
            },
            {
              "internalType": "uint256",
              "name": "clusterGroupCount",
              "type": "uint256"
            },
            {
              "internalType": "uint256",
              "name": "clusterRemainingCapacity",
              "type": "uint256"
            }
          ],
          "internalType": "struct IIngesterGroupManager.ClusterSlim",
          "name": "",
          "type": "tuple"
        }
      ],
      "stateMutability": "view",
      "type": "function"
    },
    {
      "inputs": [],
      "name": "getClusters",
      "outputs": [
        {
          "internalType": "uint256[]",
          "name": "",
          "type": "uint256[]"
        }
      ],
      "stateMutability": "view",
      "type": "function"
    },
    {
      "inputs": [
        {
          "internalType": "address",
          "name": "controllerAddress",
          "type": "address"
        }
      ],
      "name": "getControllerIngesters",
      "outputs": [
        {
          "components": [
            {
              "internalType": "address",
              "name": "ingesterAddress",
              "type": "address"
            },
            {
              "internalType": "bool",
              "name": "verified",
              "type": "bool"
            },
            {
              "internalType": "uint256",
              "name": "clusterId",
              "type": "uint256"
            }
          ],
          "internalType": "struct IIngesterRegistration.Ingester[]",
          "name": "",
          "type": "tuple[]"
        }
      ],
      "stateMutability": "view",
      "type": "function"
    },
    {
      "inputs": [
        {
          "internalType": "string",
          "name": "groupUsername",
          "type": "string"
        }
      ],
      "name": "getGroup",
      "outputs": [
        {
          "components": [
            {
              "internalType": "bool",
              "name": "isAdded",
              "type": "bool"
            },
            {
              "internalType": "uint256",
              "name": "clusterId",
              "type": "uint256"
            },
            {
              "internalType": "address[]",
              "name": "ingesterAddresses",
              "type": "address[]"
            },
            {
              "internalType": "uint256",
              "name": "groupUsernameIndex",
              "type": "uint256"
            }
          ],
          "internalType": "struct IIngesterGroupManager.GroupSlim",
          "name": "",
          "type": "tuple"
        }
      ],
      "stateMutability": "view",
      "type": "function"
    },
    {
      "inputs": [],
      "name": "getGroupCount",
      "outputs": [
        {
          "internalType": "uint256",
          "name": "",
          "type": "uint256"
        }
      ],
      "stateMutability": "view",
      "type": "function"
    },
    {
      "inputs": [
        {
          "internalType": "uint256",
          "name": "groupIndex",
          "type": "uint256"
        }
      ],
      "name": "getGroupUsernameByIndex",
      "outputs": [
        {
          "internalType": "string",
          "name": "",
          "type": "string"
        }
      ],
      "stateMutability": "view",
      "type": "function"
    },
    {
      "inputs": [
        {
          "internalType": "address",
          "name": "ingesterAddress",
          "type": "address"
        }
      ],
      "name": "getIngester",
      "outputs": [
        {
          "components": [
            {
              "internalType": "address",
              "name": "ingesterAddress",
              "type": "address"
            },
            {
              "internalType": "bool",
              "name": "verified",
              "type": "bool"
            },
            {
              "internalType": "uint256",
              "name": "clusterId",
              "type": "uint256"
            }
          ],
          "internalType": "struct IIngesterRegistration.Ingester",
          "name": "",
          "type": "tuple"
        }
      ],
      "stateMutability": "view",
      "type": "function"
    },
    {
      "inputs": [],
      "name": "getIngesterCount",
      "outputs": [
        {
          "internalType": "uint256",
          "name": "",
          "type": "uint256"
        }
      ],
      "stateMutability": "view",
      "type": "function"
    },
    {
      "inputs": [
        {
          "internalType": "address",
          "name": "ingesterAddress",
          "type": "address"
        }
      ],
      "name": "getIngesterWithGroups",
      "outputs": [
        {
          "components": [
            {
              "internalType": "address",
              "name": "ingesterAddress",
              "type": "address"
            },
            {
              "internalType": "bool",
              "name": "verified",
              "type": "bool"
            },
            {
              "internalType": "uint256",
              "name": "clusterId",
              "type": "uint256"
            },
            {
              "internalType": "string[]",
              "name": "assignedGroups",
              "type": "string[]"
            }
          ],
          "internalType": "struct IIngesterRegistration.IngesterWithGroups",
          "name": "",
          "type": "tuple"
        }
      ],
      "stateMutability": "view",
      "type": "function"
    },
    {
      "inputs": [],
      "name": "getIngesters",
      "outputs": [
        {
          "internalType": "address[]",
          "name": "",
          "type": "address[]"
        }
      ],
      "stateMutability": "view",
      "type": "function"
    },
    {
      "inputs": [],
      "name": "getMaxClusterSize",
      "outputs": [
        {
          "internalType": "uint256",
          "name": "",
          "type": "uint256"
        }
      ],
      "stateMutability": "view",
      "type": "function"
    },
    {
      "inputs": [],
      "name": "getMaxGroupsPerIngester",
      "outputs": [
        {
          "internalType": "uint256",
          "name": "",
          "type": "uint256"
        }
      ],
      "stateMutability": "view",
      "type": "function"
    },
    {
      "inputs": [],
      "name": "getMaxIngestersPerGroup",
      "outputs": [
        {
          "internalType": "uint256",
          "name": "",
          "type": "uint256"
        }
      ],
      "stateMutability": "view",
      "type": "function"
    },
    {
      "inputs": [
        {
          "internalType": "bytes32",
          "name": "role",
          "type": "bytes32"
        }
      ],
      "name": "getRoleAdmin",
      "outputs": [
        {
          "internalType": "bytes32",
          "name": "",
          "type": "bytes32"
        }
      ],
      "stateMutability": "view",
      "type": "function"
    },
    {
      "inputs": [],
      "name": "getUnallocatedGroups",
      "outputs": [
        {
          "internalType": "string[]",
          "name": "",
          "type": "string[]"
        }
      ],
      "stateMutability": "view",
      "type": "function"
    },
    {
      "inputs": [
        {
          "internalType": "bytes32",
          "name": "role",
          "type": "bytes32"
        },
        {
          "internalType": "address",
          "name": "account",
          "type": "address"
        }
      ],
      "name": "grantRole",
      "outputs": [],
      "stateMutability": "nonpayable",
      "type": "function"
    },
    {
      "inputs": [
        {
          "internalType": "bytes32",
          "name": "role",
          "type": "bytes32"
        },
        {
          "internalType": "address",
          "name": "account",
          "type": "address"
        }
      ],
      "name": "hasRole",
      "outputs": [
        {
          "internalType": "bool",
          "name": "",
          "type": "bool"
        }
      ],
      "stateMutability": "view",
      "type": "function"
    },
    {
      "inputs": [
        {
          "internalType": "address",
          "name": "ingester",
          "type": "address"
        },
        {
          "internalType": "address",
          "name": "controller",
          "type": "address"
        }
      ],
      "name": "isIngesterOwnedByController",
      "outputs": [
        {
          "internalType": "bool",
          "name": "",
          "type": "bool"
        }
      ],
      "stateMutability": "view",
      "type": "function"
    },
    {
      "inputs": [
        {
          "internalType": "address",
          "name": "controller",
          "type": "address"
        }
      ],
      "name": "isRegisteredController",
      "outputs": [
        {
          "internalType": "bool",
          "name": "",
          "type": "bool"
        }
      ],
      "stateMutability": "view",
      "type": "function"
    },
    {
      "inputs": [
        {
          "internalType": "address",
          "name": "ingesterAddress",
          "type": "address"
        }
      ],
      "name": "isRegisteredIngester",
      "outputs": [
        {
          "internalType": "bool",
          "name": "",
          "type": "bool"
        }
      ],
      "stateMutability": "view",
      "type": "function"
    },
    {
      "inputs": [
        {
          "internalType": "string",
          "name": "groupUsername",
          "type": "string"
        }
      ],
      "name": "removeGroup",
      "outputs": [],
      "stateMutability": "nonpayable",
      "type": "function"
    },
    {
      "inputs": [
        {
          "internalType": "bytes32",
          "name": "role",
          "type": "bytes32"
        }
      ],
      "name": "renounceRole",
      "outputs": [],
      "stateMutability": "nonpayable",
      "type": "function"
    },
    {
      "inputs": [
        {
          "internalType": "bytes32",
          "name": "role",
          "type": "bytes32"
        },
        {
          "internalType": "address",
          "name": "account",
          "type": "address"
        }
      ],
      "name": "revokeRole",
      "outputs": [],
      "stateMutability": "nonpayable",
      "type": "function"
    },
    {
      "inputs": [
        {
          "internalType": "uint256",
          "name": "maxClusterSize",
          "type": "uint256"
        }
      ],
      "name": "setMaxClusterSize",
      "outputs": [],
      "stateMutability": "nonpayable",
      "type": "function"
    },
    {
      "inputs": [
        {
          "internalType": "uint256",
          "name": "maxGroupsPerIngester",
          "type": "uint256"
        }
      ],
      "name": "setMaxGroupsPerIngester",
      "outputs": [],
      "stateMutability": "nonpayable",
      "type": "function"
    },
    {
      "inputs": [
        {
          "internalType": "uint256",
          "name": "maxIngestersPerGroup",
          "type": "uint256"
        }
      ],
      "name": "setMaxIngestersPerGroup",
      "outputs": [],
      "stateMutability": "nonpayable",
      "type": "function"
    }
  ],
  "bytecode": "0x608060405234801561001057600080fd5b50613700806100206000396000f3fe608060405234801561001057600080fd5b50600436106101da5760003560e01c80637bad6d1c11610104578063abef281e116100a2578063c9926a9e11610071578063c9926a9e1461040c578063d547741f14610421578063f497c1f714610434578063fd3bad521461044757600080fd5b8063abef281e14610399578063be43fb6c146103b9578063bf00eaef146103d9578063c4df5007146103ec57600080fd5b80638cdcb3e6116100de5780638cdcb3e6146102f757806391d1485414610353578063978abee0146103665780639bdd2acb1461038657600080fd5b80637bad6d1c1461032557806380df36b71461032d5780638bb9c5bf1461034057600080fd5b8063307f4f0a1161017c578063594920901161014b57806359492090146102ef5780635e91a74a146102f75780636246b3101461030a578063726ce95a1461031d57600080fd5b8063307f4f0a1461027f57806332fa7d21146102bf57806343c68915146102d457806349033ac1146102dc57600080fd5b806316f1d42a116101b857806316f1d42a1461022257806321e0a96a14610237578063248a9ca3146102575780632f2ff15d1461026a57600080fd5b80630179240c146101df578063046496871461020857806306545a931461021a575b600080fd5b6101f26101ed366004612f13565b61045a565b6040516101ff9190612f70565b60405180910390f35b6006545b6040519081526020016101ff565b600b5461020c565b61022a61051e565b6040516101ff9190612fac565b61024a610245366004612f13565b610579565b6040516101ff9190613048565b61020c610265366004612f13565b61062b565b61027d610278366004613077565b61063c565b005b6102af61028d3660046130a3565b6001600160a01b03918216600090815260016020526040902054821691161490565b60405190151581526020016101ff565b6102c761065d565b6040516101ff91906130cd565b60075461020c565b61027d6102ea366004612f13565b6106c5565b60045461020c565b6102af61030536600461310e565b610768565b61027d610318366004613129565b610794565b61027d6109a1565b60055461020c565b61027d61033b36600461310e565b610c71565b61027d61034e366004612f13565b61120e565b6102af610361366004613077565b61121a565b61037961037436600461310e565b61122d565b6040516101ff91906131f0565b61027d610394366004612f13565b61145f565b6103ac6103a7366004613129565b61149c565b6040516101ff919061323b565b6103cc6103c736600461310e565b6115e0565b6040516101ff9190613283565b61027d6103e7366004613129565b61167f565b6103ff6103fa36600461310e565b61182a565b6040516101ff91906132e4565b610414611940565b6040516101ff9190613310565b61027d61042f366004613077565b611a1c565b61027d610442366004612f13565b611a38565b61020c610455366004613323565b611a75565b61047e60405180606001604052806060815260200160008152602001600081525090565b6040805160008481526008602090815283822080546080928102850183019095526060840185815292948493928401828280156104e457602002820191906000526020600020905b81546001600160a01b031681526001909101906020018083116104c6575b5050509183525050600085815260086020818152604080842060018101548387015298909352526002909501549401939093525090919050565b6060600060090180548060200260200160405190810160405280929190818152602001828054801561056f57602002820191906000526020600020905b81548152602001906001019080831161055b575b5050505050905090565b60606000600b01828154811061059157610591613345565b9060005260206000200180546105a69061335b565b80601f01602080910402602001604051908101604052809291908181526020018280546105d29061335b565b801561061f5780601f106105f45761010080835404028352916020019161061f565b820191906000526020600020905b81548152906001019060200180831161060257829003601f168201915b50505050509050919050565b600061063682611afd565b92915050565b61064582611afd565b61064e81611b1f565b6106588383611b29565b505050565b60606000806003018054806020026020016040519081016040528092919081815260200182805480156106b957602002820191906000526020600020905b81546001600160a01b0316815260019091019060200180831161069b575b50939695505050505050565b600181101561072c5760405162461bcd60e51b815260206004820152602860248201527f43616e206f6e6c7920736574206d617820696e676573746572207065722067726044820152676f7570203e3d203160c01b60648201526084015b60405180910390fd5b60078190556040518181527f7f7240aec37da513368de4b50475e0fb4e37f9806706453b5f7bb8497ee45a57906020015b60405180910390a150565b60006106367f5e4113f64ef62a4dcf877571d6adf627b68af233a523753b8dcf1d3fb18974ed83611b8b565b61079c611bb0565b604051600a906107af9084908490613395565b9081526040519081900360200190205460ff166108065760405162461bcd60e51b815260206004820152601560248201527423b937bab8103237b2b9903737ba1032bc34b9ba1760591b6044820152606401610723565b600080600a01838360405161081c929190613395565b908152604080519182900360209081018320600201805480830285018301909352828452919083018282801561087b57602002820191906000526020600020905b81546001600160a01b0316815260019091019060200180831161085d575b505050505090506108b46000600a01848460405161089a929190613395565b908152602001604051809103902060010154848484611c36565b604051600b90600a906108ca9086908690613395565b908152602001604051809103902060040154815481106108ec576108ec613345565b9060005260206000200160006109029190612dae565b604051600a906109159085908590613395565b908152604051908190036020019020805460ff191681556000600182018190556109426002830182612de8565b600482016000905550506000600c016000815461095e906133bb565b909155506040517f3d23503bda008e50d93c77e132b7d2cde3189a8de034b6d382a71004b5a1b0489061099490859085906133d2565b60405180910390a1505050565b60006109ab611fb3565b600081815260086020526040902060020154600d549192509081811115610b2a5760006109d88383613401565b90505b600d54811015610b2457600d546000906109f790600190613401565b9050610aab6000600d018281548110610a1257610a12613345565b906000526020600020018054610a279061335b565b80601f0160208091040260200160405190810160405280929190818152602001828054610a539061335b565b8015610aa05780601f10610a7557610100808354040283529160200191610aa0565b820191906000526020600020905b815481529060010190602001808311610a8357829003601f168201915b505050505086612079565b6000805160206136ab8339815191526000600d018281548110610ad057610ad0613345565b90600052602060002001604051610ae79190613418565b60405180910390a1600d805480610b0057610b006134bf565b600190038181906000526020600020016000610b1c9190612dae565b9055506109db565b50505050565b600d541561065857600d54600090610b4490600190613401565b9050610bf86000600d018281548110610b5f57610b5f613345565b906000526020600020018054610b749061335b565b80601f0160208091040260200160405190810160405280929190818152602001828054610ba09061335b565b8015610bed5780601f10610bc257610100808354040283529160200191610bed565b820191906000526020600020905b815481529060010190602001808311610bd057829003601f168201915b505050505085612079565b6000805160206136ab8339815191526000600d018281548110610c1d57610c1d613345565b90600052602060002001604051610c349190613418565b60405180910390a1600d805480610c4d57610c4d6134bf565b600190038181906000526020600020016000610c699190612dae565b905550610b2a565b610c9b7f7b765e0e932d348852a6f810bfa1ab891e259123f02db8cdcde614c57022335733611b8b565b610cfa5760405162461bcd60e51b815260206004820152602a60248201527f4c696241707053746f726167653a204e6f74206120726567697374657265642060448201526931b7b73a3937b63632b960b11b6064820152608401610723565b6001600160a01b03808216600090815260016020526040902054163314610d765760405162461bcd60e51b815260206004820152602a60248201527f496e676573746572206973206e6f74206f776e656420627920636f6e74726f6c6044820152691b195c881dd85b1b195d60b21b6064820152608401610723565b600d546000610d848361182a565b60400151905081156110515760008181526008602052604090206002015480831115610f09576000610db68285613401565b90505b600d54811015610f0357600d54600090610dd590600190613401565b9050610e8a6000600d018281548110610df057610df0613345565b906000526020600020018054610e059061335b565b80601f0160208091040260200160405190810160405280929190818152602001828054610e319061335b565b8015610e7e5780601f10610e5357610100808354040283529160200191610e7e565b820191906000526020600020905b815481529060010190602001808311610e6157829003601f168201915b5050505050858861242e565b6000805160206136ab8339815191526000600d018281548110610eaf57610eaf613345565b90600052602060002001604051610ec69190613418565b60405180910390a1600d805480610edf57610edf6134bf565b600190038181906000526020600020016000610efb9190612dae565b905550610db9565b50610b24565b600d5415610b2457600d54600090610f2390600190613401565b9050610fd86000600d018281548110610f3e57610f3e613345565b906000526020600020018054610f539061335b565b80601f0160208091040260200160405190810160405280929190818152602001828054610f7f9061335b565b8015610fcc5780601f10610fa157610100808354040283529160200191610fcc565b820191906000526020600020905b815481529060010190602001808311610faf57829003601f168201915b5050505050848761242e565b6000805160206136ab8339815191526000600d018281548110610ffd57610ffd613345565b906000526020600020016040516110149190613418565b60405180910390a1600d80548061102d5761102d6134bf565b6001900381819060005260206000200160006110499190612dae565b905550610f09565b600754600110156111c65760008181526008602052604081208054829061107a5761107a613345565b60009182526020808320909101548483526008825260408084206001600160a01b039092168085526004909201835280842080548251818602810186019093528083529295509092909190849084015b828210156111765783829060005260206000200180546110e99061335b565b80601f01602080910402602001604051908101604052809291908181526020018280546111159061335b565b80156111625780601f1061113757610100808354040283529160200191611162565b820191906000526020600020905b81548152906001019060200180831161114557829003601f168201915b5050505050815260200190600101906110ca565b50505050905060005b81518110156111be576111ac82828151811061119d5761119d613345565b6020026020010151858861242e565b806111b6816134d5565b91505061117f565b505050505050565b60405162461bcd60e51b815260206004820152601b60248201527f4e6f206d6f72652067726f75707320746f20616c6c6f636174652e00000000006044820152606401610723565b61121781612623565b50565b60006112268383611b8b565b9392505050565b60408051608081018252600080825260208201819052918101919091526060808201526001600160a01b03828116600090815260016020526040902054166112b25760405162461bcd60e51b815260206004820152601860248201527724b733b2b9ba32b9103237b2b9903737ba1032bc34b9ba1760411b6044820152606401610723565b6001600160a01b03808316600090815260016020818152604080842080549301549290941680845260029091529282208054919291839081106112f7576112f7613345565b600091825260208083206040805160608101825260029490940290910180546001600160a01b038082168652600160a01b90910460ff16151585850152600190910154848301819052855260088352818520908a1685526004018252808420805482518185028101850190935280835293955090929091849084015b8282101561141f5783829060005260206000200180546113929061335b565b80601f01602080910402602001604051908101604052809291908181526020018280546113be9061335b565b801561140b5780601f106113e05761010080835404028352916020019161140b565b820191906000526020600020905b8154815290600101906020018083116113ee57829003601f168201915b505050505081526020019060010190611373565b5050604080516080810182526001600160a01b03909a168a526020868101511515908b015294850151948901949094525060608701525093949350505050565b611467611bb0565b60058190556040518181527f8e35a80004cf1589bba00884f1f555063dd95dc79d5101abe7f7b32cdb64e9589060200161075d565b6114c960405180608001604052806000151581526020016000815260200160608152602001600081525090565b600060405180608001604052806000600a0186866040516114eb929190613395565b90815260408051602092819003830190205460ff161515835251910190600a906115189088908890613395565b90815260200160405180910390206001015481526020016000600a018686604051611544929190613395565b90815260408051918290036020908101832060020180548083028501830190935282845291908301828280156115a357602002820191906000526020600020905b81546001600160a01b03168152600190910190602001808311611585575b505050505081526020016000600a0186866040516115c2929190613395565b90815260405190819003602001902060040154905291505092915050565b6001600160a01b0381166000908152600260209081526040808320805482518185028101850190935280835260609492939192909184015b82821015611674576000848152602090819020604080516060810182526002860290920180546001600160a01b0381168452600160a01b900460ff16151583850152600190810154918301919091529083529092019101611618565b505050509050919050565b611687611bb0565b604051600a9061169a9084908490613395565b9081526040519081900360200190205460ff16156116f25760405162461bcd60e51b815260206004820152601560248201527423b937bab81030b63932b0b23c9032bc34b9ba399760591b6044820152606401610723565b600b805460018101825560009190915261172f907f0175b7a638427703f0dbe7bb9bbf987a2551717b34e79f33b5b1008d1fa01db9018383612e06565b5060016000600a018383604051611747929190613395565b908152604051908190036020019020805491151560ff19909216919091179055600b5461177690600190613401565b604051600a906117899085908590613395565b90815260405190819003602001902060040155600c80546000906117ac906134d5565b90915550604080516020601f84018190048102820181019092528281526117ed91849084908190840183828082843760009201919091525061262d92505050565b7ff38f46310740c7f6f3e724364a429e671b125298f7a65e69fc18ff94a1e2d047828260405161181e9291906133d2565b60405180910390a15050565b60408051606081018252600080825260208201819052918101919091526001600160a01b03828116600090815260016020526040902054166118a95760405162461bcd60e51b815260206004820152601860248201527724b733b2b9ba32b9103237b2b9903737ba1032bc34b9ba1760411b6044820152606401610723565b6001600160a01b0380831660009081526001602081815260408084208054930154929094168084526002909152929091208054829081106118ec576118ec613345565b600091825260209182902060408051606081018252600290930290910180546001600160a01b038116845260ff600160a01b9091041615159383019390935260019092015491810191909152949350505050565b60606000600d01805480602002602001604051908101604052809291908181526020016000905b82821015611a135783829060005260206000200180546119869061335b565b80601f01602080910402602001604051908101604052809291908181526020018280546119b29061335b565b80156119ff5780601f106119d4576101008083540402835291602001916119ff565b820191906000526020600020905b8154815290600101906020018083116119e257829003601f168201915b505050505081526020019060010190611967565b50505050905090565b611a2582611afd565b611a2e81611b1f565b6106588383612a38565b611a40611bb0565b60068190556040518181527fa6ed162aa215adf4bfac485df9396da365d8bfa1d40852607a3f9b171099407d9060200161075d565b600081600003611aba5760405162461bcd60e51b815260206004820152601060248201526f4469766973696f6e206279207a65726f60801b6044820152606401610723565b6000611ac68385613504565b90506000611ad48486613518565b905083611ae282600261352c565b10611af557611af260018361354b565b91505b509392505050565b600090815260008051602061368b833981519152602052604090206002015490565b6112178133612a9a565b600082815260008051602061368b83398151915260205260409020611b4e9082612b00565b5060405133906001600160a01b0383169084907f2f8788117e7eff1d82e926ec794901d17c78024a50270940304540a733656f0d90600090a45050565b600082815260008051602061368b833981519152602052604081206112269083612b15565b7fc8fcad8db84d3cc18b4c41d551ea0ee66dd599cde068d998e57d5e09332c131c600301546001600160a01b03163314611c34577fc8fcad8db84d3cc18b4c41d551ea0ee66dd599cde068d998e57d5e09332c131f54604051600162bed83560e01b031981523360048201526001600160a01b039091166024820152604401610723565b565b60005b8151811015611ee9576000828281518110611c5657611c56613345565b60209081029190910181015160008881526008835260408082206001600160a01b038416835260040190935282812054925191935090600a90611c9c9089908990613395565b90815260200160405180910390206003016000846001600160a01b03166001600160a01b03168152602001908152602001600020600101549050600182611ce39190613401565b8114611e5c5760008881526008602090815260408083206001600160a01b03871684526004019091528120611d19600185613401565b81548110611d2957611d29613345565b906000526020600020018054611d3e9061335b565b80601f0160208091040260200160405190810160405280929190818152602001828054611d6a9061335b565b8015611db75780601f10611d8c57610100808354040283529160200191611db7565b820191906000526020600020905b815481529060010190602001808311611d9a57829003601f168201915b50505060008c81526008602090815260408083206001600160a01b038b1684526004019091529020805493945084939092508591508110611dfa57611dfa613345565b906000526020600020019080519060200190611e17929190612e8a565b50816000600a0182604051611e2c9190613563565b90815260408051602092819003830190206001600160a01b03881660009081526003909101909252902060010155505b60008881526008602090815260408083206001600160a01b03871684526004019091529020805480611e9057611e906134bf565b600190038181906000526020600020016000611eac9190612dae565b905560008881526008602052604081206001018054909190611ecd906133bb565b90915550839250611ee191508290506134d5565b915050611c39565b50600084815260086020526040902060018101549054600654611f0c919061352c565b1015611f2a5760405162461bcd60e51b81526004016107239061357f565b600084815260086020526040902060018101549054600654611f4c919061352c565b611f569190613401565b600085815260086020526040908190206002019190915551611f7b9084908490613395565b6040519081900381209085907ff358773a744a8cc754580981bc3842f65138b2df979485a37246ccb5751213e990600090a350505050565b60008080805b600954811015612072578260006008016000806009018481548110611fe057611fe0613345565b9060005260206000200154815260200190815260200160002060020154111561206057600980546008916000918490811061201d5761201d613345565b906000526020600020015481526020019081526020016000206002015492506000600901818154811061205257612052613345565b906000526020600020015491505b8061206a816134d5565b915050611fb9565b5092915050565b60008181526008602052604090205460018190036120d2576000828152600860205260408120805461065892869286929091906120b8576120b8613345565b6000918252602090912001546001600160a01b031661242e565b6000828152600860205260409020600190810154801561210e5761210b60016120fb858461354b565b6121059190613401565b84611a75565b91505b60005b838110156111be57600085815260086020526040812080548390811061213957612139613345565b6000918252602090912001546040516001600160a01b039091169150600a90612163908990613563565b90815260408051602092819003830190206001600160a01b0384166000908152600390910190925290205460ff161561219c575061241e565b60008681526008602090815260408083206001600160a01b0385168452600401909152808220549051909190600a906121d6908b90613563565b90815260405190819003602001902060020154905085821080156121fb575060075481105b1561241a57604051600a90612211908b90613563565b9081526040805160209281900383019020600201805460018082018355600092835284832090910180546001600160a01b0319166001600160a01b0389169081179091558c83526008855283832090835260040184529181208054928301815581528290208b5161228a939190920191908c0190612e8a565b50604080518082018252600180825260008b8152600860209081528482206001600160a01b038916835260040181529390205491928301916122cc9190613401565b9052604051600a906122df908c90613563565b90815260408051602092819003830190206001600160a01b0387166000908152600390910183528181208451815460ff1916901515178155938301516001948501558b815260089092528120909101805490919061233c906134d5565b90915550600088815260086020526040902060018101549054600654612362919061352c565b10156123805760405162461bcd60e51b81526004016107239061357f565b6000888152600860205260409020600181015490546006546123a2919061352c565b6123ac9190613401565b6000898152600860205260409081902060020191909155517f01465e4bb7d726905a419551adeee5f2e77fb14a423bd80794093962b55b86f6906123f5908a908c9087906135ce565b60405180910390a160075461240c90600190613401565b841061241a575050506111be565b5050505b612427816134d5565b9050612111565b604051600a9061243f908590613563565b9081526040805160209281900383019020600201805460018082018355600092835284832090910180546001600160a01b0319166001600160a01b03871690811790915586835260088552838320908352600401845291812080549283018155815282902085516124b893919092019190860190612e8a565b5060408051808201825260018082526000858152600860209081528482206001600160a01b038716835260040181529390205491928301916124fa9190613401565b9052604051600a9061250d908690613563565b90815260408051602092819003830190206001600160a01b0385166000908152600390910183528181208451815460ff19169015151781559383015160019485015585815260089092528120909101805490919061256a906134d5565b90915550600082815260086020526040902060018101549054600654612590919061352c565b10156125ae5760405162461bcd60e51b81526004016107239061357f565b6000828152600860205260409020600181015490546006546125d0919061352c565b6125da9190613401565b6000838152600860205260409081902060020191909155517f01465e4bb7d726905a419551adeee5f2e77fb14a423bd80794093962b55b86f690610994908490869085906135ce565b6112178133612a38565b6000612637611fb3565b6000818152600860205260409020600201549091506126ad5760405162461bcd60e51b815260206004820152602c60248201527f4e6f206d6f726520696e6765737465727320617661696c61626c6520746f206160448201526b64642067726f75707320746f60a01b6064820152608401610723565b60008181526008602052604090205460018190036126ec576000828152600860205260408120805461065892869286929091906120b8576120b8613345565b600082815260086020526040902060019081015480156127185761271560016120fb858461354b565b91505b60005b838110156111be57600085815260086020526040812080548390811061274357612743613345565b6000918252602090912001546040516001600160a01b039091169150600a9061276d908990613563565b90815260408051602092819003830190206001600160a01b0384166000908152600390910190925290205460ff16156127a65750612a28565b60008681526008602090815260408083206001600160a01b0385168452600401909152808220549051909190600a906127e0908b90613563565b9081526040519081900360200190206002015490508582108015612805575060075481105b15612a2457604051600a9061281b908b90613563565b9081526040805160209281900383019020600201805460018082018355600092835284832090910180546001600160a01b0319166001600160a01b0389169081179091558c83526008855283832090835260040184529181208054928301815581528290208b51612894939190920191908c0190612e8a565b50604080518082018252600180825260008b8152600860209081528482206001600160a01b038916835260040181529390205491928301916128d69190613401565b9052604051600a906128e9908c90613563565b90815260408051602092819003830190206001600160a01b0387166000908152600390910183528181208451815460ff1916901515178155938301516001948501558b8152600890925281209091018054909190612946906134d5565b9091555060008881526008602052604090206001810154905460065461296c919061352c565b101561298a5760405162461bcd60e51b81526004016107239061357f565b6000888152600860205260409020600181015490546006546129ac919061352c565b6129b69190613401565b6000898152600860205260409081902060020191909155517f01465e4bb7d726905a419551adeee5f2e77fb14a423bd80794093962b55b86f6906129ff908a908c9087906135ce565b60405180910390a1600754612a1690600190613401565b8410612a24575050506111be565b5050505b612a31816134d5565b905061271b565b600082815260008051602061368b83398151915260205260409020612a5d9082612b37565b5060405133906001600160a01b0383169084907ff6391f5c32d9c69d2a47ea670b442974b53935d1edc7fd64eb21e047a839171b90600090a45050565b612aa48282611b8b565b612afc57612aba816001600160a01b0316612b4c565b612ac5836020612b5e565b604051602001612ad69291906135ff565b60408051601f198184030181529082905262461bcd60e51b825261072391600401613048565b5050565b6000611226836001600160a01b038416612cb1565b6001600160a01b03811660009081526001830160205260408120541515611226565b6000611226836001600160a01b038416612cf4565b60606106366001600160a01b03831660145b60606000612b6d83600261352c565b612b7890600261354b565b67ffffffffffffffff811115612b9057612b90613674565b6040519080825280601f01601f191660200182016040528015612bba576020820181803683370190505b509050600360fc1b81600081518110612bd557612bd5613345565b60200101906001600160f81b031916908160001a905350600f60fb1b81600181518110612c0457612c04613345565b60200101906001600160f81b031916908160001a905350600160028402015b6001811115612c91576f181899199a1a9b1b9c1cb0b131b232b360811b85600f1660108110612c5457612c54613345565b1a60f81b828281518110612c6a57612c6a613345565b60200101906001600160f81b031916908160001a90535060049490941c9360001901612c23565b5083156112265760405163c913478560e01b815260040160405180910390fd5b6000818152600183016020526040812054610636575081546001808201845560008481526020808220909301849055845493815293810190915260409092205590565b6000818152600183016020526040812054801561207257835460009085906000198101908110612d2657612d26613345565b9060005260206000200154905080856000016001840381548110612d4c57612d4c613345565b6000918252602080832090910192909255918252600186019052604090208190558354849080612d7e57612d7e6134bf565b60008281526020808220830160001990810183905590920190925593815260019485019093525050604081205590565b508054612dba9061335b565b6000825580601f10612dca575050565b601f0160209004906000526020600020908101906112179190612efe565b50805460008255906000526020600020908101906112179190612efe565b828054612e129061335b565b90600052602060002090601f016020900481019282612e345760008555612e7a565b82601f10612e4d5782800160ff19823516178555612e7a565b82800160010185558215612e7a579182015b82811115612e7a578235825591602001919060010190612e5f565b50612e86929150612efe565b5090565b828054612e969061335b565b90600052602060002090601f016020900481019282612eb85760008555612e7a565b82601f10612ed157805160ff1916838001178555612e7a565b82800160010185558215612e7a579182015b82811115612e7a578251825591602001919060010190612ee3565b5b80821115612e865760008155600101612eff565b600060208284031215612f2557600080fd5b5035919050565b600081518084526020808501945080840160005b83811015612f655781516001600160a01b031687529582019590820190600101612f40565b509495945050505050565b602081526000825160606020840152612f8c6080840182612f2c565b905060208401516040840152604084015160608401528091505092915050565b6020808252825182820181905260009190848201906040850190845b81811015612fe457835183529284019291840191600101612fc8565b50909695505050505050565b60005b8381101561300b578181015183820152602001612ff3565b83811115610b245750506000910152565b60008151808452613034816020860160208601612ff0565b601f01601f19169290920160200192915050565b602081526000611226602083018461301c565b80356001600160a01b038116811461307257600080fd5b919050565b6000806040838503121561308a57600080fd5b8235915061309a6020840161305b565b90509250929050565b600080604083850312156130b657600080fd5b6130bf8361305b565b915061309a6020840161305b565b6020808252825182820181905260009190848201906040850190845b81811015612fe45783516001600160a01b0316835292840192918401916001016130e9565b60006020828403121561312057600080fd5b6112268261305b565b6000806020838503121561313c57600080fd5b823567ffffffffffffffff8082111561315457600080fd5b818501915085601f83011261316857600080fd5b81358181111561317757600080fd5b86602082850101111561318957600080fd5b60209290920196919550909350505050565b600081518084526020808501808196508360051b8101915082860160005b858110156131e35782840389526131d184835161301c565b988501989350908401906001016131b9565b5091979650505050505050565b6020815260018060a01b038251166020820152602082015115156040820152604082015160608201526000606083015160808084015261323360a084018261319b565b949350505050565b6020815281511515602082015260208201516040820152600060408301516080606084015261326d60a0840182612f2c565b9050606084015160808401528091505092915050565b6020808252825182820181905260009190848201906040850190845b81811015612fe4576132d183855180516001600160a01b03168252602080820151151590830152604090810151910152565b928401926060929092019160010161329f565b81516001600160a01b031681526020808301511515908201526040808301519082015260608101610636565b602081526000611226602083018461319b565b6000806040838503121561333657600080fd5b50508035926020909101359150565b634e487b7160e01b600052603260045260246000fd5b600181811c9082168061336f57607f821691505b60208210810361338f57634e487b7160e01b600052602260045260246000fd5b50919050565b8183823760009101908152919050565b634e487b7160e01b600052601160045260246000fd5b6000816133ca576133ca6133a5565b506000190190565b60208152816020820152818360408301376000818301604090810191909152601f909201601f19160101919050565b600082821015613413576134136133a5565b500390565b600060208083526000845481600182811c91508083168061343a57607f831692505b858310810361345757634e487b7160e01b85526022600452602485fd5b8786018381526020018180156134745760018114613485576134b0565b60ff198616825287820196506134b0565b60008b81526020902060005b868110156134aa57815484820152908501908901613491565b83019750505b50949998505050505050505050565b634e487b7160e01b600052603160045260246000fd5b6000600182016134e7576134e76133a5565b5060010190565b634e487b7160e01b600052601260045260246000fd5b600082613513576135136134ee565b500490565b600082613527576135276134ee565b500690565b6000816000190483118215151615613546576135466133a5565b500290565b6000821982111561355e5761355e6133a5565b500190565b60008251613575818460208701612ff0565b9190910192915050565b6020808252602f908201527f4d6f72652067726f75707320696e20636c7573746572207468616e20636c757360408201526e74657220636f6e73747261696e747360881b606082015260800190565b8381526060602082015260006135e7606083018561301c565b905060018060a01b0383166040830152949350505050565b7f416363657373436f6e74726f6c3a206163636f756e7420000000000000000000815260008351613637816017850160208801612ff0565b7001034b99036b4b9b9b4b733903937b6329607d1b6017918401918201528351613668816028840160208801612ff0565b01602801949350505050565b634e487b7160e01b600052604160045260246000fdfed3889cc5458b268d0544e5534672df1296288ca3f93cbd39bd6f497a5c622811d6416f3a6f6eddc56addd94469ad49c462add7e5da30413164ad247a89596881a264697066735822122092b17aee8c610c6c06fab05ed4bf8410252cff0c6a9fb2bd1d2075b4e994b6b864736f6c634300080e0033",
  "linkReferences": {},
  "deployedLinkReferences": {}
}