{
  "_format": "hh-sol-artifact-1",
  "contractName": "IngesterOrchestratorV2",
  "sourceName": "contracts/IngesterOrchestratorV2/IngesterOrchestratorV2.sol",
  "abi": [
    {
      "inputs": [
        {
          "internalType": "uint256",
          "name": "maxNumberIngesterPerGroup",
          "type": "uint256"
        }
      ],
      "stateMutability": "nonpayable",
      "type": "constructor"
    },
    {
      "anonymous": false,
      "inputs": [
        {
          "indexed": false,
          "internalType": "string",
          "name": "groupUsername",
          "type": "string"
        }
      ],
      "name": "GroupAdded",
      "type": "event"
    },
    {
      "anonymous": false,
      "inputs": [
        {
          "indexed": false,
          "internalType": "string",
          "name": "groupUsername",
          "type": "string"
        }
      ],
      "name": "GroupRemoved",
      "type": "event"
    },
    {
      "anonymous": false,
      "inputs": [
        {
          "indexed": true,
          "internalType": "address",
          "name": "ingesterAddress",
          "type": "address"
        },
        {
          "indexed": false,
          "internalType": "string",
          "name": "group",
          "type": "string"
        }
      ],
      "name": "GroupRemovedFromIngester",
      "type": "event"
    },
    {
      "anonymous": false,
      "inputs": [
        {
          "indexed": true,
          "internalType": "address",
          "name": "controllerAddress",
          "type": "address"
        },
        {
          "indexed": true,
          "internalType": "address",
          "name": "ingesterAddress",
          "type": "address"
        }
      ],
      "name": "IngesterRegistered",
      "type": "event"
    },
    {
      "anonymous": false,
      "inputs": [
        {
          "indexed": true,
          "internalType": "address",
          "name": "ingesterAddress",
          "type": "address"
        },
        {
          "indexed": false,
          "internalType": "string[]",
          "name": "assignedGroups",
          "type": "string[]"
        }
      ],
      "name": "IngesterRegisteredGroups",
      "type": "event"
    },
    {
      "anonymous": false,
      "inputs": [
        {
          "indexed": true,
          "internalType": "address",
          "name": "ingesterAddress",
          "type": "address"
        },
        {
          "indexed": true,
          "internalType": "string",
          "name": "groupId",
          "type": "string"
        }
      ],
      "name": "IngesterRemovedFromGroup",
      "type": "event"
    },
    {
      "anonymous": false,
      "inputs": [
        {
          "indexed": true,
          "internalType": "address",
          "name": "controllerAddress",
          "type": "address"
        },
        {
          "indexed": true,
          "internalType": "address",
          "name": "ingesterAddress",
          "type": "address"
        }
      ],
      "name": "IngesterUnRegistered",
      "type": "event"
    },
    {
      "anonymous": false,
      "inputs": [
        {
          "indexed": true,
          "internalType": "address",
          "name": "ingesterAddress",
          "type": "address"
        },
        {
          "indexed": false,
          "internalType": "string",
          "name": "usersIpfsHash",
          "type": "string"
        },
        {
          "indexed": false,
          "internalType": "string",
          "name": "chatsIpfsHash",
          "type": "string"
        },
        {
          "indexed": false,
          "internalType": "string",
          "name": "messagesIpfsHash",
          "type": "string"
        }
      ],
      "name": "IpfsHashAdded",
      "type": "event"
    },
    {
      "anonymous": false,
      "inputs": [
        {
          "indexed": true,
          "internalType": "address",
          "name": "previousOwner",
          "type": "address"
        },
        {
          "indexed": true,
          "internalType": "address",
          "name": "newOwner",
          "type": "address"
        }
      ],
      "name": "OwnershipTransferred",
      "type": "event"
    },
    {
      "anonymous": false,
      "inputs": [
        {
          "indexed": true,
          "internalType": "bytes32",
          "name": "role",
          "type": "bytes32"
        },
        {
          "indexed": true,
          "internalType": "bytes32",
          "name": "previousAdminRole",
          "type": "bytes32"
        },
        {
          "indexed": true,
          "internalType": "bytes32",
          "name": "newAdminRole",
          "type": "bytes32"
        }
      ],
      "name": "RoleAdminChanged",
      "type": "event"
    },
    {
      "anonymous": false,
      "inputs": [
        {
          "indexed": true,
          "internalType": "bytes32",
          "name": "role",
          "type": "bytes32"
        },
        {
          "indexed": true,
          "internalType": "address",
          "name": "account",
          "type": "address"
        },
        {
          "indexed": true,
          "internalType": "address",
          "name": "sender",
          "type": "address"
        }
      ],
      "name": "RoleGranted",
      "type": "event"
    },
    {
      "anonymous": false,
      "inputs": [
        {
          "indexed": true,
          "internalType": "bytes32",
          "name": "role",
          "type": "bytes32"
        },
        {
          "indexed": true,
          "internalType": "address",
          "name": "account",
          "type": "address"
        },
        {
          "indexed": true,
          "internalType": "address",
          "name": "sender",
          "type": "address"
        }
      ],
      "name": "RoleRevoked",
      "type": "event"
    },
    {
      "anonymous": false,
      "inputs": [
        {
          "indexed": false,
          "internalType": "uint256",
          "name": "maxNumberIngesterPerGroup",
          "type": "uint256"
        }
      ],
      "name": "SetNewMaxIngesterPerGroup",
      "type": "event"
    },
    {
      "inputs": [],
      "name": "DEFAULT_ADMIN_ROLE",
      "outputs": [
        {
          "internalType": "bytes32",
          "name": "",
          "type": "bytes32"
        }
      ],
      "stateMutability": "view",
      "type": "function"
    },
    {
      "inputs": [],
      "name": "INGESTER_ROLE",
      "outputs": [
        {
          "internalType": "bytes32",
          "name": "",
          "type": "bytes32"
        }
      ],
      "stateMutability": "view",
      "type": "function"
    },
    {
      "inputs": [],
      "name": "_groupCount",
      "outputs": [
        {
          "internalType": "uint256",
          "name": "",
          "type": "uint256"
        }
      ],
      "stateMutability": "view",
      "type": "function"
    },
    {
      "inputs": [
        {
          "internalType": "uint256",
          "name": "",
          "type": "uint256"
        }
      ],
      "name": "_groupUsernames",
      "outputs": [
        {
          "internalType": "string",
          "name": "",
          "type": "string"
        }
      ],
      "stateMutability": "view",
      "type": "function"
    },
    {
      "inputs": [
        {
          "internalType": "address",
          "name": "_address",
          "type": "address"
        },
        {
          "internalType": "string",
          "name": "_value",
          "type": "string"
        },
        {
          "internalType": "uint256",
          "name": "_nonce",
          "type": "uint256"
        }
      ],
      "name": "_hash",
      "outputs": [
        {
          "internalType": "bytes32",
          "name": "",
          "type": "bytes32"
        }
      ],
      "stateMutability": "pure",
      "type": "function"
    },
    {
      "inputs": [
        {
          "internalType": "uint256",
          "name": "",
          "type": "uint256"
        }
      ],
      "name": "_ingesterAddresses",
      "outputs": [
        {
          "internalType": "address",
          "name": "",
          "type": "address"
        }
      ],
      "stateMutability": "view",
      "type": "function"
    },
    {
      "inputs": [],
      "name": "_ingesterCount",
      "outputs": [
        {
          "internalType": "uint256",
          "name": "",
          "type": "uint256"
        }
      ],
      "stateMutability": "view",
      "type": "function"
    },
    {
      "inputs": [
        {
          "internalType": "address",
          "name": "",
          "type": "address"
        }
      ],
      "name": "_ipfsHashes",
      "outputs": [
        {
          "internalType": "string",
          "name": "usersIpfsHash",
          "type": "string"
        },
        {
          "internalType": "string",
          "name": "chatsIpfsHash",
          "type": "string"
        },
        {
          "internalType": "string",
          "name": "messagesIpfsHash",
          "type": "string"
        }
      ],
      "stateMutability": "view",
      "type": "function"
    },
    {
      "inputs": [],
      "name": "_maxNumberIngesterPerGroup",
      "outputs": [
        {
          "internalType": "uint256",
          "name": "",
          "type": "uint256"
        }
      ],
      "stateMutability": "view",
      "type": "function"
    },
    {
      "inputs": [
        {
          "internalType": "string",
          "name": "groupUsername",
          "type": "string"
        }
      ],
      "name": "addGroup",
      "outputs": [],
      "stateMutability": "nonpayable",
      "type": "function"
    },
    {
      "inputs": [
        {
          "internalType": "address",
          "name": "ingesterAddress",
          "type": "address"
        },
        {
          "internalType": "string",
          "name": "usersHash",
          "type": "string"
        },
        {
          "internalType": "string",
          "name": "chatsHash",
          "type": "string"
        },
        {
          "internalType": "string",
          "name": "messagesHash",
          "type": "string"
        }
      ],
      "name": "addIpfsHash",
      "outputs": [],
      "stateMutability": "nonpayable",
      "type": "function"
    },
    {
      "inputs": [
        {
          "internalType": "string",
          "name": "groupUsername",
          "type": "string"
        }
      ],
      "name": "getGroup",
      "outputs": [
        {
          "components": [
            {
              "internalType": "bool",
              "name": "isAdded",
              "type": "bool"
            },
            {
              "internalType": "address[]",
              "name": "ingesterAddresses",
              "type": "address[]"
            },
            {
              "internalType": "uint256",
              "name": "groupUsernameIndex",
              "type": "uint256"
            }
          ],
          "internalType": "struct IIngesterOrchestratorV2.GroupToIngester",
          "name": "",
          "type": "tuple"
        }
      ],
      "stateMutability": "view",
      "type": "function"
    },
    {
      "inputs": [
        {
          "internalType": "address",
          "name": "ingesterAddress",
          "type": "address"
        }
      ],
      "name": "getIngester",
      "outputs": [
        {
          "components": [
            {
              "internalType": "address",
              "name": "ingesterAddress",
              "type": "address"
            },
            {
              "internalType": "bool",
              "name": "verified",
              "type": "bool"
            },
            {
              "internalType": "string[]",
              "name": "assignedGroups",
              "type": "string[]"
            }
          ],
          "internalType": "struct IIngesterRegistrationV2.Ingester",
          "name": "",
          "type": "tuple"
        }
      ],
      "stateMutability": "view",
      "type": "function"
    },
    {
      "inputs": [
        {
          "internalType": "address",
          "name": "ingesterAddress",
          "type": "address"
        }
      ],
      "name": "getIpfsHashes",
      "outputs": [
        {
          "components": [
            {
              "internalType": "string",
              "name": "usersIpfsHash",
              "type": "string"
            },
            {
              "internalType": "string",
              "name": "chatsIpfsHash",
              "type": "string"
            },
            {
              "internalType": "string",
              "name": "messagesIpfsHash",
              "type": "string"
            }
          ],
          "internalType": "struct IIngesterDataGatheringV2.IpfsHash",
          "name": "ipfsHashes",
          "type": "tuple"
        }
      ],
      "stateMutability": "view",
      "type": "function"
    },
    {
      "inputs": [
        {
          "internalType": "bytes32",
          "name": "role",
          "type": "bytes32"
        }
      ],
      "name": "getRoleAdmin",
      "outputs": [
        {
          "internalType": "bytes32",
          "name": "",
          "type": "bytes32"
        }
      ],
      "stateMutability": "view",
      "type": "function"
    },
    {
      "inputs": [
        {
          "internalType": "bytes32",
          "name": "role",
          "type": "bytes32"
        },
        {
          "internalType": "uint256",
          "name": "index",
          "type": "uint256"
        }
      ],
      "name": "getRoleMember",
      "outputs": [
        {
          "internalType": "address",
          "name": "",
          "type": "address"
        }
      ],
      "stateMutability": "view",
      "type": "function"
    },
    {
      "inputs": [
        {
          "internalType": "bytes32",
          "name": "role",
          "type": "bytes32"
        }
      ],
      "name": "getRoleMemberCount",
      "outputs": [
        {
          "internalType": "uint256",
          "name": "",
          "type": "uint256"
        }
      ],
      "stateMutability": "view",
      "type": "function"
    },
    {
      "inputs": [
        {
          "internalType": "bytes32",
          "name": "role",
          "type": "bytes32"
        },
        {
          "internalType": "address",
          "name": "account",
          "type": "address"
        }
      ],
      "name": "grantRole",
      "outputs": [],
      "stateMutability": "nonpayable",
      "type": "function"
    },
    {
      "inputs": [
        {
          "internalType": "bytes32",
          "name": "role",
          "type": "bytes32"
        },
        {
          "internalType": "address",
          "name": "account",
          "type": "address"
        }
      ],
      "name": "hasRole",
      "outputs": [
        {
          "internalType": "bool",
          "name": "",
          "type": "bool"
        }
      ],
      "stateMutability": "view",
      "type": "function"
    },
    {
      "inputs": [],
      "name": "owner",
      "outputs": [
        {
          "internalType": "address",
          "name": "",
          "type": "address"
        }
      ],
      "stateMutability": "view",
      "type": "function"
    },
    {
      "inputs": [
        {
          "internalType": "address",
          "name": "ingesterAddress",
          "type": "address"
        },
        {
          "internalType": "string",
          "name": "message",
          "type": "string"
        },
        {
          "internalType": "uint256",
          "name": "nonce",
          "type": "uint256"
        },
        {
          "internalType": "bytes",
          "name": "sig",
          "type": "bytes"
        }
      ],
      "name": "registerIngester",
      "outputs": [],
      "stateMutability": "nonpayable",
      "type": "function"
    },
    {
      "inputs": [
        {
          "internalType": "string",
          "name": "groupUsername",
          "type": "string"
        }
      ],
      "name": "removeGroup",
      "outputs": [],
      "stateMutability": "nonpayable",
      "type": "function"
    },
    {
      "inputs": [
        {
          "internalType": "string",
          "name": "groupUsername",
          "type": "string"
        },
        {
          "internalType": "address[]",
          "name": "ingesterAddresses",
          "type": "address[]"
        }
      ],
      "name": "removingGroupFromIngesters",
      "outputs": [],
      "stateMutability": "nonpayable",
      "type": "function"
    },
    {
      "inputs": [],
      "name": "renounceOwnership",
      "outputs": [],
      "stateMutability": "nonpayable",
      "type": "function"
    },
    {
      "inputs": [
        {
          "internalType": "bytes32",
          "name": "role",
          "type": "bytes32"
        },
        {
          "internalType": "address",
          "name": "account",
          "type": "address"
        }
      ],
      "name": "renounceRole",
      "outputs": [],
      "stateMutability": "nonpayable",
      "type": "function"
    },
    {
      "inputs": [
        {
          "internalType": "bytes32",
          "name": "role",
          "type": "bytes32"
        },
        {
          "internalType": "address",
          "name": "account",
          "type": "address"
        }
      ],
      "name": "revokeRole",
      "outputs": [],
      "stateMutability": "nonpayable",
      "type": "function"
    },
    {
      "inputs": [
        {
          "internalType": "uint256",
          "name": "maxNumberIngesterPerGroup",
          "type": "uint256"
        }
      ],
      "name": "setMaxNumberIngesterPerGroup",
      "outputs": [],
      "stateMutability": "nonpayable",
      "type": "function"
    },
    {
      "inputs": [
        {
          "internalType": "bytes4",
          "name": "interfaceId",
          "type": "bytes4"
        }
      ],
      "name": "supportsInterface",
      "outputs": [
        {
          "internalType": "bool",
          "name": "",
          "type": "bool"
        }
      ],
      "stateMutability": "view",
      "type": "function"
    },
    {
      "inputs": [
        {
          "internalType": "address",
          "name": "newOwner",
          "type": "address"
        }
      ],
      "name": "transferOwnership",
      "outputs": [],
      "stateMutability": "nonpayable",
      "type": "function"
    },
    {
      "inputs": [
        {
          "internalType": "address",
          "name": "ingesterAddress",
          "type": "address"
        }
      ],
      "name": "unRegisterIngester",
      "outputs": [],
      "stateMutability": "nonpayable",
      "type": "function"
    },
    {
      "inputs": [
        {
          "internalType": "address",
          "name": "ingesterAddress",
          "type": "address"
        },
        {
          "internalType": "address",
          "name": "originCaller",
          "type": "address"
        }
      ],
      "name": "unRegisteringIngester",
      "outputs": [
        {
          "internalType": "string[]",
          "name": "groups",
          "type": "string[]"
        }
      ],
      "stateMutability": "nonpayable",
      "type": "function"
    }
  ],
  "bytecode": "0x60806040523480156200001157600080fd5b5060405162003bf738038062003bf78339810160408190526200003491620001e3565b6200003f3362000055565b6200004c600033620000a5565b600a55620001fd565b600080546001600160a01b038381166001600160a01b0319831681178455604051919092169283917f8be0079c531659141344cd1fd0a4f28419497f9722a3daafe3b4186f6b6457e09190a35050565b620000bc8282620000e860201b62001f4e1760201c565b6000828152600260209081526040909120620000e391839062001fb962000171821b17901c565b505050565b60008281526001602090815260408083206001600160a01b038516845290915290205460ff166200016d5760008281526001602081815260408084206001600160a01b0386168086529252808420805460ff19169093179092559051339285917f2f8788117e7eff1d82e926ec794901d17c78024a50270940304540a733656f0d9190a45b5050565b600062000188836001600160a01b03841662000191565b90505b92915050565b6000818152600183016020526040812054620001da575081546001818101845560008481526020808220909301849055845484825282860190935260409020919091556200018b565b5060006200018b565b600060208284031215620001f657600080fd5b5051919050565b6139ea806200020d6000396000f3fe608060405234801561001057600080fd5b50600436106101e55760003560e01c80637ada26811161010f578063b5166ca5116100a2578063cc05054611610071578063cc0505461461045f578063d547741f14610472578063e522662e14610485578063f2fde38b1461048e57600080fd5b8063b5166ca5146103f7578063bf00eaef14610419578063c4df50071461042c578063ca15c8731461044c57600080fd5b806391d14854116100de57806391d14854146103a9578063a217fddf146103bc578063abef281e146103c4578063b3d1dba6146103e457600080fd5b80637ada26811461035f5780637c517e68146103725780638da5cb5b146103855780639010d07c1461039657600080fd5b806333bdff78116101875780636246b310116101565780636246b310146103115780636d926761146103245780636ec112b714610337578063715018a61461035757600080fd5b806333bdff78146102b757806336568abe146102ca5780633667e6fe146102dd57806358d2563c1461030857600080fd5b80631a5d7f3e116101c35780631a5d7f3e14610249578063213d123514610269578063248a9ca31461027e5780632f2ff15d146102a257600080fd5b806301ffc9a7146101ea578063046fb9aa146102125780631560441014610232575b600080fd5b6101fd6101f8366004613001565b6104a1565b60405190151581526020015b60405180910390f35b610225610220366004613047565b6104cc565b60405161020991906130d2565b61023b60065481565b604051908152602001610209565b61025c610257366004613134565b610845565b604051610209919061314f565b61023b60008051602061399583398151915281565b61023b61028c3660046131b0565b6000908152600160208190526040909120015490565b6102b56102b03660046131c9565b610a48565b005b61023b6102c536600461322e565b610a73565b6102b56102d83660046131c9565b610aac565b6102f06102eb3660046131b0565b610b2a565b6040516001600160a01b039091168152602001610209565b61023b600b5481565b6102b561031f366004613288565b610b54565b6102b5610332366004613311565b610d7e565b61034a6103453660046131b0565b61120b565b60405161020991906133e7565b6102b56112b7565b6102b561036d3660046131b0565b6112cb565b6102b5610380366004613134565b61132d565b6000546001600160a01b03166102f0565b6102f06103a43660046133fa565b6113b7565b6101fd6103b73660046131c9565b6113d6565b61023b600081565b6103d76103d2366004613288565b611401565b604051610209919061341c565b6102b56103f236600461348d565b61150c565b61040a610405366004613134565b61187d565b60405161020993929190613517565b6102b5610427366004613288565b611a37565b61043f61043a366004613134565b611bfc565b604051610209919061355a565b61023b61045a3660046131b0565b611dde565b6102b561046d366004613646565b611df5565b6102b56104803660046131c9565b611ef5565b61023b600a5481565b6102b561049c366004613134565b611f1b565b60006001600160e01b03198216635a05180f60e01b14806104c657506104c682611fce565b92915050565b60606104e6600080516020613995833981519152336113d6565b61050b5760405162461bcd60e51b8152600401610502906136df565b60405180910390fd5b6001600160a01b0383811660009081526004602052604090205416331461059a5760405162461bcd60e51b815260206004820152603860248201527f496e676573746f72206973206e6f74207265676973746572656420776974682060448201527f7468697320636f6e74726f6c6c657220616464726573732e00000000000000006064820152608401610502565b6001600160a01b03808416600090815260046020908152604080832080546001600160a01b0319168155600101549386168352600390915281208054839081106105e6576105e6613722565b9060005260206000209060020201600101805480602002602001604051908101604052809291908181526020016000905b828210156106c357838290600052602060002001805461063690613738565b80601f016020809104026020016040519081016040528092919081815260200182805461066290613738565b80156106af5780601f10610684576101008083540402835291602001916106af565b820191906000526020600020905b81548152906001019060200180831161069257829003601f168201915b505050505081526020019060010190610617565b505050506001600160a01b038616600090815260046020526040902060020154600580549293509181106106f9576106f9613722565b6000918252602080832090910180546001600160a01b03191690556001600160a01b0386168252600390526040902080548390811061073a5761073a613722565b60009182526020822060029091020180546001600160a81b0319168155906107656001830182612dd1565b505060408051606081018252600080825260208083018281528385018381526001600160a01b038b8116855260048452868520955186546001600160a01b0319169082161786559151600186015551600290940193909355918716815260039091522054156107e8576107e86c494e4745535445525f524f4c4560981b85610aac565b600680549060006107f883613788565b9190505550846001600160a01b0316846001600160a01b03167f79380a89f74b107e43a1a5deb8dc2d4604401f3b5574f3746ab9edb0881896b760405160405180910390a3949350505050565b61086960405180606001604052806060815260200160608152602001606081525090565b6001600160a01b0382166000908152600760205260409081902081516060810190925280548290829061089b90613738565b80601f01602080910402602001604051908101604052809291908181526020018280546108c790613738565b80156109145780601f106108e957610100808354040283529160200191610914565b820191906000526020600020905b8154815290600101906020018083116108f757829003601f168201915b5050505050815260200160018201805461092d90613738565b80601f016020809104026020016040519081016040528092919081815260200182805461095990613738565b80156109a65780601f1061097b576101008083540402835291602001916109a6565b820191906000526020600020905b81548152906001019060200180831161098957829003601f168201915b505050505081526020016002820180546109bf90613738565b80601f01602080910402602001604051908101604052809291908181526020018280546109eb90613738565b8015610a385780601f10610a0d57610100808354040283529160200191610a38565b820191906000526020600020905b815481529060010190602001808311610a1b57829003601f168201915b5050505050815250509050919050565b60008281526001602081905260409091200154610a6481612003565b610a6e838361200d565b505050565b600084848484604051602001610a8c949392919061379f565b604051602081830303815290604052805190602001209050949350505050565b6001600160a01b0381163314610b1c5760405162461bcd60e51b815260206004820152602f60248201527f416363657373436f6e74726f6c3a2063616e206f6e6c792072656e6f756e636560448201526e103937b632b9903337b91039b2b63360891b6064820152608401610502565b610b26828261202f565b5050565b60058181548110610b3a57600080fd5b6000918252602090912001546001600160a01b0316905081565b610b5f6000336113d6565b610b7b5760405162461bcd60e51b8152600401610502906137cc565b60088282604051610b8d92919061380f565b9081526040519081900360200190205460ff16610be45760405162461bcd60e51b815260206004820152601560248201527423b937bab8103237b2b9903737ba1032bc34b9ba1760591b6044820152606401610502565b600060088383604051610bf892919061380f565b9081526040805191829003602090810183206001018054808302850183019093528284529190830182828015610c5757602002820191906000526020600020905b81546001600160a01b03168152600190910190602001808311610c39575b50505050509050610c69838383610d7e565b600060088484604051610c7d92919061380f565b9081526040805160209281900383018120805460ff191694151594909417909355600080845291830190525060088484604051610cbb92919061380f565b90815260200160405180910390206001019080519060200190610cdf929190612def565b50600960088484604051610cf492919061380f565b90815260200160405180910390206003015481548110610d1657610d16613722565b906000526020600020016000610d2c9190612e54565b600b60008154610d3b90613788565b909155506040517f3d23503bda008e50d93c77e132b7d2cde3189a8de034b6d382a71004b5a1b04890610d71908590859061381f565b60405180910390a1505050565b60005b815181101561120557600060046000848481518110610da257610da2613722565b60200260200101516001600160a01b03166001600160a01b0316815260200190815260200160002060000160009054906101000a90046001600160a01b03169050600060046000858581518110610dfb57610dfb613722565b60200260200101516001600160a01b03166001600160a01b03168152602001908152602001600020600101549050600060088787604051610e3d92919061380f565b90815260200160405180910390206002016000868681518110610e6257610e62613722565b60200260200101516001600160a01b03166001600160a01b0316815260200190815260200160002054905060036000846001600160a01b03166001600160a01b031681526020019081526020016000208281548110610ec357610ec3613722565b9060005260206000209060020201600101805490508110610f1c5760405162461bcd60e51b8152602060048201526013602482015272496e646578206f7574206f6620626f756e647360681b6044820152606401610502565b6001600160a01b0383166000908152600360205260408120805484908110610f4657610f46613722565b9060005260206000209060020201600101600160036000876001600160a01b03166001600160a01b031681526020019081526020016000208581548110610f8f57610f8f613722565b906000526020600020906002020160010180549050610fae919061384e565b81548110610fbe57610fbe613722565b906000526020600020018054610fd390613738565b80601f0160208091040260200160405190810160405280929190818152602001828054610fff90613738565b801561104c5780601f106110215761010080835404028352916020019161104c565b820191906000526020600020905b81548152906001019060200180831161102f57829003601f168201915b505050505090508060036000866001600160a01b03166001600160a01b03168152602001908152602001600020848154811061108a5761108a613722565b906000526020600020906002020160010183815481106110ac576110ac613722565b9060005260206000200190805190602001906110c9929190612e8e565b506001600160a01b03841660009081526003602052604090208054849081106110f4576110f4613722565b906000526020600020906002020160010180548061111457611114613865565b6001900381819060005260206000200160006111309190612e54565b905581600882604051611143919061387b565b9081526020016040518091039020600201600088888151811061116857611168613722565b60200260200101516001600160a01b03166001600160a01b03168152602001908152602001600020819055508585815181106111a6576111a6613722565b60200260200101516001600160a01b03167f98520fabc4daafb3fcd89c9beb1336c516d29b8b1ae20d6f9b504422b18db6b689896040516111e892919061381f565b60405180910390a250505050806111fe90613897565b9050610d81565b50505050565b6009818154811061121b57600080fd5b90600052602060002001600091509050805461123690613738565b80601f016020809104026020016040519081016040528092919081815260200182805461126290613738565b80156112af5780601f10611284576101008083540402835291602001916112af565b820191906000526020600020905b81548152906001019060200180831161129257829003601f168201915b505050505081565b6112bf612051565b6112c960006120ab565b565b6112d66000336113d6565b6112f25760405162461bcd60e51b8152600401610502906137cc565b600a8190556040518181527f97296759d1a71daf3c2445740699ceabce10b74641f5db9f717efee020eacfc09060200160405180910390a150565b611345600080516020613995833981519152336113d6565b6113615760405162461bcd60e51b8152600401610502906136df565b600061136d82336104cc565b905061137981836120fb565b60005b8151811015610a6e576113a782828151811061139a5761139a613722565b60200260200101516123c8565b6113b081613897565b905061137c565b60008281526002602052604081206113cf90836126df565b9392505050565b60009182526001602090815260408084206001600160a01b0393909316845291905290205460ff1690565b611427604051806060016040528060001515815260200160608152602001600081525090565b600060405180606001604052806008868660405161144692919061380f565b90815260408051602092819003830190205460ff161515835251910190600890611473908890889061380f565b90815260408051918290036020908101832060010180548083028501830190935282845291908301828280156114d257602002820191906000526020600020905b81546001600160a01b031681526001909101906020018083116114b4575b50505050508152602001600886866040516114ee92919061380f565b90815260405190819003602001902060030154905291505092915050565b6001600160a01b03868116600090815260046020526040902054339116036115765760405162461bcd60e51b815260206004820152601c60248201527f496e676573746f7220616c726561647920726567697374657265642e000000006044820152606401610502565b600061158487878787610a73565b905060006115df826040517f19457468657265756d205369676e6564204d6573736167653a0a3332000000006020820152603c8101829052600090605c01604051602081830303815290604052805190602001209050919050565b9050876001600160a01b031661162b8286868080601f0160208091040260200160405190810160405280939291908181526020018383808284376000920191909152506126eb92505050565b6001600160a01b0316146116765760405162461bcd60e51b815260206004820152601260248201527124b73b30b634b21039b4b3b730ba3ab9329760711b6044820152606401610502565b604080516060810182526001600160a01b038a16815260016020808301919091528251600080825291810184529092820190836116c3565b60608152602001906001900390816116ae5790505b5090523360009081526003602090815260408083208054600181810183559185529383902085516002909502018054848701511515600160a01b026001600160a81b03199091166001600160a01b039690961695909517949094178455908401518051949550859461173d93928501929190910190612f02565b5050506001600160a01b038916600090815260046020908152604080832080546001600160a01b03191633908117909155835260039091529020546117849060019061384e565b6001600160a01b038a166000818152600460205260408120600190810193909355600580548085018255918190527f036b6384b5eca791c62761152d0c79bb0604c104a5fb6f4eb0703f3154bb3db090910180546001600160a01b031916909217909155546117f3919061384e565b6001600160a01b038a166000908152600460205260409020600201556118276000805160206139958339815191523361200d565b6006805490600061183783613897565b90915550506040516001600160a01b038a169033907f598653493b84e77228e4614aa23cba963c3e1438e36e835add87eee447fa3b5290600090a3505050505050505050565b60076020526000908152604090208054819061189890613738565b80601f01602080910402602001604051908101604052809291908181526020018280546118c490613738565b80156119115780601f106118e657610100808354040283529160200191611911565b820191906000526020600020905b8154815290600101906020018083116118f457829003601f168201915b50505050509080600101805461192690613738565b80601f016020809104026020016040519081016040528092919081815260200182805461195290613738565b801561199f5780601f106119745761010080835404028352916020019161199f565b820191906000526020600020905b81548152906001019060200180831161198257829003601f168201915b5050505050908060020180546119b490613738565b80601f01602080910402602001604051908101604052809291908181526020018280546119e090613738565b8015611a2d5780601f10611a0257610100808354040283529160200191611a2d565b820191906000526020600020905b815481529060010190602001808311611a1057829003601f168201915b5050505050905083565b611a426000336113d6565b611a5e5760405162461bcd60e51b8152600401610502906137cc565b60088282604051611a7092919061380f565b9081526040519081900360200190205460ff1615611ac85760405162461bcd60e51b815260206004820152601560248201527423b937bab81030b63932b0b23c9032bc34b9ba399760591b6044820152606401610502565b60098054600181018255600091909152611b05907f6e1540171b6c0c960b71a7020d9f60077f6af931a8bbf590da0223dacf75c7af018383612f5b565b50600160088383604051611b1a92919061380f565b908152604051908190036020019020805491151560ff19909216919091179055600954611b499060019061384e565b60088383604051611b5b92919061380f565b90815260405190819003602001902060030155600b8054600090611b7e90613897565b90915550604080516020601f8401819004810282018101909252828152611bbf9184908490819084018382808284376000920191909152506123c892505050565b7ff38f46310740c7f6f3e724364a429e671b125298f7a65e69fc18ff94a1e2d0478282604051611bf092919061381f565b60405180910390a15050565b604080516060808201835260008083526020830152918101919091526001600160a01b0382811660009081526004602052604090205416611c7f5760405162461bcd60e51b815260206004820152601860248201527f496e67657374657220646f6573206e6f742065786973742e00000000000000006044820152606401610502565b6001600160a01b038083166000818152600460208181526040808420805490961680855260038352908420949093525260019092015481548110611cc557611cc5613722565b6000918252602080832060408051606081018252600290940290910180546001600160a01b038116855260ff600160a01b90910416151584840152600181018054835181860281018601855281815295969295938701949192909184015b82821015611dcf578382906000526020600020018054611d4290613738565b80601f0160208091040260200160405190810160405280929190818152602001828054611d6e90613738565b8015611dbb5780601f10611d9057610100808354040283529160200191611dbb565b820191906000526020600020905b815481529060010190602001808311611d9e57829003601f168201915b505050505081526020019060010190611d23565b50505091525090949350505050565b60008181526002602052604081206104c69061270f565b611e0d600080516020613995833981519152336113d6565b611e295760405162461bcd60e51b8152600401610502906136df565b6040805160608101825284815260208082018590528183018490526001600160a01b038716600090815260078252929092208151805192938493611e709284920190612e8e565b506020828101518051611e899260018501920190612e8e565b5060408201518051611ea5916002840191602090910190612e8e565b50905050846001600160a01b03167f4a91c5c6c2b23e82aa7b3e531ffa0ec1f52cc09186bfb1a33e0a1823ebe82a44858585604051611ee693929190613517565b60405180910390a25050505050565b60008281526001602081905260409091200154611f1181612003565b610a6e838361202f565b611f266000336113d6565b611f425760405162461bcd60e51b8152600401610502906137cc565b611f4b81612719565b50565b611f5882826113d6565b610b265760008281526001602081815260408084206001600160a01b0386168086529252808420805460ff19169093179092559051339285917f2f8788117e7eff1d82e926ec794901d17c78024a50270940304540a733656f0d9190a45050565b60006113cf836001600160a01b03841661278f565b60006001600160e01b03198216637965db0b60e01b14806104c657506301ffc9a760e01b6001600160e01b03198316146104c6565b611f4b81336127de565b6120178282611f4e565b6000828152600260205260409020610a6e9082611fb9565b6120398282612837565b6000828152600260205260409020610a6e908261289e565b6000546001600160a01b031633146112c95760405162461bcd60e51b815260206004820181905260248201527f4f776e61626c653a2063616c6c6572206973206e6f7420746865206f776e65726044820152606401610502565b600080546001600160a01b038381166001600160a01b0319831681178455604051919092169283917f8be0079c531659141344cd1fd0a4f28419497f9722a3daafe3b4186f6b6457e09190a35050565b60005b8251811015610a6e576000600884838151811061211d5761211d613722565b6020026020010151604051612132919061387b565b90815260405190819003602001902060010154905060005b818110156123b557836001600160a01b0316600886858151811061217057612170613722565b6020026020010151604051612185919061387b565b908152602001604051809103902060010182815481106121a7576121a7613722565b6000918252602090912001546001600160a01b0316036123a357805b6121ce60018461384e565b8110156122ce5760088685815181106121e9576121e9613722565b60200260200101516040516121fe919061387b565b908152602001604051809103902060010181600161221c91906138b0565b8154811061222c5761222c613722565b9060005260206000200160009054906101000a90046001600160a01b0316600887868151811061225e5761225e613722565b6020026020010151604051612273919061387b565b9081526020016040518091039020600101828154811061229557612295613722565b600091825260209091200180546001600160a01b0319166001600160a01b03929092169190911790556122c781613897565b90506121c3565b5060088584815181106122e3576122e3613722565b60200260200101516040516122f8919061387b565b908152602001604051809103902060010180548061231857612318613865565b600082815260209020810160001990810180546001600160a01b0319169055019055845185908490811061234e5761234e613722565b6020026020010151604051612363919061387b565b604051908190038120906001600160a01b038616907ff44daf5bb2b216f36d3e8dbd133029dbed9c9a9cc146a994f4059825fcd5b85c90600090a36123b5565b806123ad81613897565b91505061214a565b5050806123c190613897565b90506120fe565b60006006546001600654600b546123df91906138b0565b6123e9919061384e565b6123f391906138c8565b905060005b600554811015610a6e5760006001600160a01b0316600460006005848154811061242457612424613722565b60009182526020808320909101546001600160a01b03908116845290830193909352604090910190205416146126cf576000600460006005848154811061246d5761246d613722565b60009182526020808320909101546001600160a01b039081168452908301939093526040909101812054600580549190931693509091600491839190869081106124b9576124b9613722565b60009182526020808320909101546001600160a01b039081168452838201949094526040928301822060010154938616825260039052908120805492935090918390811061250957612509613722565b90600052602060002090600202016001018054905090506000600887604051612532919061387b565b90815260405190819003602001902060010154905085821080156125575750600a5481105b156126ca576001600160a01b038416600090815260036020526040902080548490811061258657612586613722565b60009182526020808320600160029093020182018054928301815583529182902089516125bb939190920191908a0190612e8e565b506008876040516125cc919061387b565b9081526020016040518091039020600101600586815481106125f0576125f0613722565b60009182526020808320909101548354600181810186559484528284200180546001600160a01b0319166001600160a01b0392831617905587168252600390526040902080548590811061264657612646613722565b906000526020600020906002020160010180549050612665919061384e565b600888604051612675919061387b565b908152602001604051809103902060020160006005888154811061269b5761269b613722565b60009182526020808320909101546001600160a01b0316835282019290925260400190205550610a6e92505050565b505050505b6126d881613897565b90506123f8565b60006113cf83836128b3565b60008060006126fa85856128dd565b9150915061270781612922565b509392505050565b60006104c6825490565b612721612051565b6001600160a01b0381166127865760405162461bcd60e51b815260206004820152602660248201527f4f776e61626c653a206e6577206f776e657220697320746865207a65726f206160448201526564647265737360d01b6064820152608401610502565b611f4b816120ab565b60008181526001830160205260408120546127d6575081546001818101845560008481526020808220909301849055845484825282860190935260409020919091556104c6565b5060006104c6565b6127e882826113d6565b610b26576127f581612a6c565b612800836020612a7e565b6040516020016128119291906138ea565b60408051601f198184030181529082905262461bcd60e51b8252610502916004016133e7565b61284182826113d6565b15610b265760008281526001602090815260408083206001600160a01b0385168085529252808320805460ff1916905551339285917ff6391f5c32d9c69d2a47ea670b442974b53935d1edc7fd64eb21e047a839171b9190a45050565b60006113cf836001600160a01b038416612c1a565b60008260000182815481106128ca576128ca613722565b9060005260206000200154905092915050565b60008082516041036129135760208301516040840151606085015160001a61290787828585612d0d565b9450945050505061291b565b506000905060025b9250929050565b60008160048111156129365761293661395f565b0361293e5750565b60018160048111156129525761295261395f565b0361299f5760405162461bcd60e51b815260206004820152601860248201527f45434453413a20696e76616c6964207369676e617475726500000000000000006044820152606401610502565b60028160048111156129b3576129b361395f565b03612a005760405162461bcd60e51b815260206004820152601f60248201527f45434453413a20696e76616c6964207369676e6174757265206c656e677468006044820152606401610502565b6003816004811115612a1457612a1461395f565b03611f4b5760405162461bcd60e51b815260206004820152602260248201527f45434453413a20696e76616c6964207369676e6174757265202773272076616c604482015261756560f01b6064820152608401610502565b60606104c66001600160a01b03831660145b60606000612a8d836002613975565b612a989060026138b0565b67ffffffffffffffff811115612ab057612ab06132ca565b6040519080825280601f01601f191660200182016040528015612ada576020820181803683370190505b509050600360fc1b81600081518110612af557612af5613722565b60200101906001600160f81b031916908160001a905350600f60fb1b81600181518110612b2457612b24613722565b60200101906001600160f81b031916908160001a9053506000612b48846002613975565b612b539060016138b0565b90505b6001811115612bcb576f181899199a1a9b1b9c1cb0b131b232b360811b85600f1660108110612b8757612b87613722565b1a60f81b828281518110612b9d57612b9d613722565b60200101906001600160f81b031916908160001a90535060049490941c93612bc481613788565b9050612b56565b5083156113cf5760405162461bcd60e51b815260206004820181905260248201527f537472696e67733a20686578206c656e67746820696e73756666696369656e746044820152606401610502565b60008181526001830160205260408120548015612d03576000612c3e60018361384e565b8554909150600090612c529060019061384e565b9050818114612cb7576000866000018281548110612c7257612c72613722565b9060005260206000200154905080876000018481548110612c9557612c95613722565b6000918252602080832090910192909255918252600188019052604090208390555b8554869080612cc857612cc8613865565b6001900381819060005260206000200160009055905585600101600086815260200190815260200160002060009055600193505050506104c6565b60009150506104c6565b6000807f7fffffffffffffffffffffffffffffff5d576e7357a4501ddfe92f46681b20a0831115612d445750600090506003612dc8565b6040805160008082526020820180845289905260ff881692820192909252606081018690526080810185905260019060a0016020604051602081039080840390855afa158015612d98573d6000803e3d6000fd5b5050604051601f1901519150506001600160a01b038116612dc157600060019250925050612dc8565b9150600090505b94509492505050565b5080546000825590600052602060002090810190611f4b9190612fcf565b828054828255906000526020600020908101928215612e44579160200282015b82811115612e4457825182546001600160a01b0319166001600160a01b03909116178255602090920191600190910190612e0f565b50612e50929150612fec565b5090565b508054612e6090613738565b6000825580601f10612e70575050565b601f016020900490600052602060002090810190611f4b9190612fec565b828054612e9a90613738565b90600052602060002090601f016020900481019282612ebc5760008555612e44565b82601f10612ed557805160ff1916838001178555612e44565b82800160010185558215612e44579182015b82811115612e44578251825591602001919060010190612ee7565b828054828255906000526020600020908101928215612f4f579160200282015b82811115612f4f5782518051612f3f918491602090910190612e8e565b5091602001919060010190612f22565b50612e50929150612fcf565b828054612f6790613738565b90600052602060002090601f016020900481019282612f895760008555612e44565b82601f10612fa25782800160ff19823516178555612e44565b82800160010185558215612e44579182015b82811115612e44578235825591602001919060010190612fb4565b80821115612e50576000612fe38282612e54565b50600101612fcf565b5b80821115612e505760008155600101612fed565b60006020828403121561301357600080fd5b81356001600160e01b0319811681146113cf57600080fd5b80356001600160a01b038116811461304257600080fd5b919050565b6000806040838503121561305a57600080fd5b6130638361302b565b91506130716020840161302b565b90509250929050565b60005b8381101561309557818101518382015260200161307d565b838111156112055750506000910152565b600081518084526130be81602086016020860161307a565b601f01601f19169290920160200192915050565b6000602080830181845280855180835260408601915060408160051b870101925083870160005b8281101561312757603f198886030184526131158583516130a6565b945092850192908501906001016130f9565b5092979650505050505050565b60006020828403121561314657600080fd5b6113cf8261302b565b60208152600082516060602084015261316b60808401826130a6565b90506020840151601f198085840301604086015261318983836130a6565b92506040860151915080858403016060860152506131a782826130a6565b95945050505050565b6000602082840312156131c257600080fd5b5035919050565b600080604083850312156131dc57600080fd5b823591506130716020840161302b565b60008083601f8401126131fe57600080fd5b50813567ffffffffffffffff81111561321657600080fd5b60208301915083602082850101111561291b57600080fd5b6000806000806060858703121561324457600080fd5b61324d8561302b565b9350602085013567ffffffffffffffff81111561326957600080fd5b613275878288016131ec565b9598909750949560400135949350505050565b6000806020838503121561329b57600080fd5b823567ffffffffffffffff8111156132b257600080fd5b6132be858286016131ec565b90969095509350505050565b634e487b7160e01b600052604160045260246000fd5b604051601f8201601f1916810167ffffffffffffffff81118282101715613309576133096132ca565b604052919050565b60008060006040848603121561332657600080fd5b833567ffffffffffffffff8082111561333e57600080fd5b61334a878388016131ec565b909550935060209150858201358181111561336457600080fd5b8601601f8101881361337557600080fd5b803582811115613387576133876132ca565b8060051b92506133988484016132e0565b818152928201840192848101908a8511156133b257600080fd5b928501925b848410156133d7576133c88461302b565b825292850192908501906133b7565b8096505050505050509250925092565b6020815260006113cf60208301846130a6565b6000806040838503121561340d57600080fd5b50508035926020909101359150565b60208082528251151582820152828101516060604084015280516080840181905260009291820190839060a08601905b808310156134755783516001600160a01b0316825292840192600192909201919084019061344c565b50604087015160608701528094505050505092915050565b600080600080600080608087890312156134a657600080fd5b6134af8761302b565b9550602087013567ffffffffffffffff808211156134cc57600080fd5b6134d88a838b016131ec565b90975095506040890135945060608901359150808211156134f857600080fd5b5061350589828a016131ec565b979a9699509497509295939492505050565b60608152600061352a60608301866130a6565b828103602084015261353c81866130a6565b9050828103604084015261355081856130a6565b9695505050505050565b600060208083526080830160018060a01b03855116828501528185015115156040850152604085015160608086015281815180845260a08701915060a08160051b8801019350848301925060005b8181101561312757609f198886030183526135c48585516130a6565b945092850192918501916001016135a8565b600082601f8301126135e757600080fd5b813567ffffffffffffffff811115613601576136016132ca565b613614601f8201601f19166020016132e0565b81815284602083860101111561362957600080fd5b816020850160208301376000918101602001919091529392505050565b6000806000806080858703121561365c57600080fd5b6136658561302b565b9350602085013567ffffffffffffffff8082111561368257600080fd5b61368e888389016135d6565b945060408701359150808211156136a457600080fd5b6136b0888389016135d6565b935060608701359150808211156136c657600080fd5b506136d3878288016135d6565b91505092959194509250565b60208082526023908201527f43616c6c6572206973206e6f742061207265676973746572656420696e6765736040820152623a32b960e91b606082015260800190565b634e487b7160e01b600052603260045260246000fd5b600181811c9082168061374c57607f821691505b60208210810361376c57634e487b7160e01b600052602260045260246000fd5b50919050565b634e487b7160e01b600052601160045260246000fd5b60008161379757613797613772565b506000190190565b6bffffffffffffffffffffffff198560601b16815282846014830137601492019182015260340192915050565b60208082526023908201527f4f6e6c792061646d696e2063616e20706572666f726d2074686973206163746960408201526237b71760e91b606082015260800190565b8183823760009101908152919050565b60208152816020820152818360408301376000818301604090810191909152601f909201601f19160101919050565b60008282101561386057613860613772565b500390565b634e487b7160e01b600052603160045260246000fd5b6000825161388d81846020870161307a565b9190910192915050565b6000600182016138a9576138a9613772565b5060010190565b600082198211156138c3576138c3613772565b500190565b6000826138e557634e487b7160e01b600052601260045260246000fd5b500490565b7f416363657373436f6e74726f6c3a206163636f756e742000000000000000000081526000835161392281601785016020880161307a565b7001034b99036b4b9b9b4b733903937b6329607d1b601791840191820152835161395381602884016020880161307a565b01602801949350505050565b634e487b7160e01b600052602160045260246000fd5b600081600019048311821515161561398f5761398f613772565b50029056fe5e4113f64ef62a4dcf877571d6adf627b68af233a523753b8dcf1d3fb18974eda2646970667358221220f05afa48d893b0d1efb7f2338124aab67b8804ad741edf25559f935fc72008b164736f6c634300080e0033",
  "linkReferences": {},
  "deployedLinkReferences": {}
}