{
  "_format": "hh-sol-artifact-1",
  "contractName": "IngesterProxy",
  "sourceName": "contracts/IngesterOrchestratorProxy/IngesterProxy.sol",
  "abi": [
    {
      "inputs": [
        {
          "internalType": "address",
          "name": "_groupManagerContractAddress",
          "type": "address"
        },
        {
          "internalType": "address",
          "name": "_registrationContractAddress",
          "type": "address"
        },
        {
          "internalType": "address",
          "name": "_dataGatheringContractAddress",
          "type": "address"
        }
      ],
      "stateMutability": "nonpayable",
      "type": "constructor"
    },
    {
      "anonymous": false,
      "inputs": [
        {
          "indexed": true,
          "internalType": "address",
          "name": "previousAdmin",
          "type": "address"
        },
        {
          "indexed": true,
          "internalType": "address",
          "name": "newAdmin",
          "type": "address"
        }
      ],
      "name": "AdminChanged",
      "type": "event"
    },
    {
      "anonymous": false,
      "inputs": [
        {
          "indexed": false,
          "internalType": "address",
          "name": "newGroupManagerContractAddress",
          "type": "address"
        }
      ],
      "name": "DataGatheringContractAddressUpdated",
      "type": "event"
    },
    {
      "anonymous": false,
      "inputs": [
        {
          "indexed": false,
          "internalType": "address",
          "name": "newGroupManagerContractAddress",
          "type": "address"
        }
      ],
      "name": "GroupManagerContractAddressUpdated",
      "type": "event"
    },
    {
      "anonymous": false,
      "inputs": [
        {
          "indexed": true,
          "internalType": "address",
          "name": "previousOwner",
          "type": "address"
        },
        {
          "indexed": true,
          "internalType": "address",
          "name": "newOwner",
          "type": "address"
        }
      ],
      "name": "OwnershipTransferred",
      "type": "event"
    },
    {
      "anonymous": false,
      "inputs": [
        {
          "indexed": false,
          "internalType": "address",
          "name": "newGroupManagerContractAddress",
          "type": "address"
        }
      ],
      "name": "RegistrationContractAddressUpdated",
      "type": "event"
    },
    {
      "anonymous": false,
      "inputs": [
        {
          "indexed": true,
          "internalType": "bytes32",
          "name": "role",
          "type": "bytes32"
        },
        {
          "indexed": true,
          "internalType": "bytes32",
          "name": "previousAdminRole",
          "type": "bytes32"
        },
        {
          "indexed": true,
          "internalType": "bytes32",
          "name": "newAdminRole",
          "type": "bytes32"
        }
      ],
      "name": "RoleAdminChanged",
      "type": "event"
    },
    {
      "anonymous": false,
      "inputs": [
        {
          "indexed": true,
          "internalType": "bytes32",
          "name": "role",
          "type": "bytes32"
        },
        {
          "indexed": true,
          "internalType": "address",
          "name": "account",
          "type": "address"
        },
        {
          "indexed": true,
          "internalType": "address",
          "name": "sender",
          "type": "address"
        }
      ],
      "name": "RoleGranted",
      "type": "event"
    },
    {
      "anonymous": false,
      "inputs": [
        {
          "indexed": true,
          "internalType": "bytes32",
          "name": "role",
          "type": "bytes32"
        },
        {
          "indexed": true,
          "internalType": "address",
          "name": "account",
          "type": "address"
        },
        {
          "indexed": true,
          "internalType": "address",
          "name": "sender",
          "type": "address"
        }
      ],
      "name": "RoleRevoked",
      "type": "event"
    },
    {
      "inputs": [],
      "name": "DEFAULT_ADMIN_ROLE",
      "outputs": [
        {
          "internalType": "bytes32",
          "name": "",
          "type": "bytes32"
        }
      ],
      "stateMutability": "view",
      "type": "function"
    },
    {
      "inputs": [],
      "name": "_dataGatheringContract",
      "outputs": [
        {
          "internalType": "contract IngesterDataGathering",
          "name": "",
          "type": "address"
        }
      ],
      "stateMutability": "view",
      "type": "function"
    },
    {
      "inputs": [
        {
          "internalType": "string",
          "name": "groupUsername",
          "type": "string"
        }
      ],
      "name": "addGroup",
      "outputs": [],
      "stateMutability": "nonpayable",
      "type": "function"
    },
    {
      "inputs": [
        {
          "internalType": "address",
          "name": "ingesterAddress",
          "type": "address"
        },
        {
          "internalType": "address",
          "name": "controllerAddress",
          "type": "address"
        }
      ],
      "name": "addIngesterToCluster",
      "outputs": [
        {
          "internalType": "uint256",
          "name": "",
          "type": "uint256"
        }
      ],
      "stateMutability": "nonpayable",
      "type": "function"
    },
    {
      "inputs": [
        {
          "internalType": "string",
          "name": "usersHash",
          "type": "string"
        },
        {
          "internalType": "string",
          "name": "chatsHash",
          "type": "string"
        },
        {
          "internalType": "string",
          "name": "messagesHash",
          "type": "string"
        }
      ],
      "name": "addIpfsHash",
      "outputs": [],
      "stateMutability": "nonpayable",
      "type": "function"
    },
    {
      "inputs": [],
      "name": "dataGatheringContractAddress",
      "outputs": [
        {
          "internalType": "address",
          "name": "",
          "type": "address"
        }
      ],
      "stateMutability": "view",
      "type": "function"
    },
    {
      "inputs": [
        {
          "internalType": "string[]",
          "name": "groups",
          "type": "string[]"
        },
        {
          "internalType": "uint256",
          "name": "clusterId",
          "type": "uint256"
        }
      ],
      "name": "distributeGroupPostUnregistration",
      "outputs": [],
      "stateMutability": "nonpayable",
      "type": "function"
    },
    {
      "inputs": [
        {
          "internalType": "address",
          "name": "ingesterAddress",
          "type": "address"
        }
      ],
      "name": "distributeGroups",
      "outputs": [],
      "stateMutability": "nonpayable",
      "type": "function"
    },
    {
      "inputs": [
        {
          "internalType": "uint256",
          "name": "clusterId",
          "type": "uint256"
        }
      ],
      "name": "getCluster",
      "outputs": [
        {
          "components": [
            {
              "internalType": "address[]",
              "name": "ingesterAddresses",
              "type": "address[]"
            },
            {
              "internalType": "uint256",
              "name": "clusterGroupCount",
              "type": "uint256"
            },
            {
              "internalType": "uint256",
              "name": "clusterRemainingCapacity",
              "type": "uint256"
            }
          ],
          "internalType": "struct IIngesterGroupManager.ClusterSlim",
          "name": "",
          "type": "tuple"
        }
      ],
      "stateMutability": "view",
      "type": "function"
    },
    {
      "inputs": [],
      "name": "getClusters",
      "outputs": [
        {
          "internalType": "uint256[]",
          "name": "",
          "type": "uint256[]"
        }
      ],
      "stateMutability": "view",
      "type": "function"
    },
    {
      "inputs": [
        {
          "internalType": "address",
          "name": "controllerAddress",
          "type": "address"
        }
      ],
      "name": "getControllerIngesters",
      "outputs": [
        {
          "components": [
            {
              "internalType": "address",
              "name": "ingesterAddress",
              "type": "address"
            },
            {
              "internalType": "bool",
              "name": "verified",
              "type": "bool"
            },
            {
              "internalType": "uint256",
              "name": "clusterId",
              "type": "uint256"
            }
          ],
          "internalType": "struct IIngesterRegistration.Ingester[]",
          "name": "",
          "type": "tuple[]"
        }
      ],
      "stateMutability": "view",
      "type": "function"
    },
    {
      "inputs": [
        {
          "internalType": "string",
          "name": "group",
          "type": "string"
        }
      ],
      "name": "getGroup",
      "outputs": [
        {
          "components": [
            {
              "internalType": "bool",
              "name": "isAdded",
              "type": "bool"
            },
            {
              "internalType": "uint256",
              "name": "clusterId",
              "type": "uint256"
            },
            {
              "internalType": "address[]",
              "name": "ingesterAddresses",
              "type": "address[]"
            },
            {
              "internalType": "uint256",
              "name": "groupUsernameIndex",
              "type": "uint256"
            }
          ],
          "internalType": "struct IIngesterGroupManager.GroupSlim",
          "name": "",
          "type": "tuple"
        }
      ],
      "stateMutability": "view",
      "type": "function"
    },
    {
      "inputs": [],
      "name": "getGroupCount",
      "outputs": [
        {
          "internalType": "uint256",
          "name": "",
          "type": "uint256"
        }
      ],
      "stateMutability": "view",
      "type": "function"
    },
    {
      "inputs": [
        {
          "internalType": "uint256",
          "name": "groupIndex",
          "type": "uint256"
        }
      ],
      "name": "getGroupUsernameByIndex",
      "outputs": [
        {
          "internalType": "string",
          "name": "",
          "type": "string"
        }
      ],
      "stateMutability": "view",
      "type": "function"
    },
    {
      "inputs": [
        {
          "internalType": "address",
          "name": "ingesterAddress",
          "type": "address"
        }
      ],
      "name": "getIngester",
      "outputs": [
        {
          "components": [
            {
              "internalType": "address",
              "name": "ingesterAddress",
              "type": "address"
            },
            {
              "internalType": "bool",
              "name": "verified",
              "type": "bool"
            },
            {
              "internalType": "uint256",
              "name": "clusterId",
              "type": "uint256"
            }
          ],
          "internalType": "struct IIngesterRegistration.Ingester",
          "name": "",
          "type": "tuple"
        }
      ],
      "stateMutability": "view",
      "type": "function"
    },
    {
      "inputs": [
        {
          "internalType": "uint256",
          "name": "index",
          "type": "uint256"
        }
      ],
      "name": "getIngesterAddressFromIndex",
      "outputs": [
        {
          "internalType": "address",
          "name": "",
          "type": "address"
        }
      ],
      "stateMutability": "view",
      "type": "function"
    },
    {
      "inputs": [
        {
          "internalType": "address",
          "name": "ingesterAddress",
          "type": "address"
        },
        {
          "internalType": "uint256",
          "name": "clusterId",
          "type": "uint256"
        }
      ],
      "name": "getIngesterAssignedGroups",
      "outputs": [
        {
          "internalType": "string[]",
          "name": "",
          "type": "string[]"
        }
      ],
      "stateMutability": "view",
      "type": "function"
    },
    {
      "inputs": [],
      "name": "getIngesterCount",
      "outputs": [
        {
          "internalType": "uint256",
          "name": "",
          "type": "uint256"
        }
      ],
      "stateMutability": "view",
      "type": "function"
    },
    {
      "inputs": [
        {
          "internalType": "address",
          "name": "ingesterAddress",
          "type": "address"
        }
      ],
      "name": "getIngesterToController",
      "outputs": [
        {
          "components": [
            {
              "internalType": "address",
              "name": "controllerAddress",
              "type": "address"
            },
            {
              "internalType": "uint256",
              "name": "ingesterIndex",
              "type": "uint256"
            },
            {
              "internalType": "uint256",
              "name": "ingesterAddressesIndex",
              "type": "uint256"
            }
          ],
          "internalType": "struct IIngesterRegistration.IngesterToController",
          "name": "",
          "type": "tuple"
        }
      ],
      "stateMutability": "view",
      "type": "function"
    },
    {
      "inputs": [
        {
          "internalType": "address",
          "name": "ingesterAddress",
          "type": "address"
        }
      ],
      "name": "getIngesterWithGroups",
      "outputs": [
        {
          "components": [
            {
              "internalType": "address",
              "name": "ingesterAddress",
              "type": "address"
            },
            {
              "internalType": "bool",
              "name": "verified",
              "type": "bool"
            },
            {
              "internalType": "uint256",
              "name": "clusterId",
              "type": "uint256"
            },
            {
              "internalType": "string[]",
              "name": "assignedGroups",
              "type": "string[]"
            }
          ],
          "internalType": "struct IIngesterRegistration.IngesterWithGroups",
          "name": "",
          "type": "tuple"
        }
      ],
      "stateMutability": "view",
      "type": "function"
    },
    {
      "inputs": [
        {
          "internalType": "address",
          "name": "ingesterAddress",
          "type": "address"
        }
      ],
      "name": "getIpfsHashes",
      "outputs": [
        {
          "components": [
            {
              "internalType": "string",
              "name": "usersIpfsHash",
              "type": "string"
            },
            {
              "internalType": "string",
              "name": "chatsIpfsHash",
              "type": "string"
            },
            {
              "internalType": "string",
              "name": "messagesIpfsHash",
              "type": "string"
            }
          ],
          "internalType": "struct IIngesterDataGathering.IpfsHash",
          "name": "",
          "type": "tuple"
        }
      ],
      "stateMutability": "view",
      "type": "function"
    },
    {
      "inputs": [],
      "name": "getMaxClusterSize",
      "outputs": [
        {
          "internalType": "uint256",
          "name": "",
          "type": "uint256"
        }
      ],
      "stateMutability": "view",
      "type": "function"
    },
    {
      "inputs": [],
      "name": "getMaxGroupsPerIngester",
      "outputs": [
        {
          "internalType": "uint256",
          "name": "",
          "type": "uint256"
        }
      ],
      "stateMutability": "view",
      "type": "function"
    },
    {
      "inputs": [],
      "name": "getMaxNumberIngesterPerGroup",
      "outputs": [
        {
          "internalType": "uint256",
          "name": "",
          "type": "uint256"
        }
      ],
      "stateMutability": "view",
      "type": "function"
    },
    {
      "inputs": [
        {
          "internalType": "bytes32",
          "name": "role",
          "type": "bytes32"
        }
      ],
      "name": "getRoleAdmin",
      "outputs": [
        {
          "internalType": "bytes32",
          "name": "",
          "type": "bytes32"
        }
      ],
      "stateMutability": "view",
      "type": "function"
    },
    {
      "inputs": [
        {
          "internalType": "bytes32",
          "name": "role",
          "type": "bytes32"
        },
        {
          "internalType": "uint256",
          "name": "index",
          "type": "uint256"
        }
      ],
      "name": "getRoleMember",
      "outputs": [
        {
          "internalType": "address",
          "name": "",
          "type": "address"
        }
      ],
      "stateMutability": "view",
      "type": "function"
    },
    {
      "inputs": [
        {
          "internalType": "bytes32",
          "name": "role",
          "type": "bytes32"
        }
      ],
      "name": "getRoleMemberCount",
      "outputs": [
        {
          "internalType": "uint256",
          "name": "",
          "type": "uint256"
        }
      ],
      "stateMutability": "view",
      "type": "function"
    },
    {
      "inputs": [],
      "name": "getUnallocatedGroups",
      "outputs": [
        {
          "internalType": "string[]",
          "name": "",
          "type": "string[]"
        }
      ],
      "stateMutability": "view",
      "type": "function"
    },
    {
      "inputs": [
        {
          "internalType": "bytes32",
          "name": "role",
          "type": "bytes32"
        },
        {
          "internalType": "address",
          "name": "account",
          "type": "address"
        }
      ],
      "name": "grantRole",
      "outputs": [],
      "stateMutability": "nonpayable",
      "type": "function"
    },
    {
      "inputs": [],
      "name": "groupManagerContractAddress",
      "outputs": [
        {
          "internalType": "address",
          "name": "",
          "type": "address"
        }
      ],
      "stateMutability": "view",
      "type": "function"
    },
    {
      "inputs": [
        {
          "internalType": "bytes32",
          "name": "role",
          "type": "bytes32"
        },
        {
          "internalType": "address",
          "name": "account",
          "type": "address"
        }
      ],
      "name": "hasRole",
      "outputs": [
        {
          "internalType": "bool",
          "name": "",
          "type": "bool"
        }
      ],
      "stateMutability": "view",
      "type": "function"
    },
    {
      "inputs": [
        {
          "internalType": "address",
          "name": "_address",
          "type": "address"
        },
        {
          "internalType": "string",
          "name": "_value",
          "type": "string"
        },
        {
          "internalType": "uint256",
          "name": "_nonce",
          "type": "uint256"
        }
      ],
      "name": "hash",
      "outputs": [
        {
          "internalType": "bytes32",
          "name": "",
          "type": "bytes32"
        }
      ],
      "stateMutability": "view",
      "type": "function"
    },
    {
      "inputs": [
        {
          "internalType": "address",
          "name": "controllerAddress",
          "type": "address"
        }
      ],
      "name": "isRegisteredController",
      "outputs": [
        {
          "internalType": "bool",
          "name": "",
          "type": "bool"
        }
      ],
      "stateMutability": "view",
      "type": "function"
    },
    {
      "inputs": [
        {
          "internalType": "address",
          "name": "ingesterAddress",
          "type": "address"
        }
      ],
      "name": "isRegisteredIngester",
      "outputs": [
        {
          "internalType": "bool",
          "name": "",
          "type": "bool"
        }
      ],
      "stateMutability": "view",
      "type": "function"
    },
    {
      "inputs": [],
      "name": "owner",
      "outputs": [
        {
          "internalType": "address",
          "name": "",
          "type": "address"
        }
      ],
      "stateMutability": "view",
      "type": "function"
    },
    {
      "inputs": [
        {
          "internalType": "address",
          "name": "ingesterAddress",
          "type": "address"
        },
        {
          "internalType": "string",
          "name": "message",
          "type": "string"
        },
        {
          "internalType": "uint256",
          "name": "nonce",
          "type": "uint256"
        },
        {
          "internalType": "bytes",
          "name": "sig",
          "type": "bytes"
        }
      ],
      "name": "registerIngester",
      "outputs": [],
      "stateMutability": "nonpayable",
      "type": "function"
    },
    {
      "inputs": [],
      "name": "registrationContractAddress",
      "outputs": [
        {
          "internalType": "address",
          "name": "",
          "type": "address"
        }
      ],
      "stateMutability": "view",
      "type": "function"
    },
    {
      "inputs": [
        {
          "internalType": "string",
          "name": "groupUsername",
          "type": "string"
        }
      ],
      "name": "removeGroup",
      "outputs": [],
      "stateMutability": "nonpayable",
      "type": "function"
    },
    {
      "inputs": [
        {
          "internalType": "address",
          "name": "ingesterAddress",
          "type": "address"
        },
        {
          "internalType": "uint256",
          "name": "clusterId",
          "type": "uint256"
        }
      ],
      "name": "removeIngesterFromCluster",
      "outputs": [],
      "stateMutability": "nonpayable",
      "type": "function"
    },
    {
      "inputs": [
        {
          "internalType": "uint256",
          "name": "clusterId",
          "type": "uint256"
        },
        {
          "internalType": "address",
          "name": "ingesterAddress",
          "type": "address"
        }
      ],
      "name": "removeIngesterFromGroups",
      "outputs": [],
      "stateMutability": "nonpayable",
      "type": "function"
    },
    {
      "inputs": [],
      "name": "renounceOwnership",
      "outputs": [],
      "stateMutability": "nonpayable",
      "type": "function"
    },
    {
      "inputs": [
        {
          "internalType": "bytes32",
          "name": "role",
          "type": "bytes32"
        },
        {
          "internalType": "address",
          "name": "account",
          "type": "address"
        }
      ],
      "name": "renounceRole",
      "outputs": [],
      "stateMutability": "nonpayable",
      "type": "function"
    },
    {
      "inputs": [
        {
          "internalType": "bytes32",
          "name": "role",
          "type": "bytes32"
        },
        {
          "internalType": "address",
          "name": "account",
          "type": "address"
        }
      ],
      "name": "revokeRole",
      "outputs": [],
      "stateMutability": "nonpayable",
      "type": "function"
    },
    {
      "inputs": [
        {
          "internalType": "uint256",
          "name": "maxClusterSize",
          "type": "uint256"
        }
      ],
      "name": "setMaxClusterSize",
      "outputs": [],
      "stateMutability": "nonpayable",
      "type": "function"
    },
    {
      "inputs": [
        {
          "internalType": "uint256",
          "name": "maxGroupsPerIngester",
          "type": "uint256"
        }
      ],
      "name": "setMaxGroupsPerIngester",
      "outputs": [],
      "stateMutability": "nonpayable",
      "type": "function"
    },
    {
      "inputs": [
        {
          "internalType": "uint256",
          "name": "maxNumberIngesterPerGroup",
          "type": "uint256"
        }
      ],
      "name": "setMaxNumberIngesterPerGroup",
      "outputs": [],
      "stateMutability": "nonpayable",
      "type": "function"
    },
    {
      "inputs": [
        {
          "internalType": "bytes4",
          "name": "interfaceId",
          "type": "bytes4"
        }
      ],
      "name": "supportsInterface",
      "outputs": [
        {
          "internalType": "bool",
          "name": "",
          "type": "bool"
        }
      ],
      "stateMutability": "view",
      "type": "function"
    },
    {
      "inputs": [
        {
          "internalType": "address",
          "name": "newOwner",
          "type": "address"
        }
      ],
      "name": "transferOwnership",
      "outputs": [],
      "stateMutability": "nonpayable",
      "type": "function"
    },
    {
      "inputs": [
        {
          "internalType": "address",
          "name": "ingesterAddress",
          "type": "address"
        }
      ],
      "name": "unRegisterIngester",
      "outputs": [],
      "stateMutability": "nonpayable",
      "type": "function"
    },
    {
      "inputs": [
        {
          "internalType": "address",
          "name": "newDataGatheringContractAddress",
          "type": "address"
        }
      ],
      "name": "updateDataGatheringContract",
      "outputs": [],
      "stateMutability": "nonpayable",
      "type": "function"
    },
    {
      "inputs": [
        {
          "internalType": "address",
          "name": "newGroupManagerContractAddress",
          "type": "address"
        }
      ],
      "name": "updateGroupManagerContract",
      "outputs": [],
      "stateMutability": "nonpayable",
      "type": "function"
    },
    {
      "inputs": [
        {
          "internalType": "address",
          "name": "newRegistrationContractAddress",
          "type": "address"
        }
      ],
      "name": "updateRegistrationContract",
      "outputs": [],
      "stateMutability": "nonpayable",
      "type": "function"
    }
  ],
  "bytecode": "0x60806040523480156200001157600080fd5b506040516200370138038062003701833981016040819052620000349162000408565b6200003f3362000234565b6001600160a01b038316620000c15760405162461bcd60e51b815260206004820152603d60248201527f47726f75704d616e61676572436f6e7472616374416464726573733a2050726f60448201527f787920616464726573732073686f756c64206e6f74206265207a65726f00000060648201526084015b60405180910390fd5b6001600160a01b0382166200013f5760405162461bcd60e51b815260206004820152603d60248201527f526567697374726174696f6e436f6e7472616374416464726573733a2050726f60448201527f787920616464726573732073686f756c64206e6f74206265207a65726f0000006064820152608401620000b8565b6001600160a01b038116620001bd5760405162461bcd60e51b815260206004820152603e60248201527f44617461476174686572696e67436f6e7472616374416464726573733a20507260448201527f6f787920616464726573732073686f756c64206e6f74206265207a65726f00006064820152608401620000b8565b600380546001600160a01b038086166001600160a01b0319928316811790935560048054868316908416811790915560058054928616928416831790556006805484169094179093556007805483169093179092556008805490911690911790556200022b60003362000286565b50505062000452565b600280546001600160a01b038381166001600160a01b0319831681179093556040519116919082907f8be0079c531659141344cd1fd0a4f28419497f9722a3daafe3b4186f6b6457e090600090a35050565b62000292828262000296565b5050565b620002ad8282620002d960201b62001ac61760201c565b6000828152600160209081526040909120620002d491839062001b4a62000379821b17901c565b505050565b6000828152602081815260408083206001600160a01b038516845290915290205460ff1662000292576000828152602081815260408083206001600160a01b03851684529091529020805460ff19166001179055620003353390565b6001600160a01b0316816001600160a01b0316837f2f8788117e7eff1d82e926ec794901d17c78024a50270940304540a733656f0d60405160405180910390a45050565b600062000390836001600160a01b03841662000399565b90505b92915050565b6000818152600183016020526040812054620003e25750815460018181018455600084815260208082209093018490558454848252828601909352604090209190915562000393565b50600062000393565b80516001600160a01b03811681146200040357600080fd5b919050565b6000806000606084860312156200041e57600080fd5b6200042984620003eb565b92506200043960208501620003eb565b91506200044960408501620003eb565b90509250925092565b61329f80620004626000396000f3fe608060405234801561001057600080fd5b506004361061030c5760003560e01c80639010d07c1161019d578063c4df5007116100e9578063d547741f116100a2578063f1843e151161007c578063f1843e151461072d578063f2fde38b14610740578063f497c1f714610753578063f8e9bd441461076657600080fd5b8063d547741f146106f4578063dd1daf8214610707578063dfc2ba581461071a57600080fd5b8063c4df500714610680578063c6039a75146106a0578063c9926a9e146106b3578063ca15c873146106bb578063d39e5743146106ce578063d4f52aaf146106e157600080fd5b8063a3001ec711610156578063b3d1dba611610130578063b3d1dba614610632578063be43fb6c14610645578063bf00eaef14610665578063c032ffb41461067857600080fd5b8063a3001ec7146105ec578063abef281e146105ff578063b0d13e311461061f57600080fd5b80639010d07c1461057857806391d148541461058b578063978abee01461059e57806398426dfa146105be5780639bdd2acb146105d1578063a217fddf146105e457600080fd5b80635e91a74a1161025c5780637ada268111610215578063812e53d2116101ef578063812e53d21461050357806384328c62146105165780638cdcb3e6146105545780638da5cb5b1461056757600080fd5b80637ada2681146104d55780637bad6d1c146104e85780637c517e68146104f057600080fd5b80635e91a74a146104495780636246b3101461045c5780636579ba491461046f5780636d40111f14610482578063704c707d146104ad578063715018a6146104cd57600080fd5b80631a5d7f3e116102c9578063248a9ca3116102a3578063248a9ca3146103f85780632f2ff15d1461041b57806336568abe1461042e578063594920901461044157600080fd5b80631a5d7f3e146103a35780631ba62fbf146103c357806321e0a96a146103d857600080fd5b80630179240c1461031157806301ffc9a71461033a578063033c7a211461035d578063046496871461037e57806306545a931461038657806316f1d42a1461038e575b600080fd5b61032461031f366004612106565b610779565b6040516103319190612163565b60405180910390f35b61034d61034836600461219f565b610813565b6040519015158152602001610331565b61037061036b366004612226565b610838565b604051908152602001610331565b6103706108b9565b61037061092c565b610396610976565b6040516103319190612281565b6103b66103b13660046122c5565b6109e8565b604051610331919061233e565b6103d66103d13660046122c5565b610a7e565b005b6103eb6103e6366004612106565b610b8b565b6040516103319190612396565b610370610406366004612106565b60009081526020819052604090206001015490565b6103d66104293660046123a9565b610bfd565b6103d661043c3660046123a9565b610c27565b610370610ca5565b61034d6104573660046122c5565b610cef565b6103d661046a3660046123d9565b610d5f565b61037061047d36600461241a565b610dee565b600454610495906001600160a01b031681565b6040516001600160a01b039091168152602001610331565b6104c06104bb366004612448565b610e9a565b60405161033191906124c9565b6103d6610f14565b6103d66104e3366004612106565b610f28565b610370610fb1565b6103d66104fe3660046122c5565b610ffb565b6103d66105113660046124dc565b611058565b6105296105243660046122c5565b61112f565b6040805182516001600160a01b03168152602080840151908201529181015190820152606001610331565b61034d6105623660046122c5565b6111ca565b6002546001600160a01b0316610495565b610495610586366004612575565b6111fd565b61034d6105993660046123a9565b611215565b6105b16105ac3660046122c5565b61123e565b6040516103319190612597565b6103d66105cc366004612448565b6112d3565b6103d66105df366004612106565b611336565b610370600081565b6103d66105fa3660046122c5565b61138e565b61061261060d3660046123d9565b61148b565b60405161033191906125e2565b6103d661062d3660046122c5565b61152f565b6103d661064036600461262a565b611586565b6106586106533660046122c5565b6115c2565b6040516103319190612696565b6103d66106733660046123d9565b611635565b61037061168e565b61069361068e3660046122c5565b6116d8565b60405161033191906126f7565b6103d66106ae3660046122c5565b611763565b6104c0611860565b6103706106c9366004612106565b6118d2565b600854610495906001600160a01b031681565b600554610495906001600160a01b031681565b6103d66107023660046123a9565b6118e9565b610495610715366004612106565b61190e565b6103d66107283660046123a9565b61197c565b600354610495906001600160a01b031681565b6103d661074e3660046122c5565b6119df565b6103d6610761366004612106565b611a12565b6103d66107743660046127fd565b611a6a565b61079d60405180606001604052806060815260200160008152602001600081525090565b600654604051625e490360e21b8152600481018490526001600160a01b0390911690630179240c90602401600060405180830381865afa1580156107e5573d6000803e3d6000fd5b505050506040513d6000823e601f3d908101601f1916820160405261080d9190810190612965565b92915050565b60006001600160e01b03198216635a05180f60e01b148061080d575061080d82611b5f565b60075460405163033c7a2160e01b81526000916001600160a01b03169063033c7a219061086f908890889088908890600401612a11565b602060405180830381865afa15801561088c573d6000803e3d6000fd5b505050506040513d601f19601f820116820180604052508101906108b09190612a47565b95945050505050565b60065460408051630464968760e01b815290516000926001600160a01b03169163046496879160048083019260209291908290030181865afa158015610903573d6000803e3d6000fd5b505050506040513d601f19601f820116820180604052508101906109279190612a47565b905090565b600654604080516306545a9360e01b815290516000926001600160a01b0316916306545a939160048083019260209291908290030181865afa158015610903573d6000803e3d6000fd5b60065460408051630b78ea1560e11b815290516060926001600160a01b0316916316f1d42a9160048083019260009291908290030181865afa1580156109c0573d6000803e3d6000fd5b505050506040513d6000823e601f3d908101601f191682016040526109279190810190612a60565b610a0c60405180606001604052806060815260200160608152602001606081525090565b600854604051630d2ebf9f60e11b81526001600160a01b03848116600483015290911690631a5d7f3e90602401600060405180830381865afa158015610a56573d6000803e3d6000fd5b505050506040513d6000823e601f3d908101601f1916820160405261080d9190810190612b35565b610a89600033611215565b610aae5760405162461bcd60e51b8152600401610aa590612be9565b60405180910390fd5b6001600160a01b038116610b2a5760405162461bcd60e51b815260206004820152603c60248201527f4e65772067726f7570206d616e6167657220636f6e747261637420616464726560448201527f73732063616e6e6f742062652061207a65726f20616464726573732e000000006064820152608401610aa5565b600380546001600160a01b0383166001600160a01b0319918216811790925560068054909116821790556040519081527fa5610d06326d743ceb3a75b79daea73bec2feda881b69732ef0c9721e3cf2cbf906020015b60405180910390a150565b6006546040516310f054b560e11b8152600481018390526060916001600160a01b0316906321e0a96a90602401600060405180830381865afa158015610bd5573d6000803e3d6000fd5b505050506040513d6000823e601f3d908101601f1916820160405261080d9190810190612c2c565b600082815260208190526040902060010154610c1881611b94565b610c228383611b9e565b505050565b6001600160a01b0381163314610c975760405162461bcd60e51b815260206004820152602f60248201527f416363657373436f6e74726f6c3a2063616e206f6e6c792072656e6f756e636560448201526e103937b632b9903337b91039b2b63360891b6064820152608401610aa5565b610ca18282611bc0565b5050565b60075460408051630594920960e41b815290516000926001600160a01b03169163594920909160048083019260209291908290030181865afa158015610903573d6000803e3d6000fd5b600754604051632f48d3a560e11b81526001600160a01b0383811660048301526000921690635e91a74a906024015b602060405180830381865afa158015610d3b573d6000803e3d6000fd5b505050506040513d601f19601f8201168201806040525081019061080d9190612c75565b610d6a600033611215565b610d865760405162461bcd60e51b8152600401610aa590612be9565b6006546040516306246b3160e41b81526001600160a01b0390911690636246b31090610db89085908590600401612c90565b600060405180830381600087803b158015610dd257600080fd5b505af1158015610de6573d6000803e3d6000fd5b505050505050565b6004546000906001600160a01b03163314610e1b5760405162461bcd60e51b8152600401610aa590612ca4565b600654604051636579ba4960e01b81526001600160a01b038581166004830152848116602483015290911690636579ba49906044016020604051808303816000875af1158015610e6f573d6000803e3d6000fd5b505050506040513d601f19601f82011682018060405250810190610e939190612a47565b9392505050565b60065460405163704c707d60e01b81526001600160a01b03848116600483015260248201849052606092169063704c707d90604401600060405180830381865afa158015610eec573d6000803e3d6000fd5b505050506040513d6000823e601f3d908101601f19168201604052610e939190810190612d66565b610f1c611be2565b610f266000611c3c565b565b610f33600033611215565b610f4f5760405162461bcd60e51b8152600401610aa590612be9565b600654604051637ada268160e01b8152600481018390526001600160a01b0390911690637ada2681906024015b600060405180830381600087803b158015610f9657600080fd5b505af1158015610faa573d6000803e3d6000fd5b5050505050565b60065460408051631eeb5b4760e21b815290516000926001600160a01b031691637bad6d1c9160048083019260209291908290030181865afa158015610903573d6000803e3d6000fd5b611004336111ca565b6110205760405162461bcd60e51b8152600401610aa590612d9a565b60075460405163771bf01560e01b81526001600160a01b0383811660048301523360248301529091169063771bf01590604401610f7c565b61106133610cef565b6110b95760405162461bcd60e51b815260206004820152602360248201527f43616c6c6572206973206e6f742061207265676973746572656420696e6765736044820152623a32b960e91b6064820152608401610aa5565b60085460405163660282a360e11b81526001600160a01b039091169063cc050546906110f59033908a908a908a908a908a908a90600401612ddf565b600060405180830381600087803b15801561110f57600080fd5b505af1158015611123573d6000803e3d6000fd5b50505050505050505050565b61115c604051806060016040528060006001600160a01b0316815260200160008152602001600081525090565b600754604051634219463160e11b81526001600160a01b038481166004830152909116906384328c6290602401606060405180830381865afa1580156111a6573d6000803e3d6000fd5b505050506040513d601f19601f8201168201806040525081019061080d9190612e3a565b60075460405163466e59f360e11b81526001600160a01b0383811660048301526000921690638cdcb3e690602401610d1e565b6000828152600160205260408120610e939083611c8e565b6000918252602082815260408084206001600160a01b0393909316845291905290205460ff1690565b60408051608081018252600080825260208201819052918101919091526060808201526007546040516304bc55f760e51b81526001600160a01b0384811660048301529091169063978abee090602401600060405180830381865afa1580156112ab573d6000803e3d6000fd5b505050506040513d6000823e601f3d908101601f1916820160405261080d9190810190612e9b565b6004546001600160a01b031633146112fd5760405162461bcd60e51b8152600401610aa590612ca4565b600654604051634c2136fd60e11b81526001600160a01b03848116600483015260248201849052909116906398426dfa90604401610db8565b611341600033611215565b61135d5760405162461bcd60e51b8152600401610aa590612be9565b600654604051639bdd2acb60e01b8152600481018390526001600160a01b0390911690639bdd2acb90602401610f7c565b611399600033611215565b6113b55760405162461bcd60e51b8152600401610aa590612be9565b6001600160a01b0381166114315760405162461bcd60e51b815260206004820152603b60248201527f4e657720726567697374726174696f6e20636f6e74726163742061646472657360448201527f732063616e6e6f742062652061207a65726f20616464726573732e00000000006064820152608401610aa5565b600480546001600160a01b0383166001600160a01b0319918216811790925560078054909116821790556040519081527fbe85ca02bab625eb311210550cd082757ccc725d2ca028457ab0c336336f3f9d90602001610b80565b6114b860405180608001604052806000151581526020016000815260200160608152602001600081525090565b6006546040516355f7940f60e11b81526001600160a01b039091169063abef281e906114ea9086908690600401612c90565b600060405180830381865afa158015611507573d6000803e3d6000fd5b505050506040513d6000823e601f3d908101601f19168201604052610e939190810190612f35565b611538336111ca565b6115545760405162461bcd60e51b8152600401610aa590612d9a565b60065460405163b0d13e3160e01b81526001600160a01b0383811660048301529091169063b0d13e3190602401610f7c565b6007546040516365ef818560e11b81526001600160a01b039091169063cbdf030a906110f590899033908a908a908a908a908a90600401612fc9565b600754604051632f90fedb60e21b81526001600160a01b038381166004830152606092169063be43fb6c90602401600060405180830381865afa15801561160d573d6000803e3d6000fd5b505050506040513d6000823e601f3d908101601f1916820160405261080d9190810190613059565b611640600033611215565b61165c5760405162461bcd60e51b8152600401610aa590612be9565b60065460405163bf00eaef60e01b81526001600160a01b039091169063bf00eaef90610db89085908590600401612c90565b6006546040805163300cbfed60e21b815290516000926001600160a01b03169163c032ffb49160048083019260209291908290030181865afa158015610903573d6000803e3d6000fd5b604080516060810182526000808252602082018190529181019190915260075460405163c4df500760e01b81526001600160a01b0384811660048301529091169063c4df500790602401606060405180830381865afa15801561173f573d6000803e3d6000fd5b505050506040513d601f19601f8201168201806040525081019061080d91906130f2565b61176e600033611215565b61178a5760405162461bcd60e51b8152600401610aa590612be9565b6001600160a01b0381166118065760405162461bcd60e51b815260206004820152603d60248201527f4e6577206461746120676174686572696e6720636f6e7472616374206164647260448201527f6573732063616e6e6f742062652061207a65726f20616464726573732e0000006064820152608401610aa5565b600580546001600160a01b0383166001600160a01b0319918216811790925560088054909116821790556040519081527f2f1d93ebfc243ef61474edf69d32b4aa6ac2608be9453fcafdbe16bab74bed9190602001610b80565b600654604080516364c9354f60e11b815290516060926001600160a01b03169163c9926a9e9160048083019260009291908290030181865afa1580156118aa573d6000803e3d6000fd5b505050506040513d6000823e601f3d908101601f191682016040526109279190810190612d66565b600081815260016020526040812061080d90611c9a565b60008281526020819052604090206001015461190481611b94565b610c228383611bc0565b600754604051636e8ed7c160e11b8152600481018390526000916001600160a01b03169063dd1daf8290602401602060405180830381865afa158015611958573d6000803e3d6000fd5b505050506040513d601f19601f8201168201806040525081019061080d919061310e565b6004546001600160a01b031633146119a65760405162461bcd60e51b8152600401610aa590612ca4565b600654604051631bf8574b60e31b8152600481018490526001600160a01b0383811660248301529091169063dfc2ba5890604401610db8565b6119ea600033611215565b611a065760405162461bcd60e51b8152600401610aa590612be9565b611a0f81611ca4565b50565b611a1d600033611215565b611a395760405162461bcd60e51b8152600401610aa590612be9565b60065460405163f497c1f760e01b8152600481018390526001600160a01b039091169063f497c1f790602401610f7c565b6004546001600160a01b03163314611a945760405162461bcd60e51b8152600401610aa590612ca4565b600654604051633e3a6f5160e21b81526001600160a01b039091169063f8e9bd4490610db8908590859060040161312b565b611ad08282611215565b610ca1576000828152602081815260408083206001600160a01b03851684529091529020805460ff19166001179055611b063390565b6001600160a01b0316816001600160a01b0316837f2f8788117e7eff1d82e926ec794901d17c78024a50270940304540a733656f0d60405160405180910390a45050565b6000610e93836001600160a01b038416611d1a565b60006001600160e01b03198216637965db0b60e01b148061080d57506301ffc9a760e01b6001600160e01b031983161461080d565b611a0f8133611d69565b611ba88282611ac6565b6000828152600160205260409020610c229082611b4a565b611bca8282611dc2565b6000828152600160205260409020610c229082611e27565b6002546001600160a01b03163314610f265760405162461bcd60e51b815260206004820181905260248201527f4f776e61626c653a2063616c6c6572206973206e6f7420746865206f776e65726044820152606401610aa5565b600280546001600160a01b038381166001600160a01b0319831681179093556040519116919082907f8be0079c531659141344cd1fd0a4f28419497f9722a3daafe3b4186f6b6457e090600090a35050565b6000610e938383611e3c565b600061080d825490565b611cac611be2565b6001600160a01b038116611d115760405162461bcd60e51b815260206004820152602660248201527f4f776e61626c653a206e6577206f776e657220697320746865207a65726f206160448201526564647265737360d01b6064820152608401610aa5565b611a0f81611c3c565b6000818152600183016020526040812054611d615750815460018181018455600084815260208082209093018490558454848252828601909352604090209190915561080d565b50600061080d565b611d738282611215565b610ca157611d8081611e66565b611d8b836020611e78565b604051602001611d9c92919061314d565b60408051601f198184030181529082905262461bcd60e51b8252610aa591600401612396565b611dcc8282611215565b15610ca1576000828152602081815260408083206001600160a01b0385168085529252808320805460ff1916905551339285917ff6391f5c32d9c69d2a47ea670b442974b53935d1edc7fd64eb21e047a839171b9190a45050565b6000610e93836001600160a01b038416612013565b6000826000018281548110611e5357611e536131c2565b9060005260206000200154905092915050565b606061080d6001600160a01b03831660145b60606000611e878360026131ee565b611e9290600261320d565b6001600160401b03811115611ea957611ea9612723565b6040519080825280601f01601f191660200182016040528015611ed3576020820181803683370190505b509050600360fc1b81600081518110611eee57611eee6131c2565b60200101906001600160f81b031916908160001a905350600f60fb1b81600181518110611f1d57611f1d6131c2565b60200101906001600160f81b031916908160001a9053506000611f418460026131ee565b611f4c90600161320d565b90505b6001811115611fc4576f181899199a1a9b1b9c1cb0b131b232b360811b85600f1660108110611f8057611f806131c2565b1a60f81b828281518110611f9657611f966131c2565b60200101906001600160f81b031916908160001a90535060049490941c93611fbd81613225565b9050611f4f565b508315610e935760405162461bcd60e51b815260206004820181905260248201527f537472696e67733a20686578206c656e67746820696e73756666696369656e746044820152606401610aa5565b600081815260018301602052604081205480156120fc57600061203760018361323c565b855490915060009061204b9060019061323c565b90508181146120b057600086600001828154811061206b5761206b6131c2565b906000526020600020015490508087600001848154811061208e5761208e6131c2565b6000918252602080832090910192909255918252600188019052604090208390555b85548690806120c1576120c1613253565b60019003818190600052602060002001600090559055856001016000868152602001908152602001600020600090556001935050505061080d565b600091505061080d565b60006020828403121561211857600080fd5b5035919050565b600081518084526020808501945080840160005b838110156121585781516001600160a01b031687529582019590820190600101612133565b509495945050505050565b60208152600082516060602084015261217f608084018261211f565b905060208401516040840152604084015160608401528091505092915050565b6000602082840312156121b157600080fd5b81356001600160e01b031981168114610e9357600080fd5b6001600160a01b0381168114611a0f57600080fd5b60008083601f8401126121f057600080fd5b5081356001600160401b0381111561220757600080fd5b60208301915083602082850101111561221f57600080fd5b9250929050565b6000806000806060858703121561223c57600080fd5b8435612247816121c9565b935060208501356001600160401b0381111561226257600080fd5b61226e878288016121de565b9598909750949560400135949350505050565b6020808252825182820181905260009190848201906040850190845b818110156122b95783518352928401929184019160010161229d565b50909695505050505050565b6000602082840312156122d757600080fd5b8135610e93816121c9565b60005b838110156122fd5781810151838201526020016122e5565b8381111561230c576000848401525b50505050565b6000815180845261232a8160208601602086016122e2565b601f01601f19169290920160200192915050565b60208152600082516060602084015261235a6080840182612312565b90506020840151601f19808584030160408601526123788383612312565b92506040860151915080858403016060860152506108b08282612312565b602081526000610e936020830184612312565b600080604083850312156123bc57600080fd5b8235915060208301356123ce816121c9565b809150509250929050565b600080602083850312156123ec57600080fd5b82356001600160401b0381111561240257600080fd5b61240e858286016121de565b90969095509350505050565b6000806040838503121561242d57600080fd5b8235612438816121c9565b915060208301356123ce816121c9565b6000806040838503121561245b57600080fd5b8235612466816121c9565b946020939093013593505050565b600081518084526020808501808196508360051b8101915082860160005b858110156124bc5782840389526124aa848351612312565b98850198935090840190600101612492565b5091979650505050505050565b602081526000610e936020830184612474565b600080600080600080606087890312156124f557600080fd5b86356001600160401b038082111561250c57600080fd5b6125188a838b016121de565b9098509650602089013591508082111561253157600080fd5b61253d8a838b016121de565b9096509450604089013591508082111561255657600080fd5b5061256389828a016121de565b979a9699509497509295939492505050565b6000806040838503121561258857600080fd5b50508035926020909101359150565b6020815260018060a01b03825116602082015260208201511515604082015260408201516060820152600060608301516080808401526125da60a0840182612474565b949350505050565b6020815281511515602082015260208201516040820152600060408301516080606084015261261460a084018261211f565b9050606084015160808401528091505092915050565b6000806000806000806080878903121561264357600080fd5b863561264e816121c9565b955060208701356001600160401b038082111561266a57600080fd5b6126768a838b016121de565b909750955060408901359450606089013591508082111561255657600080fd5b6020808252825182820181905260009190848201906040850190845b818110156122b9576126e483855180516001600160a01b03168252602080820151151590830152604090810151910152565b92840192606092909201916001016126b2565b81516001600160a01b03168152602080830151151590820152604080830151908201526060810161080d565b634e487b7160e01b600052604160045260246000fd5b604051606081016001600160401b038111828210171561275b5761275b612723565b60405290565b604051608081016001600160401b038111828210171561275b5761275b612723565b604051601f8201601f191681016001600160401b03811182821017156127ab576127ab612723565b604052919050565b60006001600160401b038211156127cc576127cc612723565b5060051b60200190565b60006001600160401b038211156127ef576127ef612723565b50601f01601f191660200190565b600080604080848603121561281157600080fd5b83356001600160401b038082111561282857600080fd5b818601915086601f83011261283c57600080fd5b8135602061285161284c836127b3565b612783565b82815260059290921b8401810191818101908a84111561287057600080fd5b8286015b848110156128e45780358681111561288c5760008081fd5b8701603f81018d1361289e5760008081fd5b848101356128ae61284c826127d6565b8181528e8b8385010111156128c35760008081fd5b818b8401888301376000918101870191909152845250918301918301612874565b509a9890910135985050505050505050565b600082601f83011261290757600080fd5b8151602061291761284c836127b3565b82815260059290921b8401810191818101908684111561293657600080fd5b8286015b8481101561295a57805161294d816121c9565b835291830191830161293a565b509695505050505050565b60006020828403121561297757600080fd5b81516001600160401b038082111561298e57600080fd5b90830190606082860312156129a257600080fd5b6129aa612739565b8251828111156129b957600080fd5b6129c5878286016128f6565b825250602083015160208201526040830151604082015280935050505092915050565b81835281816020850137506000828201602090810191909152601f909101601f19169091010190565b6001600160a01b0385168152606060208201819052600090612a3690830185876129e8565b905082604083015295945050505050565b600060208284031215612a5957600080fd5b5051919050565b60006020808385031215612a7357600080fd5b82516001600160401b03811115612a8957600080fd5b8301601f81018513612a9a57600080fd5b8051612aa861284c826127b3565b81815260059190911b82018301908381019087831115612ac757600080fd5b928401925b82841015612ae557835182529284019290840190612acc565b979650505050505050565b600082601f830112612b0157600080fd5b8151612b0f61284c826127d6565b818152846020838601011115612b2457600080fd5b6125da8260208301602087016122e2565b600060208284031215612b4757600080fd5b81516001600160401b0380821115612b5e57600080fd5b9083019060608286031215612b7257600080fd5b612b7a612739565b825182811115612b8957600080fd5b612b9587828601612af0565b825250602083015182811115612baa57600080fd5b612bb687828601612af0565b602083015250604083015182811115612bce57600080fd5b612bda87828601612af0565b60408301525095945050505050565b60208082526023908201527f4f6e6c792061646d696e2063616e20706572666f726d2074686973206163746960408201526237b71760e91b606082015260800190565b600060208284031215612c3e57600080fd5b81516001600160401b03811115612c5457600080fd5b6125da84828501612af0565b80518015158114612c7057600080fd5b919050565b600060208284031215612c8757600080fd5b610e9382612c60565b6020815260006125da6020830184866129e8565b60208082526023908201527f43616c6c6572206973206e6f7420726567697374726174696f6e20636f6e74726040820152621858dd60ea1b606082015260800190565b600082601f830112612cf857600080fd5b81516020612d0861284c836127b3565b82815260059290921b84018101918181019086841115612d2757600080fd5b8286015b8481101561295a5780516001600160401b03811115612d4a5760008081fd5b612d588986838b0101612af0565b845250918301918301612d2b565b600060208284031215612d7857600080fd5b81516001600160401b03811115612d8e57600080fd5b6125da84828501612ce7565b60208082526025908201527f43616c6c6572206973206e6f742061207265676973746572656420636f6e747260408201526437b63632b960d91b606082015260800190565b6001600160a01b0388168152608060208201819052600090612e04908301888a6129e8565b8281036040840152612e178187896129e8565b90508281036060840152612e2c8185876129e8565b9a9950505050505050505050565b600060608284031215612e4c57600080fd5b604051606081018181106001600160401b0382111715612e6e57612e6e612723565b6040528251612e7c816121c9565b8152602083810151908201526040928301519281019290925250919050565b600060208284031215612ead57600080fd5b81516001600160401b0380821115612ec457600080fd5b9083019060808286031215612ed857600080fd5b612ee0612761565b8251612eeb816121c9565b8152612ef960208401612c60565b602082015260408301516040820152606083015182811115612f1a57600080fd5b612f2687828601612ce7565b60608301525095945050505050565b600060208284031215612f4757600080fd5b81516001600160401b0380821115612f5e57600080fd5b9083019060808286031215612f7257600080fd5b612f7a612761565b612f8383612c60565b815260208301516020820152604083015182811115612fa157600080fd5b612fad878286016128f6565b6040830152506060830151606082015280935050505092915050565b6001600160a01b0388811682528716602082015260a060408201819052600090612ff690830187896129e8565b8560608401528281036080840152612e2c8185876129e8565b60006060828403121561302157600080fd5b613029612739565b90508151613036816121c9565b815261304460208301612c60565b60208201526040820151604082015292915050565b6000602080838503121561306c57600080fd5b82516001600160401b0381111561308257600080fd5b8301601f8101851361309357600080fd5b80516130a161284c826127b3565b818152606091820283018401918482019190888411156130c057600080fd5b938501935b838510156130e6576130d7898661300f565b835293840193918501916130c5565b50979650505050505050565b60006060828403121561310457600080fd5b610e93838361300f565b60006020828403121561312057600080fd5b8151610e93816121c9565b60408152600061313e6040830185612474565b90508260208301529392505050565b7f416363657373436f6e74726f6c3a206163636f756e74200000000000000000008152600083516131858160178501602088016122e2565b7001034b99036b4b9b9b4b733903937b6329607d1b60179184019182015283516131b68160288401602088016122e2565b01602801949350505050565b634e487b7160e01b600052603260045260246000fd5b634e487b7160e01b600052601160045260246000fd5b6000816000190483118215151615613208576132086131d8565b500290565b60008219821115613220576132206131d8565b500190565b600081613234576132346131d8565b506000190190565b60008282101561324e5761324e6131d8565b500390565b634e487b7160e01b600052603160045260246000fdfea264697066735822122079ecf27a78415a30daa6302ae2f77bbd1165bc4c82f8b8d8b5a1779eb6f0f3f264736f6c634300080e0033",
  "linkReferences": {},
  "deployedLinkReferences": {}
}