{
  "_format": "hh-sol-artifact-1",
  "contractName": "IngesterRegistrationV2",
  "sourceName": "contracts/IngesterOrchestratorV2/IngesterRegistrationV2.sol",
  "abi": [
    {
      "anonymous": false,
      "inputs": [
        {
          "indexed": true,
          "internalType": "address",
          "name": "controllerAddress",
          "type": "address"
        },
        {
          "indexed": true,
          "internalType": "address",
          "name": "ingesterAddress",
          "type": "address"
        }
      ],
      "name": "IngesterRegistered",
      "type": "event"
    },
    {
      "anonymous": false,
      "inputs": [
        {
          "indexed": true,
          "internalType": "address",
          "name": "controllerAddress",
          "type": "address"
        },
        {
          "indexed": true,
          "internalType": "address",
          "name": "ingesterAddress",
          "type": "address"
        }
      ],
      "name": "IngesterUnRegistered",
      "type": "event"
    },
    {
      "anonymous": false,
      "inputs": [
        {
          "indexed": true,
          "internalType": "address",
          "name": "previousOwner",
          "type": "address"
        },
        {
          "indexed": true,
          "internalType": "address",
          "name": "newOwner",
          "type": "address"
        }
      ],
      "name": "OwnershipTransferred",
      "type": "event"
    },
    {
      "anonymous": false,
      "inputs": [
        {
          "indexed": true,
          "internalType": "bytes32",
          "name": "role",
          "type": "bytes32"
        },
        {
          "indexed": true,
          "internalType": "bytes32",
          "name": "previousAdminRole",
          "type": "bytes32"
        },
        {
          "indexed": true,
          "internalType": "bytes32",
          "name": "newAdminRole",
          "type": "bytes32"
        }
      ],
      "name": "RoleAdminChanged",
      "type": "event"
    },
    {
      "anonymous": false,
      "inputs": [
        {
          "indexed": true,
          "internalType": "bytes32",
          "name": "role",
          "type": "bytes32"
        },
        {
          "indexed": true,
          "internalType": "address",
          "name": "account",
          "type": "address"
        },
        {
          "indexed": true,
          "internalType": "address",
          "name": "sender",
          "type": "address"
        }
      ],
      "name": "RoleGranted",
      "type": "event"
    },
    {
      "anonymous": false,
      "inputs": [
        {
          "indexed": true,
          "internalType": "bytes32",
          "name": "role",
          "type": "bytes32"
        },
        {
          "indexed": true,
          "internalType": "address",
          "name": "account",
          "type": "address"
        },
        {
          "indexed": true,
          "internalType": "address",
          "name": "sender",
          "type": "address"
        }
      ],
      "name": "RoleRevoked",
      "type": "event"
    },
    {
      "inputs": [],
      "name": "DEFAULT_ADMIN_ROLE",
      "outputs": [
        {
          "internalType": "bytes32",
          "name": "",
          "type": "bytes32"
        }
      ],
      "stateMutability": "view",
      "type": "function"
    },
    {
      "inputs": [],
      "name": "INGESTER_ROLE",
      "outputs": [
        {
          "internalType": "bytes32",
          "name": "",
          "type": "bytes32"
        }
      ],
      "stateMutability": "view",
      "type": "function"
    },
    {
      "inputs": [
        {
          "internalType": "address",
          "name": "_address",
          "type": "address"
        },
        {
          "internalType": "string",
          "name": "_value",
          "type": "string"
        },
        {
          "internalType": "uint256",
          "name": "_nonce",
          "type": "uint256"
        }
      ],
      "name": "_hash",
      "outputs": [
        {
          "internalType": "bytes32",
          "name": "",
          "type": "bytes32"
        }
      ],
      "stateMutability": "pure",
      "type": "function"
    },
    {
      "inputs": [
        {
          "internalType": "uint256",
          "name": "",
          "type": "uint256"
        }
      ],
      "name": "_ingesterAddresses",
      "outputs": [
        {
          "internalType": "address",
          "name": "",
          "type": "address"
        }
      ],
      "stateMutability": "view",
      "type": "function"
    },
    {
      "inputs": [],
      "name": "_ingesterCount",
      "outputs": [
        {
          "internalType": "uint256",
          "name": "",
          "type": "uint256"
        }
      ],
      "stateMutability": "view",
      "type": "function"
    },
    {
      "inputs": [
        {
          "internalType": "address",
          "name": "ingesterAddress",
          "type": "address"
        }
      ],
      "name": "getIngester",
      "outputs": [
        {
          "components": [
            {
              "internalType": "address",
              "name": "ingesterAddress",
              "type": "address"
            },
            {
              "internalType": "bool",
              "name": "verified",
              "type": "bool"
            },
            {
              "internalType": "string[]",
              "name": "assignedGroups",
              "type": "string[]"
            }
          ],
          "internalType": "struct IIngesterRegistrationV2.Ingester",
          "name": "",
          "type": "tuple"
        }
      ],
      "stateMutability": "view",
      "type": "function"
    },
    {
      "inputs": [
        {
          "internalType": "bytes32",
          "name": "role",
          "type": "bytes32"
        }
      ],
      "name": "getRoleAdmin",
      "outputs": [
        {
          "internalType": "bytes32",
          "name": "",
          "type": "bytes32"
        }
      ],
      "stateMutability": "view",
      "type": "function"
    },
    {
      "inputs": [
        {
          "internalType": "bytes32",
          "name": "role",
          "type": "bytes32"
        },
        {
          "internalType": "uint256",
          "name": "index",
          "type": "uint256"
        }
      ],
      "name": "getRoleMember",
      "outputs": [
        {
          "internalType": "address",
          "name": "",
          "type": "address"
        }
      ],
      "stateMutability": "view",
      "type": "function"
    },
    {
      "inputs": [
        {
          "internalType": "bytes32",
          "name": "role",
          "type": "bytes32"
        }
      ],
      "name": "getRoleMemberCount",
      "outputs": [
        {
          "internalType": "uint256",
          "name": "",
          "type": "uint256"
        }
      ],
      "stateMutability": "view",
      "type": "function"
    },
    {
      "inputs": [
        {
          "internalType": "bytes32",
          "name": "role",
          "type": "bytes32"
        },
        {
          "internalType": "address",
          "name": "account",
          "type": "address"
        }
      ],
      "name": "grantRole",
      "outputs": [],
      "stateMutability": "nonpayable",
      "type": "function"
    },
    {
      "inputs": [
        {
          "internalType": "bytes32",
          "name": "role",
          "type": "bytes32"
        },
        {
          "internalType": "address",
          "name": "account",
          "type": "address"
        }
      ],
      "name": "hasRole",
      "outputs": [
        {
          "internalType": "bool",
          "name": "",
          "type": "bool"
        }
      ],
      "stateMutability": "view",
      "type": "function"
    },
    {
      "inputs": [],
      "name": "owner",
      "outputs": [
        {
          "internalType": "address",
          "name": "",
          "type": "address"
        }
      ],
      "stateMutability": "view",
      "type": "function"
    },
    {
      "inputs": [
        {
          "internalType": "address",
          "name": "ingesterAddress",
          "type": "address"
        },
        {
          "internalType": "string",
          "name": "message",
          "type": "string"
        },
        {
          "internalType": "uint256",
          "name": "nonce",
          "type": "uint256"
        },
        {
          "internalType": "bytes",
          "name": "sig",
          "type": "bytes"
        }
      ],
      "name": "registerIngester",
      "outputs": [],
      "stateMutability": "nonpayable",
      "type": "function"
    },
    {
      "inputs": [],
      "name": "renounceOwnership",
      "outputs": [],
      "stateMutability": "nonpayable",
      "type": "function"
    },
    {
      "inputs": [
        {
          "internalType": "bytes32",
          "name": "role",
          "type": "bytes32"
        },
        {
          "internalType": "address",
          "name": "account",
          "type": "address"
        }
      ],
      "name": "renounceRole",
      "outputs": [],
      "stateMutability": "nonpayable",
      "type": "function"
    },
    {
      "inputs": [
        {
          "internalType": "bytes32",
          "name": "role",
          "type": "bytes32"
        },
        {
          "internalType": "address",
          "name": "account",
          "type": "address"
        }
      ],
      "name": "revokeRole",
      "outputs": [],
      "stateMutability": "nonpayable",
      "type": "function"
    },
    {
      "inputs": [
        {
          "internalType": "bytes4",
          "name": "interfaceId",
          "type": "bytes4"
        }
      ],
      "name": "supportsInterface",
      "outputs": [
        {
          "internalType": "bool",
          "name": "",
          "type": "bool"
        }
      ],
      "stateMutability": "view",
      "type": "function"
    },
    {
      "inputs": [
        {
          "internalType": "address",
          "name": "newOwner",
          "type": "address"
        }
      ],
      "name": "transferOwnership",
      "outputs": [],
      "stateMutability": "nonpayable",
      "type": "function"
    },
    {
      "inputs": [
        {
          "internalType": "address",
          "name": "ingesterAddress",
          "type": "address"
        },
        {
          "internalType": "address",
          "name": "originCaller",
          "type": "address"
        }
      ],
      "name": "unRegisteringIngester",
      "outputs": [
        {
          "internalType": "string[]",
          "name": "groups",
          "type": "string[]"
        }
      ],
      "stateMutability": "nonpayable",
      "type": "function"
    }
  ],
  "bytecode": "0x60806040523480156200001157600080fd5b506200001d3362000030565b6200002a60003362000080565b620001be565b600080546001600160a01b038381166001600160a01b0319831681178455604051919092169283917f8be0079c531659141344cd1fd0a4f28419497f9722a3daafe3b4186f6b6457e09190a35050565b620000978282620000c360201b62000e521760201c565b6000828152600260209081526040909120620000be91839062000ebd6200014c821b17901c565b505050565b60008281526001602090815260408083206001600160a01b038516845290915290205460ff16620001485760008281526001602081815260408084206001600160a01b0386168086529252808420805460ff19169093179092559051339285917f2f8788117e7eff1d82e926ec794901d17c78024a50270940304540a733656f0d9190a45b5050565b600062000163836001600160a01b0384166200016c565b90505b92915050565b6000818152600183016020526040812054620001b55750815460018181018455600084815260208082209093018490558454848252828601909352604090209190915562000166565b50600062000166565b611db780620001ce6000396000f3fe608060405234801561001057600080fd5b50600436106101215760003560e01c8063715018a6116100ad578063b3d1dba611610071578063b3d1dba61461027d578063c4df500714610290578063ca15c873146102b0578063d547741f146102c3578063f2fde38b146102d657600080fd5b8063715018a6146102365780638da5cb5b1461023e5780639010d07c1461024f57806391d1485414610262578063a217fddf1461027557600080fd5b8063248a9ca3116100f4578063248a9ca3146101ac5780632f2ff15d146101d057806333bdff78146101e557806336568abe146101f85780633667e6fe1461020b57600080fd5b806301ffc9a714610126578063046fb9aa1461014e578063156044101461016e578063213d123514610185575b600080fd5b610139610134366004611854565b6102e9565b60405190151581526020015b60405180910390f35b61016161015c36600461189a565b610314565b6040516101459190611929565b61017760065481565b604051908152602001610145565b6101777f5e4113f64ef62a4dcf877571d6adf627b68af233a523753b8dcf1d3fb18974ed81565b6101776101ba36600461198b565b6000908152600160208190526040909120015490565b6101e36101de3660046119a4565b6106d7565b005b6101776101f3366004611a09565b610702565b6101e36102063660046119a4565b61073b565b61021e61021936600461198b565b6107b9565b6040516001600160a01b039091168152602001610145565b6101e36107e3565b6000546001600160a01b031661021e565b61021e61025d366004611a63565b6107f7565b6101396102703660046119a4565b610816565b610177600081565b6101e361028b366004611a85565b610841565b6102a361029e366004611b0f565b610bc4565b6040516101459190611b2a565b6101776102be36600461198b565b610da6565b6101e36102d13660046119a4565b610dbd565b6101e36102e4366004611b0f565b610de3565b60006001600160e01b03198216635a05180f60e01b148061030e575061030e82610ed2565b92915050565b60606103407f5e4113f64ef62a4dcf877571d6adf627b68af233a523753b8dcf1d3fb18974ed33610816565b61039d5760405162461bcd60e51b815260206004820152602360248201527f43616c6c6572206973206e6f742061207265676973746572656420696e6765736044820152623a32b960e91b60648201526084015b60405180910390fd5b6001600160a01b0383811660009081526004602052604090205416331461042c5760405162461bcd60e51b815260206004820152603860248201527f496e676573746f72206973206e6f74207265676973746572656420776974682060448201527f7468697320636f6e74726f6c6c657220616464726573732e00000000000000006064820152608401610394565b6001600160a01b03808416600090815260046020908152604080832080546001600160a01b03191681556001015493861683526003909152812080548390811061047857610478611ba6565b9060005260206000209060020201600101805480602002602001604051908101604052809291908181526020016000905b828210156105555783829060005260206000200180546104c890611bbc565b80601f01602080910402602001604051908101604052809291908181526020018280546104f490611bbc565b80156105415780601f1061051657610100808354040283529160200191610541565b820191906000526020600020905b81548152906001019060200180831161052457829003601f168201915b5050505050815260200190600101906104a9565b505050506001600160a01b0386166000908152600460205260409020600201546005805492935091811061058b5761058b611ba6565b6000918252602080832090910180546001600160a01b03191690556001600160a01b038616825260039052604090208054839081106105cc576105cc611ba6565b60009182526020822060029091020180546001600160a81b0319168155906105f760018301826116f1565b505060408051606081018252600080825260208083018281528385018381526001600160a01b038b8116855260048452868520955186546001600160a01b03191690821617865591516001860155516002909401939093559187168152600390915220541561067a5761067a6c494e4745535445525f524f4c4560981b8561073b565b6006805490600061068a83611c0c565b9190505550846001600160a01b0316846001600160a01b03167f79380a89f74b107e43a1a5deb8dc2d4604401f3b5574f3746ab9edb0881896b760405160405180910390a3949350505050565b600082815260016020819052604090912001546106f381610f07565b6106fd8383610f11565b505050565b60008484848460405160200161071b9493929190611c23565b604051602081830303815290604052805190602001209050949350505050565b6001600160a01b03811633146107ab5760405162461bcd60e51b815260206004820152602f60248201527f416363657373436f6e74726f6c3a2063616e206f6e6c792072656e6f756e636560448201526e103937b632b9903337b91039b2b63360891b6064820152608401610394565b6107b58282610f33565b5050565b600581815481106107c957600080fd5b6000918252602090912001546001600160a01b0316905081565b6107eb610f55565b6107f56000610faf565b565b600082815260026020526040812061080f9083610fff565b9392505050565b60009182526001602090815260408084206001600160a01b0393909316845291905290205460ff1690565b6001600160a01b03868116600090815260046020526040902054339116036108ab5760405162461bcd60e51b815260206004820152601c60248201527f496e676573746f7220616c726561647920726567697374657265642e000000006044820152606401610394565b60006108b987878787610702565b90506000610914826040517f19457468657265756d205369676e6564204d6573736167653a0a3332000000006020820152603c8101829052600090605c01604051602081830303815290604052805190602001209050919050565b9050876001600160a01b03166109608286868080601f01602080910402602001604051908101604052809392919081815260200183838082843760009201919091525061100b92505050565b6001600160a01b0316146109ab5760405162461bcd60e51b815260206004820152601260248201527124b73b30b634b21039b4b3b730ba3ab9329760711b6044820152606401610394565b604080516060810182526001600160a01b038a16815260016020808301919091528251600080825291810184529092820190836109f8565b60608152602001906001900390816109e35790505b5090523360009081526003602090815260408083208054600181810183559185529383902085516002909502018054848701511515600160a01b026001600160a81b03199091166001600160a01b0396909616959095179490941784559084015180519495508594610a729392850192919091019061170f565b5050506001600160a01b038916600090815260046020908152604080832080546001600160a01b0319163390811790915583526003909152902054610ab990600190611c66565b6001600160a01b038a166000818152600460205260408120600190810193909355600580548085018255918190527f036b6384b5eca791c62761152d0c79bb0604c104a5fb6f4eb0703f3154bb3db090910180546001600160a01b03191690921790915554610b289190611c66565b6001600160a01b038a16600090815260046020526040902060020155610b6e7f5e4113f64ef62a4dcf877571d6adf627b68af233a523753b8dcf1d3fb18974ed33610f11565b60068054906000610b7e83611c7d565b90915550506040516001600160a01b038a169033907f598653493b84e77228e4614aa23cba963c3e1438e36e835add87eee447fa3b5290600090a3505050505050505050565b604080516060808201835260008083526020830152918101919091526001600160a01b0382811660009081526004602052604090205416610c475760405162461bcd60e51b815260206004820152601860248201527f496e67657374657220646f6573206e6f742065786973742e00000000000000006044820152606401610394565b6001600160a01b038083166000818152600460208181526040808420805490961680855260038352908420949093525260019092015481548110610c8d57610c8d611ba6565b6000918252602080832060408051606081018252600290940290910180546001600160a01b038116855260ff600160a01b90910416151584840152600181018054835181860281018601855281815295969295938701949192909184015b82821015610d97578382906000526020600020018054610d0a90611bbc565b80601f0160208091040260200160405190810160405280929190818152602001828054610d3690611bbc565b8015610d835780601f10610d5857610100808354040283529160200191610d83565b820191906000526020600020905b815481529060010190602001808311610d6657829003601f168201915b505050505081526020019060010190610ceb565b50505091525090949350505050565b600081815260026020526040812061030e9061102f565b60008281526001602081905260409091200154610dd981610f07565b6106fd8383610f33565b610dee600033610816565b610e465760405162461bcd60e51b815260206004820152602360248201527f4f6e6c792061646d696e2063616e20706572666f726d2074686973206163746960448201526237b71760e91b6064820152608401610394565b610e4f81611039565b50565b610e5c8282610816565b6107b55760008281526001602081815260408084206001600160a01b0386168086529252808420805460ff19169093179092559051339285917f2f8788117e7eff1d82e926ec794901d17c78024a50270940304540a733656f0d9190a45050565b600061080f836001600160a01b0384166110af565b60006001600160e01b03198216637965db0b60e01b148061030e57506301ffc9a760e01b6001600160e01b031983161461030e565b610e4f81336110fe565b610f1b8282610e52565b60008281526002602052604090206106fd9082610ebd565b610f3d8282611157565b60008281526002602052604090206106fd90826111be565b6000546001600160a01b031633146107f55760405162461bcd60e51b815260206004820181905260248201527f4f776e61626c653a2063616c6c6572206973206e6f7420746865206f776e65726044820152606401610394565b600080546001600160a01b038381166001600160a01b0319831681178455604051919092169283917f8be0079c531659141344cd1fd0a4f28419497f9722a3daafe3b4186f6b6457e09190a35050565b600061080f83836111d3565b600080600061101a85856111fd565b9150915061102781611242565b509392505050565b600061030e825490565b611041610f55565b6001600160a01b0381166110a65760405162461bcd60e51b815260206004820152602660248201527f4f776e61626c653a206e6577206f776e657220697320746865207a65726f206160448201526564647265737360d01b6064820152608401610394565b610e4f81610faf565b60008181526001830160205260408120546110f65750815460018181018455600084815260208082209093018490558454848252828601909352604090209190915561030e565b50600061030e565b6111088282610816565b6107b5576111158161138c565b61112083602061139e565b604051602001611131929190611c96565b60408051601f198184030181529082905262461bcd60e51b825261039491600401611d0b565b6111618282610816565b156107b55760008281526001602090815260408083206001600160a01b0385168085529252808320805460ff1916905551339285917ff6391f5c32d9c69d2a47ea670b442974b53935d1edc7fd64eb21e047a839171b9190a45050565b600061080f836001600160a01b03841661153a565b60008260000182815481106111ea576111ea611ba6565b9060005260206000200154905092915050565b60008082516041036112335760208301516040840151606085015160001a6112278782858561162d565b9450945050505061123b565b506000905060025b9250929050565b600081600481111561125657611256611d1e565b0361125e5750565b600181600481111561127257611272611d1e565b036112bf5760405162461bcd60e51b815260206004820152601860248201527f45434453413a20696e76616c6964207369676e617475726500000000000000006044820152606401610394565b60028160048111156112d3576112d3611d1e565b036113205760405162461bcd60e51b815260206004820152601f60248201527f45434453413a20696e76616c6964207369676e6174757265206c656e677468006044820152606401610394565b600381600481111561133457611334611d1e565b03610e4f5760405162461bcd60e51b815260206004820152602260248201527f45434453413a20696e76616c6964207369676e6174757265202773272076616c604482015261756560f01b6064820152608401610394565b606061030e6001600160a01b03831660145b606060006113ad836002611d34565b6113b8906002611d53565b67ffffffffffffffff8111156113d0576113d0611c50565b6040519080825280601f01601f1916602001820160405280156113fa576020820181803683370190505b509050600360fc1b8160008151811061141557611415611ba6565b60200101906001600160f81b031916908160001a905350600f60fb1b8160018151811061144457611444611ba6565b60200101906001600160f81b031916908160001a9053506000611468846002611d34565b611473906001611d53565b90505b60018111156114eb576f181899199a1a9b1b9c1cb0b131b232b360811b85600f16601081106114a7576114a7611ba6565b1a60f81b8282815181106114bd576114bd611ba6565b60200101906001600160f81b031916908160001a90535060049490941c936114e481611c0c565b9050611476565b50831561080f5760405162461bcd60e51b815260206004820181905260248201527f537472696e67733a20686578206c656e67746820696e73756666696369656e746044820152606401610394565b6000818152600183016020526040812054801561162357600061155e600183611c66565b855490915060009061157290600190611c66565b90508181146115d757600086600001828154811061159257611592611ba6565b90600052602060002001549050808760000184815481106115b5576115b5611ba6565b6000918252602080832090910192909255918252600188019052604090208390555b85548690806115e8576115e8611d6b565b60019003818190600052602060002001600090559055856001016000868152602001908152602001600020600090556001935050505061030e565b600091505061030e565b6000807f7fffffffffffffffffffffffffffffff5d576e7357a4501ddfe92f46681b20a083111561166457506000905060036116e8565b6040805160008082526020820180845289905260ff881692820192909252606081018690526080810185905260019060a0016020604051602081039080840390855afa1580156116b8573d6000803e3d6000fd5b5050604051601f1901519150506001600160a01b0381166116e1576000600192509250506116e8565b9150600090505b94509492505050565b5080546000825590600052602060002090810190610e4f919061176c565b82805482825590600052602060002090810192821561175c579160200282015b8281111561175c578251805161174c918491602090910190611789565b509160200191906001019061172f565b5061176892915061176c565b5090565b808211156117685760006117808282611809565b5060010161176c565b82805461179590611bbc565b90600052602060002090601f0160209004810192826117b757600085556117fd565b82601f106117d057805160ff19168380011785556117fd565b828001600101855582156117fd579182015b828111156117fd5782518255916020019190600101906117e2565b5061176892915061183f565b50805461181590611bbc565b6000825580601f10611825575050565b601f016020900490600052602060002090810190610e4f91905b5b808211156117685760008155600101611840565b60006020828403121561186657600080fd5b81356001600160e01b03198116811461080f57600080fd5b80356001600160a01b038116811461189557600080fd5b919050565b600080604083850312156118ad57600080fd5b6118b68361187e565b91506118c46020840161187e565b90509250929050565b60005b838110156118e85781810151838201526020016118d0565b838111156118f7576000848401525b50505050565b600081518084526119158160208601602086016118cd565b601f01601f19169290920160200192915050565b6000602080830181845280855180835260408601915060408160051b870101925083870160005b8281101561197e57603f1988860301845261196c8583516118fd565b94509285019290850190600101611950565b5092979650505050505050565b60006020828403121561199d57600080fd5b5035919050565b600080604083850312156119b757600080fd5b823591506118c46020840161187e565b60008083601f8401126119d957600080fd5b50813567ffffffffffffffff8111156119f157600080fd5b60208301915083602082850101111561123b57600080fd5b60008060008060608587031215611a1f57600080fd5b611a288561187e565b9350602085013567ffffffffffffffff811115611a4457600080fd5b611a50878288016119c7565b9598909750949560400135949350505050565b60008060408385031215611a7657600080fd5b50508035926020909101359150565b60008060008060008060808789031215611a9e57600080fd5b611aa78761187e565b9550602087013567ffffffffffffffff80821115611ac457600080fd5b611ad08a838b016119c7565b9097509550604089013594506060890135915080821115611af057600080fd5b50611afd89828a016119c7565b979a9699509497509295939492505050565b600060208284031215611b2157600080fd5b61080f8261187e565b600060208083526080830160018060a01b03855116828501528185015115156040850152604085015160608086015281815180845260a08701915060a08160051b8801019350848301925060005b8181101561197e57609f19888603018352611b948585516118fd565b94509285019291850191600101611b78565b634e487b7160e01b600052603260045260246000fd5b600181811c90821680611bd057607f821691505b602082108103611bf057634e487b7160e01b600052602260045260246000fd5b50919050565b634e487b7160e01b600052601160045260246000fd5b600081611c1b57611c1b611bf6565b506000190190565b6bffffffffffffffffffffffff198560601b16815282846014830137601492019182015260340192915050565b634e487b7160e01b600052604160045260246000fd5b600082821015611c7857611c78611bf6565b500390565b600060018201611c8f57611c8f611bf6565b5060010190565b7f416363657373436f6e74726f6c3a206163636f756e7420000000000000000000815260008351611cce8160178501602088016118cd565b7001034b99036b4b9b9b4b733903937b6329607d1b6017918401918201528351611cff8160288401602088016118cd565b01602801949350505050565b60208152600061080f60208301846118fd565b634e487b7160e01b600052602160045260246000fd5b6000816000190483118215151615611d4e57611d4e611bf6565b500290565b60008219821115611d6657611d66611bf6565b500190565b634e487b7160e01b600052603160045260246000fdfea2646970667358221220bb81f9fbbeab5e1418284fdd4f8476349af0d789742f0814d03cb2012b69531964736f6c634300080e0033",
  "linkReferences": {},
  "deployedLinkReferences": {}
}