{
  "_format": "hh-sol-artifact-1",
  "contractName": "IngesterDataGatheringV2",
  "sourceName": "contracts/IngesterOrchestratorV2/IngesterDataGatheringV2.sol",
  "abi": [
    {
      "anonymous": false,
      "inputs": [
        {
          "indexed": true,
          "internalType": "address",
          "name": "ingesterAddress",
          "type": "address"
        },
        {
          "indexed": false,
          "internalType": "string",
          "name": "usersIpfsHash",
          "type": "string"
        },
        {
          "indexed": false,
          "internalType": "string",
          "name": "chatsIpfsHash",
          "type": "string"
        },
        {
          "indexed": false,
          "internalType": "string",
          "name": "messagesIpfsHash",
          "type": "string"
        }
      ],
      "name": "IpfsHashAdded",
      "type": "event"
    },
    {
      "anonymous": false,
      "inputs": [
        {
          "indexed": true,
          "internalType": "address",
          "name": "previousOwner",
          "type": "address"
        },
        {
          "indexed": true,
          "internalType": "address",
          "name": "newOwner",
          "type": "address"
        }
      ],
      "name": "OwnershipTransferred",
      "type": "event"
    },
    {
      "anonymous": false,
      "inputs": [
        {
          "indexed": true,
          "internalType": "bytes32",
          "name": "role",
          "type": "bytes32"
        },
        {
          "indexed": true,
          "internalType": "bytes32",
          "name": "previousAdminRole",
          "type": "bytes32"
        },
        {
          "indexed": true,
          "internalType": "bytes32",
          "name": "newAdminRole",
          "type": "bytes32"
        }
      ],
      "name": "RoleAdminChanged",
      "type": "event"
    },
    {
      "anonymous": false,
      "inputs": [
        {
          "indexed": true,
          "internalType": "bytes32",
          "name": "role",
          "type": "bytes32"
        },
        {
          "indexed": true,
          "internalType": "address",
          "name": "account",
          "type": "address"
        },
        {
          "indexed": true,
          "internalType": "address",
          "name": "sender",
          "type": "address"
        }
      ],
      "name": "RoleGranted",
      "type": "event"
    },
    {
      "anonymous": false,
      "inputs": [
        {
          "indexed": true,
          "internalType": "bytes32",
          "name": "role",
          "type": "bytes32"
        },
        {
          "indexed": true,
          "internalType": "address",
          "name": "account",
          "type": "address"
        },
        {
          "indexed": true,
          "internalType": "address",
          "name": "sender",
          "type": "address"
        }
      ],
      "name": "RoleRevoked",
      "type": "event"
    },
    {
      "inputs": [],
      "name": "DEFAULT_ADMIN_ROLE",
      "outputs": [
        {
          "internalType": "bytes32",
          "name": "",
          "type": "bytes32"
        }
      ],
      "stateMutability": "view",
      "type": "function"
    },
    {
      "inputs": [],
      "name": "INGESTER_ROLE",
      "outputs": [
        {
          "internalType": "bytes32",
          "name": "",
          "type": "bytes32"
        }
      ],
      "stateMutability": "view",
      "type": "function"
    },
    {
      "inputs": [
        {
          "internalType": "address",
          "name": "",
          "type": "address"
        }
      ],
      "name": "_ipfsHashes",
      "outputs": [
        {
          "internalType": "string",
          "name": "usersIpfsHash",
          "type": "string"
        },
        {
          "internalType": "string",
          "name": "chatsIpfsHash",
          "type": "string"
        },
        {
          "internalType": "string",
          "name": "messagesIpfsHash",
          "type": "string"
        }
      ],
      "stateMutability": "view",
      "type": "function"
    },
    {
      "inputs": [
        {
          "internalType": "address",
          "name": "ingesterAddress",
          "type": "address"
        },
        {
          "internalType": "string",
          "name": "usersHash",
          "type": "string"
        },
        {
          "internalType": "string",
          "name": "chatsHash",
          "type": "string"
        },
        {
          "internalType": "string",
          "name": "messagesHash",
          "type": "string"
        }
      ],
      "name": "addIpfsHash",
      "outputs": [],
      "stateMutability": "nonpayable",
      "type": "function"
    },
    {
      "inputs": [
        {
          "internalType": "address",
          "name": "ingesterAddress",
          "type": "address"
        }
      ],
      "name": "getIpfsHashes",
      "outputs": [
        {
          "components": [
            {
              "internalType": "string",
              "name": "usersIpfsHash",
              "type": "string"
            },
            {
              "internalType": "string",
              "name": "chatsIpfsHash",
              "type": "string"
            },
            {
              "internalType": "string",
              "name": "messagesIpfsHash",
              "type": "string"
            }
          ],
          "internalType": "struct IIngesterDataGatheringV2.IpfsHash",
          "name": "ipfsHashes",
          "type": "tuple"
        }
      ],
      "stateMutability": "view",
      "type": "function"
    },
    {
      "inputs": [
        {
          "internalType": "bytes32",
          "name": "role",
          "type": "bytes32"
        }
      ],
      "name": "getRoleAdmin",
      "outputs": [
        {
          "internalType": "bytes32",
          "name": "",
          "type": "bytes32"
        }
      ],
      "stateMutability": "view",
      "type": "function"
    },
    {
      "inputs": [
        {
          "internalType": "bytes32",
          "name": "role",
          "type": "bytes32"
        },
        {
          "internalType": "uint256",
          "name": "index",
          "type": "uint256"
        }
      ],
      "name": "getRoleMember",
      "outputs": [
        {
          "internalType": "address",
          "name": "",
          "type": "address"
        }
      ],
      "stateMutability": "view",
      "type": "function"
    },
    {
      "inputs": [
        {
          "internalType": "bytes32",
          "name": "role",
          "type": "bytes32"
        }
      ],
      "name": "getRoleMemberCount",
      "outputs": [
        {
          "internalType": "uint256",
          "name": "",
          "type": "uint256"
        }
      ],
      "stateMutability": "view",
      "type": "function"
    },
    {
      "inputs": [
        {
          "internalType": "bytes32",
          "name": "role",
          "type": "bytes32"
        },
        {
          "internalType": "address",
          "name": "account",
          "type": "address"
        }
      ],
      "name": "grantRole",
      "outputs": [],
      "stateMutability": "nonpayable",
      "type": "function"
    },
    {
      "inputs": [
        {
          "internalType": "bytes32",
          "name": "role",
          "type": "bytes32"
        },
        {
          "internalType": "address",
          "name": "account",
          "type": "address"
        }
      ],
      "name": "hasRole",
      "outputs": [
        {
          "internalType": "bool",
          "name": "",
          "type": "bool"
        }
      ],
      "stateMutability": "view",
      "type": "function"
    },
    {
      "inputs": [],
      "name": "owner",
      "outputs": [
        {
          "internalType": "address",
          "name": "",
          "type": "address"
        }
      ],
      "stateMutability": "view",
      "type": "function"
    },
    {
      "inputs": [],
      "name": "renounceOwnership",
      "outputs": [],
      "stateMutability": "nonpayable",
      "type": "function"
    },
    {
      "inputs": [
        {
          "internalType": "bytes32",
          "name": "role",
          "type": "bytes32"
        },
        {
          "internalType": "address",
          "name": "account",
          "type": "address"
        }
      ],
      "name": "renounceRole",
      "outputs": [],
      "stateMutability": "nonpayable",
      "type": "function"
    },
    {
      "inputs": [
        {
          "internalType": "bytes32",
          "name": "role",
          "type": "bytes32"
        },
        {
          "internalType": "address",
          "name": "account",
          "type": "address"
        }
      ],
      "name": "revokeRole",
      "outputs": [],
      "stateMutability": "nonpayable",
      "type": "function"
    },
    {
      "inputs": [
        {
          "internalType": "bytes4",
          "name": "interfaceId",
          "type": "bytes4"
        }
      ],
      "name": "supportsInterface",
      "outputs": [
        {
          "internalType": "bool",
          "name": "",
          "type": "bool"
        }
      ],
      "stateMutability": "view",
      "type": "function"
    },
    {
      "inputs": [
        {
          "internalType": "address",
          "name": "newOwner",
          "type": "address"
        }
      ],
      "name": "transferOwnership",
      "outputs": [],
      "stateMutability": "nonpayable",
      "type": "function"
    }
  ],
  "bytecode": "0x60806040523480156200001157600080fd5b506200001d3362000030565b6200002a60003362000080565b620001be565b600080546001600160a01b038381166001600160a01b0319831681178455604051919092169283917f8be0079c531659141344cd1fd0a4f28419497f9722a3daafe3b4186f6b6457e09190a35050565b620000978282620000c360201b620009851760201c565b6000828152600260209081526040909120620000be918390620009f06200014c821b17901c565b505050565b60008281526001602090815260408083206001600160a01b038516845290915290205460ff16620001485760008281526001602081815260408084206001600160a01b0386168086529252808420805460ff19169093179092559051339285917f2f8788117e7eff1d82e926ec794901d17c78024a50270940304540a733656f0d9190a45b5050565b600062000163836001600160a01b0384166200016c565b90505b92915050565b6000818152600183016020526040812054620001b55750815460018181018455600084815260208082209093018490558454848252828601909352604090209190915562000166565b50600062000166565b6114e980620001ce6000396000f3fe608060405234801561001057600080fd5b50600436106101005760003560e01c80639010d07c11610097578063ca15c87311610066578063ca15c8731461024b578063cc0505461461025e578063d547741f14610271578063f2fde38b1461028457600080fd5b80639010d07c146101fb57806391d148541461020e578063a217fddf14610221578063b5166ca51461022957600080fd5b80632f2ff15d116100d35780632f2ff15d146101a657806336568abe146101bb578063715018a6146101ce5780638da5cb5b146101d657600080fd5b806301ffc9a7146101055780631a5d7f3e1461012d578063213d12351461014d578063248a9ca314610182575b600080fd5b610118610113366004611046565b610297565b60405190151581526020015b60405180910390f35b61014061013b36600461108c565b6102c2565b6040516101249190611103565b6101747f5e4113f64ef62a4dcf877571d6adf627b68af233a523753b8dcf1d3fb18974ed81565b604051908152602001610124565b610174610190366004611164565b6000908152600160208190526040909120015490565b6101b96101b436600461117d565b6104c5565b005b6101b96101c936600461117d565b6104f0565b6101b9610573565b6000546001600160a01b03165b6040516001600160a01b039091168152602001610124565b6101e36102093660046111a9565b610587565b61011861021c36600461117d565b6105a6565b610174600081565b61023c61023736600461108c565b6105d1565b604051610124939291906111cb565b610174610259366004611164565b61078b565b6101b961026c3660046112b1565b6107a2565b6101b961027f36600461117d565b6108f0565b6101b961029236600461108c565b610916565b60006001600160e01b03198216635a05180f60e01b14806102bc57506102bc82610a05565b92915050565b6102e660405180606001604052806060815260200160608152602001606081525090565b6001600160a01b038216600090815260036020526040908190208151606081019092528054829082906103189061134a565b80601f01602080910402602001604051908101604052809291908181526020018280546103449061134a565b80156103915780601f1061036657610100808354040283529160200191610391565b820191906000526020600020905b81548152906001019060200180831161037457829003601f168201915b505050505081526020016001820180546103aa9061134a565b80601f01602080910402602001604051908101604052809291908181526020018280546103d69061134a565b80156104235780601f106103f857610100808354040283529160200191610423565b820191906000526020600020905b81548152906001019060200180831161040657829003601f168201915b5050505050815260200160028201805461043c9061134a565b80601f01602080910402602001604051908101604052809291908181526020018280546104689061134a565b80156104b55780601f1061048a576101008083540402835291602001916104b5565b820191906000526020600020905b81548152906001019060200180831161049857829003601f168201915b5050505050815250509050919050565b600082815260016020819052604090912001546104e181610a3a565b6104eb8383610a44565b505050565b6001600160a01b03811633146105655760405162461bcd60e51b815260206004820152602f60248201527f416363657373436f6e74726f6c3a2063616e206f6e6c792072656e6f756e636560448201526e103937b632b9903337b91039b2b63360891b60648201526084015b60405180910390fd5b61056f8282610a66565b5050565b61057b610a88565b6105856000610ae2565b565b600082815260026020526040812061059f9083610b32565b9392505050565b60009182526001602090815260408084206001600160a01b0393909316845291905290205460ff1690565b6003602052600090815260409020805481906105ec9061134a565b80601f01602080910402602001604051908101604052809291908181526020018280546106189061134a565b80156106655780601f1061063a57610100808354040283529160200191610665565b820191906000526020600020905b81548152906001019060200180831161064857829003601f168201915b50505050509080600101805461067a9061134a565b80601f01602080910402602001604051908101604052809291908181526020018280546106a69061134a565b80156106f35780601f106106c8576101008083540402835291602001916106f3565b820191906000526020600020905b8154815290600101906020018083116106d657829003601f168201915b5050505050908060020180546107089061134a565b80601f01602080910402602001604051908101604052809291908181526020018280546107349061134a565b80156107815780601f1061075657610100808354040283529160200191610781565b820191906000526020600020905b81548152906001019060200180831161076457829003601f168201915b5050505050905083565b60008181526002602052604081206102bc90610b3e565b6107cc7f5e4113f64ef62a4dcf877571d6adf627b68af233a523753b8dcf1d3fb18974ed336105a6565b6108245760405162461bcd60e51b815260206004820152602360248201527f43616c6c6572206973206e6f742061207265676973746572656420696e6765736044820152623a32b960e91b606482015260840161055c565b6040805160608101825284815260208082018590528183018490526001600160a01b03871660009081526003825292909220815180519293849361086b9284920190610fad565b5060208281015180516108849260018501920190610fad565b50604082015180516108a0916002840191602090910190610fad565b50905050846001600160a01b03167f4a91c5c6c2b23e82aa7b3e531ffa0ec1f52cc09186bfb1a33e0a1823ebe82a448585856040516108e1939291906111cb565b60405180910390a25050505050565b6000828152600160208190526040909120015461090c81610a3a565b6104eb8383610a66565b6109216000336105a6565b6109795760405162461bcd60e51b815260206004820152602360248201527f4f6e6c792061646d696e2063616e20706572666f726d2074686973206163746960448201526237b71760e91b606482015260840161055c565b61098281610b48565b50565b61098f82826105a6565b61056f5760008281526001602081815260408084206001600160a01b0386168086529252808420805460ff19169093179092559051339285917f2f8788117e7eff1d82e926ec794901d17c78024a50270940304540a733656f0d9190a45050565b600061059f836001600160a01b038416610bbe565b60006001600160e01b03198216637965db0b60e01b14806102bc57506301ffc9a760e01b6001600160e01b03198316146102bc565b6109828133610c0d565b610a4e8282610985565b60008281526002602052604090206104eb90826109f0565b610a708282610c66565b60008281526002602052604090206104eb9082610ccd565b6000546001600160a01b031633146105855760405162461bcd60e51b815260206004820181905260248201527f4f776e61626c653a2063616c6c6572206973206e6f7420746865206f776e6572604482015260640161055c565b600080546001600160a01b038381166001600160a01b0319831681178455604051919092169283917f8be0079c531659141344cd1fd0a4f28419497f9722a3daafe3b4186f6b6457e09190a35050565b600061059f8383610ce2565b60006102bc825490565b610b50610a88565b6001600160a01b038116610bb55760405162461bcd60e51b815260206004820152602660248201527f4f776e61626c653a206e6577206f776e657220697320746865207a65726f206160448201526564647265737360d01b606482015260840161055c565b61098281610ae2565b6000818152600183016020526040812054610c05575081546001818101845560008481526020808220909301849055845484825282860190935260409020919091556102bc565b5060006102bc565b610c1782826105a6565b61056f57610c2481610d0c565b610c2f836020610d1e565b604051602001610c40929190611384565b60408051601f198184030181529082905262461bcd60e51b825261055c916004016113f9565b610c7082826105a6565b1561056f5760008281526001602090815260408083206001600160a01b0385168085529252808320805460ff1916905551339285917ff6391f5c32d9c69d2a47ea670b442974b53935d1edc7fd64eb21e047a839171b9190a45050565b600061059f836001600160a01b038416610eba565b6000826000018281548110610cf957610cf961140c565b9060005260206000200154905092915050565b60606102bc6001600160a01b03831660145b60606000610d2d836002611438565b610d38906002611457565b67ffffffffffffffff811115610d5057610d5061120e565b6040519080825280601f01601f191660200182016040528015610d7a576020820181803683370190505b509050600360fc1b81600081518110610d9557610d9561140c565b60200101906001600160f81b031916908160001a905350600f60fb1b81600181518110610dc457610dc461140c565b60200101906001600160f81b031916908160001a9053506000610de8846002611438565b610df3906001611457565b90505b6001811115610e6b576f181899199a1a9b1b9c1cb0b131b232b360811b85600f1660108110610e2757610e2761140c565b1a60f81b828281518110610e3d57610e3d61140c565b60200101906001600160f81b031916908160001a90535060049490941c93610e648161146f565b9050610df6565b50831561059f5760405162461bcd60e51b815260206004820181905260248201527f537472696e67733a20686578206c656e67746820696e73756666696369656e74604482015260640161055c565b60008181526001830160205260408120548015610fa3576000610ede600183611486565b8554909150600090610ef290600190611486565b9050818114610f57576000866000018281548110610f1257610f1261140c565b9060005260206000200154905080876000018481548110610f3557610f3561140c565b6000918252602080832090910192909255918252600188019052604090208390555b8554869080610f6857610f6861149d565b6001900381819060005260206000200160009055905585600101600086815260200190815260200160002060009055600193505050506102bc565b60009150506102bc565b828054610fb99061134a565b90600052602060002090601f016020900481019282610fdb5760008555611021565b82601f10610ff457805160ff1916838001178555611021565b82800160010185558215611021579182015b82811115611021578251825591602001919060010190611006565b5061102d929150611031565b5090565b5b8082111561102d5760008155600101611032565b60006020828403121561105857600080fd5b81356001600160e01b03198116811461059f57600080fd5b80356001600160a01b038116811461108757600080fd5b919050565b60006020828403121561109e57600080fd5b61059f82611070565b60005b838110156110c25781810151838201526020016110aa565b838111156110d1576000848401525b50505050565b600081518084526110ef8160208601602086016110a7565b601f01601f19169290920160200192915050565b60208152600082516060602084015261111f60808401826110d7565b90506020840151601f198085840301604086015261113d83836110d7565b925060408601519150808584030160608601525061115b82826110d7565b95945050505050565b60006020828403121561117657600080fd5b5035919050565b6000806040838503121561119057600080fd5b823591506111a060208401611070565b90509250929050565b600080604083850312156111bc57600080fd5b50508035926020909101359150565b6060815260006111de60608301866110d7565b82810360208401526111f081866110d7565b9050828103604084015261120481856110d7565b9695505050505050565b634e487b7160e01b600052604160045260246000fd5b600082601f83011261123557600080fd5b813567ffffffffffffffff808211156112505761125061120e565b604051601f8301601f19908116603f011681019082821181831017156112785761127861120e565b8160405283815286602085880101111561129157600080fd5b836020870160208301376000602085830101528094505050505092915050565b600080600080608085870312156112c757600080fd5b6112d085611070565b9350602085013567ffffffffffffffff808211156112ed57600080fd5b6112f988838901611224565b9450604087013591508082111561130f57600080fd5b61131b88838901611224565b9350606087013591508082111561133157600080fd5b5061133e87828801611224565b91505092959194509250565b600181811c9082168061135e57607f821691505b60208210810361137e57634e487b7160e01b600052602260045260246000fd5b50919050565b7f416363657373436f6e74726f6c3a206163636f756e74200000000000000000008152600083516113bc8160178501602088016110a7565b7001034b99036b4b9b9b4b733903937b6329607d1b60179184019182015283516113ed8160288401602088016110a7565b01602801949350505050565b60208152600061059f60208301846110d7565b634e487b7160e01b600052603260045260246000fd5b634e487b7160e01b600052601160045260246000fd5b600081600019048311821515161561145257611452611422565b500290565b6000821982111561146a5761146a611422565b500190565b60008161147e5761147e611422565b506000190190565b60008282101561149857611498611422565b500390565b634e487b7160e01b600052603160045260246000fdfea2646970667358221220cd1d55159c126d66dc8c338dabbaceaba2d0669869143c072f868fea7e0cbd3964736f6c634300080e0033",
  "linkReferences": {},
  "deployedLinkReferences": {}
}