{
  "_format": "hh-sol-artifact-1",
  "contractName": "RegistryFacet",
  "sourceName": "contracts/facets/RegistryFacet.sol",
  "abi": [
    {
      "inputs": [],
      "name": "ECDSA__InvalidS",
      "type": "error"
    },
    {
      "inputs": [],
      "name": "ECDSA__InvalidSignature",
      "type": "error"
    },
    {
      "inputs": [],
      "name": "ECDSA__InvalidSignatureLength",
      "type": "error"
    },
    {
      "inputs": [],
      "name": "ECDSA__InvalidV",
      "type": "error"
    },
    {
      "inputs": [],
      "name": "UintUtils__InsufficientHexLength",
      "type": "error"
    },
    {
      "anonymous": false,
      "inputs": [
        {
          "indexed": true,
          "internalType": "address",
          "name": "ingesterAddress",
          "type": "address"
        },
        {
          "indexed": false,
          "internalType": "string",
          "name": "groupUsername",
          "type": "string"
        }
      ],
      "name": "AssignGroupToIngester",
      "type": "event"
    },
    {
      "anonymous": false,
      "inputs": [
        {
          "indexed": true,
          "internalType": "address",
          "name": "ingesterAddress",
          "type": "address"
        },
        {
          "indexed": false,
          "internalType": "string[]",
          "name": "assignedGroups",
          "type": "string[]"
        }
      ],
      "name": "IngesterAssignedGroupsUpdated",
      "type": "event"
    },
    {
      "anonymous": false,
      "inputs": [
        {
          "indexed": true,
          "internalType": "address",
          "name": "newIngesterProxy",
          "type": "address"
        }
      ],
      "name": "IngesterProxyAddressUpdated",
      "type": "event"
    },
    {
      "anonymous": false,
      "inputs": [
        {
          "indexed": true,
          "internalType": "address",
          "name": "controllerAddress",
          "type": "address"
        },
        {
          "indexed": true,
          "internalType": "address",
          "name": "ingesterAddress",
          "type": "address"
        }
      ],
      "name": "IngesterRegistered",
      "type": "event"
    },
    {
      "anonymous": false,
      "inputs": [
        {
          "indexed": true,
          "internalType": "address",
          "name": "controllerAddress",
          "type": "address"
        },
        {
          "indexed": true,
          "internalType": "address",
          "name": "ingesterAddress",
          "type": "address"
        }
      ],
      "name": "IngesterUnRegistered",
      "type": "event"
    },
    {
      "anonymous": false,
      "inputs": [
        {
          "indexed": true,
          "internalType": "bytes32",
          "name": "role",
          "type": "bytes32"
        },
        {
          "indexed": true,
          "internalType": "bytes32",
          "name": "previousAdminRole",
          "type": "bytes32"
        },
        {
          "indexed": true,
          "internalType": "bytes32",
          "name": "newAdminRole",
          "type": "bytes32"
        }
      ],
      "name": "RoleAdminChanged",
      "type": "event"
    },
    {
      "anonymous": false,
      "inputs": [
        {
          "indexed": true,
          "internalType": "bytes32",
          "name": "role",
          "type": "bytes32"
        },
        {
          "indexed": true,
          "internalType": "address",
          "name": "account",
          "type": "address"
        },
        {
          "indexed": true,
          "internalType": "address",
          "name": "sender",
          "type": "address"
        }
      ],
      "name": "RoleGranted",
      "type": "event"
    },
    {
      "anonymous": false,
      "inputs": [
        {
          "indexed": true,
          "internalType": "bytes32",
          "name": "role",
          "type": "bytes32"
        },
        {
          "indexed": true,
          "internalType": "address",
          "name": "account",
          "type": "address"
        },
        {
          "indexed": true,
          "internalType": "address",
          "name": "sender",
          "type": "address"
        }
      ],
      "name": "RoleRevoked",
      "type": "event"
    },
    {
      "inputs": [
        {
          "internalType": "uint256",
          "name": "numerator",
          "type": "uint256"
        },
        {
          "internalType": "uint256",
          "name": "denominator",
          "type": "uint256"
        }
      ],
      "name": "divideAndRoundUp",
      "outputs": [
        {
          "internalType": "uint256",
          "name": "",
          "type": "uint256"
        }
      ],
      "stateMutability": "pure",
      "type": "function"
    },
    {
      "inputs": [
        {
          "internalType": "uint256",
          "name": "clusterId",
          "type": "uint256"
        }
      ],
      "name": "getCluster",
      "outputs": [
        {
          "components": [
            {
              "internalType": "address[]",
              "name": "ingesterAddresses",
              "type": "address[]"
            },
            {
              "internalType": "uint256",
              "name": "clusterGroupCount",
              "type": "uint256"
            },
            {
              "internalType": "uint256",
              "name": "clusterRemainingCapacity",
              "type": "uint256"
            }
          ],
          "internalType": "struct IIngesterGroupManager.ClusterSlim",
          "name": "",
          "type": "tuple"
        }
      ],
      "stateMutability": "view",
      "type": "function"
    },
    {
      "inputs": [],
      "name": "getClusters",
      "outputs": [
        {
          "internalType": "uint256[]",
          "name": "",
          "type": "uint256[]"
        }
      ],
      "stateMutability": "view",
      "type": "function"
    },
    {
      "inputs": [
        {
          "internalType": "address",
          "name": "controllerAddress",
          "type": "address"
        }
      ],
      "name": "getControllerIngesters",
      "outputs": [
        {
          "components": [
            {
              "internalType": "address",
              "name": "ingesterAddress",
              "type": "address"
            },
            {
              "internalType": "bool",
              "name": "verified",
              "type": "bool"
            },
            {
              "internalType": "uint256",
              "name": "clusterId",
              "type": "uint256"
            }
          ],
          "internalType": "struct IIngesterRegistration.Ingester[]",
          "name": "",
          "type": "tuple[]"
        }
      ],
      "stateMutability": "view",
      "type": "function"
    },
    {
      "inputs": [],
      "name": "getGroupCount",
      "outputs": [
        {
          "internalType": "uint256",
          "name": "",
          "type": "uint256"
        }
      ],
      "stateMutability": "view",
      "type": "function"
    },
    {
      "inputs": [
        {
          "internalType": "address",
          "name": "ingesterAddress",
          "type": "address"
        }
      ],
      "name": "getIngester",
      "outputs": [
        {
          "components": [
            {
              "internalType": "address",
              "name": "ingesterAddress",
              "type": "address"
            },
            {
              "internalType": "bool",
              "name": "verified",
              "type": "bool"
            },
            {
              "internalType": "uint256",
              "name": "clusterId",
              "type": "uint256"
            }
          ],
          "internalType": "struct IIngesterRegistration.Ingester",
          "name": "",
          "type": "tuple"
        }
      ],
      "stateMutability": "view",
      "type": "function"
    },
    {
      "inputs": [],
      "name": "getIngesterCount",
      "outputs": [
        {
          "internalType": "uint256",
          "name": "",
          "type": "uint256"
        }
      ],
      "stateMutability": "view",
      "type": "function"
    },
    {
      "inputs": [
        {
          "internalType": "address",
          "name": "ingesterAddress",
          "type": "address"
        }
      ],
      "name": "getIngesterWithGroups",
      "outputs": [
        {
          "components": [
            {
              "internalType": "address",
              "name": "ingesterAddress",
              "type": "address"
            },
            {
              "internalType": "bool",
              "name": "verified",
              "type": "bool"
            },
            {
              "internalType": "uint256",
              "name": "clusterId",
              "type": "uint256"
            },
            {
              "internalType": "string[]",
              "name": "assignedGroups",
              "type": "string[]"
            }
          ],
          "internalType": "struct IIngesterRegistration.IngesterWithGroups",
          "name": "",
          "type": "tuple"
        }
      ],
      "stateMutability": "view",
      "type": "function"
    },
    {
      "inputs": [],
      "name": "getIngesters",
      "outputs": [
        {
          "internalType": "address[]",
          "name": "",
          "type": "address[]"
        }
      ],
      "stateMutability": "view",
      "type": "function"
    },
    {
      "inputs": [
        {
          "internalType": "bytes32",
          "name": "role",
          "type": "bytes32"
        }
      ],
      "name": "getRoleAdmin",
      "outputs": [
        {
          "internalType": "bytes32",
          "name": "",
          "type": "bytes32"
        }
      ],
      "stateMutability": "view",
      "type": "function"
    },
    {
      "inputs": [],
      "name": "getUnallocatedGroups",
      "outputs": [
        {
          "internalType": "string[]",
          "name": "",
          "type": "string[]"
        }
      ],
      "stateMutability": "view",
      "type": "function"
    },
    {
      "inputs": [
        {
          "internalType": "bytes32",
          "name": "role",
          "type": "bytes32"
        },
        {
          "internalType": "address",
          "name": "account",
          "type": "address"
        }
      ],
      "name": "grantRole",
      "outputs": [],
      "stateMutability": "nonpayable",
      "type": "function"
    },
    {
      "inputs": [
        {
          "internalType": "bytes32",
          "name": "role",
          "type": "bytes32"
        },
        {
          "internalType": "address",
          "name": "account",
          "type": "address"
        }
      ],
      "name": "hasRole",
      "outputs": [
        {
          "internalType": "bool",
          "name": "",
          "type": "bool"
        }
      ],
      "stateMutability": "view",
      "type": "function"
    },
    {
      "inputs": [
        {
          "internalType": "address",
          "name": "_address",
          "type": "address"
        },
        {
          "internalType": "string",
          "name": "_value",
          "type": "string"
        },
        {
          "internalType": "uint256",
          "name": "_nonce",
          "type": "uint256"
        }
      ],
      "name": "hash",
      "outputs": [
        {
          "internalType": "bytes32",
          "name": "",
          "type": "bytes32"
        }
      ],
      "stateMutability": "pure",
      "type": "function"
    },
    {
      "inputs": [
        {
          "internalType": "address",
          "name": "ingester",
          "type": "address"
        },
        {
          "internalType": "address",
          "name": "controller",
          "type": "address"
        }
      ],
      "name": "isIngesterOwnedByController",
      "outputs": [
        {
          "internalType": "bool",
          "name": "",
          "type": "bool"
        }
      ],
      "stateMutability": "view",
      "type": "function"
    },
    {
      "inputs": [
        {
          "internalType": "address",
          "name": "controller",
          "type": "address"
        }
      ],
      "name": "isRegisteredController",
      "outputs": [
        {
          "internalType": "bool",
          "name": "",
          "type": "bool"
        }
      ],
      "stateMutability": "view",
      "type": "function"
    },
    {
      "inputs": [
        {
          "internalType": "address",
          "name": "ingesterAddress",
          "type": "address"
        }
      ],
      "name": "isRegisteredIngester",
      "outputs": [
        {
          "internalType": "bool",
          "name": "",
          "type": "bool"
        }
      ],
      "stateMutability": "view",
      "type": "function"
    },
    {
      "inputs": [
        {
          "internalType": "address",
          "name": "ingesterAddress",
          "type": "address"
        },
        {
          "internalType": "string",
          "name": "message",
          "type": "string"
        },
        {
          "internalType": "uint256",
          "name": "nonce",
          "type": "uint256"
        },
        {
          "internalType": "bytes",
          "name": "sig",
          "type": "bytes"
        }
      ],
      "name": "registerIngester",
      "outputs": [],
      "stateMutability": "nonpayable",
      "type": "function"
    },
    {
      "inputs": [
        {
          "internalType": "bytes32",
          "name": "role",
          "type": "bytes32"
        }
      ],
      "name": "renounceRole",
      "outputs": [],
      "stateMutability": "nonpayable",
      "type": "function"
    },
    {
      "inputs": [
        {
          "internalType": "bytes32",
          "name": "role",
          "type": "bytes32"
        },
        {
          "internalType": "address",
          "name": "account",
          "type": "address"
        }
      ],
      "name": "revokeRole",
      "outputs": [],
      "stateMutability": "nonpayable",
      "type": "function"
    },
    {
      "inputs": [
        {
          "internalType": "address",
          "name": "ingesterAddress",
          "type": "address"
        }
      ],
      "name": "unRegisterIngester",
      "outputs": [],
      "stateMutability": "nonpayable",
      "type": "function"
    }
  ],
  "bytecode": "0x608060405234801561001057600080fd5b50612f29806100206000396000f3fe608060405234801561001057600080fd5b50600436106101375760003560e01c80637c517e68116100b8578063b3d1dba61161007c578063b3d1dba614610294578063be43fb6c146102a7578063c4df5007146102c7578063c9926a9e146102e7578063d547741f146102fc578063fd3bad521461030f57600080fd5b80637c517e681461023b5780638bb9c5bf1461024e5780638cdcb3e61461022857806391d1485414610261578063978abee01461027457600080fd5b80632f2ff15d116100ff5780632f2ff15d146101b6578063307f4f0a146101cb57806332fa7d211461020b57806359492090146102205780635e91a74a1461022857600080fd5b80630179240c1461013c578063033c7a211461016557806306545a931461018657806316f1d42a1461018e578063248a9ca3146101a3575b600080fd5b61014f61014a3660046127e0565b610322565b60405161015c91906127f9565b60405180910390f35b6101786101733660046128cd565b6103e6565b60405190815260200161015c565b600b54610178565b61019661041f565b60405161015c9190612927565b6101786101b13660046127e0565b61047a565b6101c96101c436600461296b565b61048b565b005b6101fb6101d9366004612997565b6001600160a01b03918216600090815260016020526040902054821691161490565b604051901515815260200161015c565b6102136104ac565b60405161015c91906129c1565b600454610178565b6101fb610236366004612a02565b610514565b6101c9610249366004612a02565b610540565b6101c961025c3660046127e0565b610b8b565b6101fb61026f36600461296b565b610b97565b610287610282366004612a02565b610baa565b60405161015c9190612ace565b6101c96102a2366004612b19565b610ddc565b6102ba6102b5366004612a02565b611147565b60405161015c9190612ba3565b6102da6102d5366004612a02565b6111e6565b60405161015c9190612c04565b6102ef6112fc565b60405161015c9190612c30565b6101c961030a36600461296b565b6113d8565b61017861031d366004612c43565b6113f4565b61034660405180606001604052806060815260200160008152602001600081525090565b6040805160008481526008602090815283822080546080928102850183019095526060840185815292948493928401828280156103ac57602002820191906000526020600020905b81546001600160a01b0316815260019091019060200180831161038e575b5050509183525050600085815260086020818152604080842060018101548387015298909352526002909501549401939093525090919050565b6000848484846040516020016103ff9493929190612c65565b604051602081830303815290604052805190602001209050949350505050565b6060600060090180548060200260200160405190810160405280929190818152602001828054801561047057602002820191906000526020600020905b81548152602001906001019080831161045c575b5050505050905090565b60006104858261147c565b92915050565b6104948261147c565b61049d8161149e565b6104a783836114a8565b505050565b606060008060030180548060200260200160405190810160405280929190818152602001828054801561050857602002820191906000526020600020905b81546001600160a01b031681526001909101906020018083116104ea575b50939695505050505050565b60006104857f5e4113f64ef62a4dcf877571d6adf627b68af233a523753b8dcf1d3fb18974ed8361150a565b61056a7f7b765e0e932d348852a6f810bfa1ab891e259123f02db8cdcde614c5702233573361150a565b6105ce5760405162461bcd60e51b815260206004820152602a60248201527f4c696241707053746f726167653a204e6f74206120726567697374657265642060448201526931b7b73a3937b63632b960b11b60648201526084015b60405180910390fd5b6001600160a01b0381811660009081526001602052604090205433911681146106395760405162461bcd60e51b815260206004820152601760248201527f496e67657374657220646f6573206e6f7420657869737400000000000000000060448201526064016105c5565b6001600160a01b03808316600090815260016020818152604080842090920154938516835260029052812080548390811061067657610676612c92565b60009182526020808320600160029093020191909101548083526008825260408084206001600160a01b0389168552600401835280842080548251818602810186019093528083529295509092909190849084015b828210156107775783829060005260206000200180546106ea90612ca8565b80601f016020809104026020016040519081016040528092919081815260200182805461071690612ca8565b80156107635780601f1061073857610100808354040283529160200191610763565b820191906000526020600020905b81548152906001019060200180831161074657829003601f168201915b5050505050815260200190600101906106cb565b5050506001600160a01b038716600090815260016020819052604090912060020154600454939450926107aa9250612cf8565b8114610842576004546000906003906107c590600190612cf8565b815481106107d5576107d5612c92565b600091825260209091200154600380546001600160a01b03909216925082918490811061080457610804612c92565b600091825260208083209190910180546001600160a01b0319166001600160a01b039485161790559290911681526001909152604090206002018190555b600380548061085357610853612d0f565b600082815260208120820160001990810180546001600160a01b03191690559091019091556004805490919061088890612d25565b909155506001600160a01b0385166000908152600260205260409020546001819003610950576108c86c494e4745535445525f524f4c4560981b8861152f565b6108e46e434f4e54524f4c4c45525f524f4c4560881b8761152f565b6001600160a01b038616600090815260026020526040812061090591612632565b6001600160a01b0387166000908152600160208190526040822080546001600160a01b0319168155908101829055600201556109418488611591565b61094b878561195d565b610b0b565b6001811115610b0b576109736c494e4745535445525f524f4c4560981b8861152f565b61097e600182612cf8565b8514610a76576001600160a01b03861660009081526002602052604081206109a7600184612cf8565b815481106109b7576109b7612c92565b6000918252602080832060408051606081018252600294850290920180546001600160a01b038082168552600160a01b90910460ff16151584860152600190910154838301528c1685529290915291208054919250829188908110610a1e57610a1e612c92565b60009182526020808320845160029384029091018054868401511515600160a01b026001600160a81b03199091166001600160a01b039384161717815560409586015160019182015595511683529390935220018590555b6001600160a01b0386166000908152600260205260409020805480610a9d57610a9d612d0f565b60008281526020808220600260001990940184810290910180546001600160a81b0319168155600190810184905594556001600160a01b038b1682528390526040812080546001600160a01b0319168155928301819055910155610b018488611591565b610b0b878561195d565b866001600160a01b0316866001600160a01b03167f79380a89f74b107e43a1a5deb8dc2d4604401f3b5574f3746ab9edb0881896b760405160405180910390a360075460011015610b79576000848152600860205260408120549003610b7457610b7483611c5b565b610b82565b610b8283611c5b565b50505050505050565b610b9481611d02565b50565b6000610ba3838361150a565b9392505050565b60408051608081018252600080825260208201819052918101919091526060808201526001600160a01b0382811660009081526001602052604090205416610c2f5760405162461bcd60e51b815260206004820152601860248201527724b733b2b9ba32b9103237b2b9903737ba1032bc34b9ba1760411b60448201526064016105c5565b6001600160a01b0380831660009081526001602081815260408084208054930154929094168084526002909152928220805491929183908110610c7457610c74612c92565b600091825260208083206040805160608101825260029490940290910180546001600160a01b038082168652600160a01b90910460ff16151585850152600190910154848301819052855260088352818520908a1685526004018252808420805482518185028101850190935280835293955090929091849084015b82821015610d9c578382906000526020600020018054610d0f90612ca8565b80601f0160208091040260200160405190810160405280929190818152602001828054610d3b90612ca8565b8015610d885780601f10610d5d57610100808354040283529160200191610d88565b820191906000526020600020905b815481529060010190602001808311610d6b57829003601f168201915b505050505081526020019060010190610cf0565b5050604080516080810182526001600160a01b03909a168a526020868101511515908b015294850151948901949094525060608701525093949350505050565b6001600160a01b03868116600090815260016020526040902054339116819003610e485760405162461bcd60e51b815260206004820152601c60248201527f496e67657374657220616c726561647920726567697374657265642e0000000060448201526064016105c5565b6000610e56888888886103e6565b90506000610eb1826040517f19457468657265756d205369676e6564204d6573736167653a0a3332000000006020820152603c8101829052600090605c01604051602081830303815290604052805190602001209050919050565b9050826001600160a01b0316610efd8287878080601f016020809104026020016040519081016040528093929190818152602001838380828437600092019190915250611d0c92505050565b6001600160a01b031614610f485760405162461bcd60e51b815260206004820152601260248201527124b73b30b634b21039b4b3b730ba3ab9329760711b60448201526064016105c5565b6000610f548a85611d58565b60408051606080820183526001600160a01b03808f16808452600160208086018281528688018981528d8616600081815260028086528b8220805480890182558184528784208d5191840201805497511515600160a01b026001600160a81b031990981691909b1617959095178955925197860197909755600380548087019091557fc2575a0e9e593c00f959f8c92f12db2869c3395a3b0502d05e2516446f71f85b0180546001600160a01b03191690961790955588519687019098528386529290935294825254949550919390929183019161103191612cf8565b815260035460209091019061104890600190612cf8565b90526001600160a01b038c81166000908152600160208181526040808420865181546001600160a01b031916961695909517855590850151918401919091559290920151600290910155600480549091906110a290612d3c565b909155506110d07f5e4113f64ef62a4dcf877571d6adf627b68af233a523753b8dcf1d3fb18974ed8c6114a8565b6110fa7f7b765e0e932d348852a6f810bfa1ab891e259123f02db8cdcde614c570223357866114a8565b8a6001600160a01b0316856001600160a01b03167f598653493b84e77228e4614aa23cba963c3e1438e36e835add87eee447fa3b5260405160405180910390a35050505050505050505050565b6001600160a01b0381166000908152600260209081526040808320805482518185028101850190935280835260609492939192909184015b828210156111db576000848152602090819020604080516060810182526002860290920180546001600160a01b0381168452600160a01b900460ff1615158385015260019081015491830191909152908352909201910161117f565b505050509050919050565b60408051606081018252600080825260208201819052918101919091526001600160a01b03828116600090815260016020526040902054166112655760405162461bcd60e51b815260206004820152601860248201527724b733b2b9ba32b9103237b2b9903737ba1032bc34b9ba1760411b60448201526064016105c5565b6001600160a01b0380831660009081526001602081815260408084208054930154929094168084526002909152929091208054829081106112a8576112a8612c92565b600091825260209182902060408051606081018252600290930290910180546001600160a01b038116845260ff600160a01b9091041615159383019390935260019092015491810191909152949350505050565b60606000600d01805480602002602001604051908101604052809291908181526020016000905b828210156113cf57838290600052602060002001805461134290612ca8565b80601f016020809104026020016040519081016040528092919081815260200182805461136e90612ca8565b80156113bb5780601f10611390576101008083540402835291602001916113bb565b820191906000526020600020905b81548152906001019060200180831161139e57829003601f168201915b505050505081526020019060010190611323565b50505050905090565b6113e18261147c565b6113ea8161149e565b6104a7838361152f565b6000816000036114395760405162461bcd60e51b815260206004820152601060248201526f4469766973696f6e206279207a65726f60801b60448201526064016105c5565b60006114458385612d6b565b905060006114538486612d7f565b905083611461826002612d93565b1061147457611471600183612db2565b91505b509392505050565b6000908152600080516020612ed4833981519152602052604090206002015490565b610b948133611e88565b6000828152600080516020612ed4833981519152602052604090206114cd9082611eee565b5060405133906001600160a01b0383169084907f2f8788117e7eff1d82e926ec794901d17c78024a50270940304540a733656f0d90600090a45050565b6000828152600080516020612ed483398151915260205260408120610ba39083611f03565b6000828152600080516020612ed4833981519152602052604090206115549082611f25565b5060405133906001600160a01b0383169084907ff6391f5c32d9c69d2a47ea670b442974b53935d1edc7fd64eb21e047a839171b90600090a45050565b60008281526008602090815260408083206001600160a01b0385168452600401825280832080548251818502810185019093528083528493849084015b8282101561167a5783829060005260206000200180546115ed90612ca8565b80601f016020809104026020016040519081016040528092919081815260200182805461161990612ca8565b80156116665780601f1061163b57610100808354040283529160200191611666565b820191906000526020600020905b81548152906001019060200180831161164957829003601f168201915b5050505050815260200190600101906115ce565b50505050905060005b815181101561195657600083600a018383815181106116a4576116a4612c92565b60200260200101516040516116b99190612dca565b90815260405190819003602001902060020154905060005b8181101561194357856001600160a01b031685600a018585815181106116f9576116f9612c92565b602002602001015160405161170e9190612dca565b9081526020016040518091039020600201828154811061173057611730612c92565b6000918252602090912001546001600160a01b03160361193157805b611757600184612cf8565b81101561185a5785600a0185858151811061177457611774612c92565b60200260200101516040516117899190612dca565b9081526040519081900360200190206002016117a6826001612db2565b815481106117b6576117b6612c92565b9060005260206000200160009054906101000a90046001600160a01b031686600a018686815181106117ea576117ea612c92565b60200260200101516040516117ff9190612dca565b9081526020016040518091039020600201828154811061182157611821612c92565b600091825260209091200180546001600160a01b0319166001600160a01b039290921691909117905561185381612d3c565b905061174c565b5084600a0184848151811061187157611871612c92565b60200260200101516040516118869190612dca565b90815260200160405180910390206002018054806118a6576118a6612d0f565b600082815260209020810160001990810180546001600160a01b031916905501905583518490849081106118dc576118dc612c92565b60200260200101516040516118f19190612dca565b604051908190038120906001600160a01b038816907ff44daf5bb2b216f36d3e8dbd133029dbed9c9a9cc146a994f4059825fcd5b85c90600090a3611943565b8061193b81612d3c565b9150506116d1565b50508061194f90612d3c565b9050611683565b5050505050565b60008181526008602052604081205481805b82811015611c53576000858152600885016020526040902080546001600160a01b0388169190839081106119a5576119a5612c92565b6000918252602090912001546001600160a01b031603611c41579050806119cd600184612cf8565b8114611a6c57600085815260088501602052604081206119ee600186612cf8565b815481106119fe576119fe612c92565b600091825260208083209091015488835260088801909152604090912080546001600160a01b039092169250829184908110611a3c57611a3c612c92565b9060005260206000200160006101000a8154816001600160a01b0302191690836001600160a01b03160217905550505b60008581526008850160205260409020805480611a8b57611a8b612d0f565b60008281526020808220830160001990810180546001600160a01b031916905590920190925586825260088601905260408120549003611b0557611ace85611f3a565b6000858152600885016020526040812090611ae98282612653565b5060006001820181905560028201819055600390910155611c41565b600085815260088501602081815260408084206001600160a01b038b1685526004810183529084205489855292909152600101805491929091611b49908490612cf8565b90915550506040805160008082526020820190925290611b79565b6060815260200190600190039081611b645790505b50600086815260088601602090815260408083206001600160a01b038b16845260040182529091208251611bb39391929190910190612671565b5060008581526008850160205260409020600181015490546006860154611bda9190612d93565b1015611bf85760405162461bcd60e51b81526004016105c590612dfc565b60008581526008850160205260409020600181015490546006860154611c1e9190612d93565b611c289190612cf8565b6000868152600886016020526040902060020155611c53565b80611c4b81612d3c565b91505061196f565b505050505050565b8051600090815b81811015611cc55782600d01848281518110611c8057611c80612c92565b60209081029190910181015182546001810184556000938452928290208151611cb294919091019291909101906126ce565b5080611cbd81612d3c565b915050611c62565b507f13ddbb1e6c4955f8610e1cfc2cc77452cb8074bcff5b8e7af58bc2e9dc08a60583604051611cf59190612c30565b60405180910390a1505050565b610b94813361152f565b60008151604114611d30576040516309f846f760e31b815260040160405180910390fd5b60208201516040830151606084015160001a611d4e86828585611ff8565b9695505050505050565b600954600090819081908103611d87576009820180546001810182556000918252602090912001819055611d94565b611d918585612102565b90505b6000818152600883016020908152604082208054600180820183558285529284200180546001600160a01b0319166001600160a01b038a161790559183905281015490546006840154611de79190612d93565b1015611e055760405162461bcd60e51b81526004016105c590612dfc565b60008181526008830160205260409020600181015490546006840154611e2b9190612d93565b611e359190612cf8565b600082815260088401602052604080822060020192909255905182916001600160a01b038816917f716d1ba471b0b77c0334eaf492769a1a246c89bccee29d6443ec4109d5e1de849190a3949350505050565b611e92828261150a565b611eea57611ea8816001600160a01b03166123c5565b611eb38360206123d7565b604051602001611ec4929190612e4b565b60408051601f198184030181529082905262461bcd60e51b82526105c591600401612ec0565b5050565b6000610ba3836001600160a01b03841661252a565b6001600160a01b03811660009081526001830160205260408120541515610ba3565b6000610ba3836001600160a01b03841661256d565b600081815260086020526040812060030154600954611f5a600182612cf8565b8214611fc957600060098401611f71600184612cf8565b81548110611f8157611f81612c92565b9060005260206000200154905080846009018481548110611fa457611fa4612c92565b6000918252602080832090910192909255918252600885019052604090206003018290555b82600901805480611fdc57611fdc612d0f565b6001900381819060005260206000200160009055905550505050565b60007f7fffffffffffffffffffffffffffffff5d576e7357a4501ddfe92f46681b20a082111561203b5760405163e4a61add60e01b815260040160405180910390fd5b8360ff16601b1415801561205357508360ff16601c14155b1561207157604051630acd54a960e41b815260040160405180910390fd5b6040805160008082526020820180845288905260ff871692820192909252606081018590526080810184905260019060a0016020604051602081039080840390855afa1580156120c5573d6000803e3d6000fd5b5050604051601f1901519150506001600160a01b0381166120f9576040516347f3b32760e11b815260040160405180910390fd5b95945050505050565b600954600d546000918291829182911561213c57600990930180546001810182556000918252602090912001839055509091506104859050565b60005b8181101561238d57846005015485600801600087600901848154811061216757612167612c92565b9060005260206000200154815260200190815260200160002060000180549050101561237b578460090181815481106121a2576121a2612c92565b9060005260206000200154935060019250600185600701541115612376576001600160a01b0387166000908152600286016020908152604080832080548251818502810185019093528083529192909190849084015b82821015612254576000848152602090819020604080516060810182526002860290920180546001600160a01b0381168452600160a01b900460ff161515838501526001908101549183019190915290835290920191016121f8565b50505050905060005b60008681526008880160205260409020548110156123635760005b82518110156123505782818151811061229357612293612c92565b6020026020010151600001516001600160a01b031688600801600089815260200190815260200160002060000183815481106122d1576122d1612c92565b6000918252602090912001546001600160a01b031614801561233457506000878152600889016020526040902080546001600160a01b038d1691908490811061231c5761231c612c92565b6000918252602090912001546001600160a01b031614155b1561233e57600095505b8061234881612d3c565b915050612278565b508061235b81612d3c565b91505061225d565b508315612370575061238d565b5061237b565b61238d565b8061238581612d3c565b91505061213f565b50816123b957600990930180546001810182556000918252602090912001839055509091506104859050565b82945050505050610485565b60606104856001600160a01b03831660145b606060006123e6836002612d93565b6123f1906002612db2565b67ffffffffffffffff81111561240957612409612de6565b6040519080825280601f01601f191660200182016040528015612433576020820181803683370190505b509050600360fc1b8160008151811061244e5761244e612c92565b60200101906001600160f81b031916908160001a905350600f60fb1b8160018151811061247d5761247d612c92565b60200101906001600160f81b031916908160001a905350600160028402015b600181111561250a576f181899199a1a9b1b9c1cb0b131b232b360811b85600f16601081106124cd576124cd612c92565b1a60f81b8282815181106124e3576124e3612c92565b60200101906001600160f81b031916908160001a90535060049490941c936000190161249c565b508315610ba35760405163c913478560e01b815260040160405180910390fd5b6000818152600183016020526040812054610485575081546001808201845560008481526020808220909301849055845493815293810190915260409092205590565b6000818152600183016020526040812054801561262b5783546000908590600019810190811061259f5761259f612c92565b90600052602060002001549050808560000160018403815481106125c5576125c5612c92565b60009182526020808320909101929092559182526001860190526040902081905583548490806125f7576125f7612d0f565b6001900381819060005260206000200160009055905583600101600084815260200190815260200160002060009055600191505b5092915050565b5080546000825560020290600052602060002090810190610b94919061274e565b5080546000825590600052602060002090810190610b949190612774565b8280548282559060005260206000209081019282156126be579160200282015b828111156126be57825180516126ae9184916020909101906126ce565b5091602001919060010190612691565b506126ca929150612789565b5090565b8280546126da90612ca8565b90600052602060002090601f0160209004810192826126fc5760008555612742565b82601f1061271557805160ff1916838001178555612742565b82800160010185558215612742579182015b82811115612742578251825591602001919060010190612727565b506126ca929150612774565b5b808211156126ca5780546001600160a81b03191681556000600182015560020161274f565b5b808211156126ca5760008155600101612775565b808211156126ca57600061279d82826127a6565b50600101612789565b5080546127b290612ca8565b6000825580601f106127c2575050565b601f016020900490600052602060002090810190610b949190612774565b6000602082840312156127f257600080fd5b5035919050565b6020808252825160608383015280516080840181905260009291820190839060a08601905b808310156128475783516001600160a01b0316825292840192600192909201919084019061281e565b50838701516040870152604087015160608701528094505050505092915050565b80356001600160a01b038116811461287f57600080fd5b919050565b60008083601f84011261289657600080fd5b50813567ffffffffffffffff8111156128ae57600080fd5b6020830191508360208285010111156128c657600080fd5b9250929050565b600080600080606085870312156128e357600080fd5b6128ec85612868565b9350602085013567ffffffffffffffff81111561290857600080fd5b61291487828801612884565b9598909750949560400135949350505050565b6020808252825182820181905260009190848201906040850190845b8181101561295f57835183529284019291840191600101612943565b50909695505050505050565b6000806040838503121561297e57600080fd5b8235915061298e60208401612868565b90509250929050565b600080604083850312156129aa57600080fd5b6129b383612868565b915061298e60208401612868565b6020808252825182820181905260009190848201906040850190845b8181101561295f5783516001600160a01b0316835292840192918401916001016129dd565b600060208284031215612a1457600080fd5b610ba382612868565b60005b83811015612a38578181015183820152602001612a20565b83811115612a47576000848401525b50505050565b60008151808452612a65816020860160208601612a1d565b601f01601f19169290920160200192915050565b600081518084526020808501808196508360051b8101915082860160005b85811015612ac1578284038952612aaf848351612a4d565b98850198935090840190600101612a97565b5091979650505050505050565b6020815260018060a01b0382511660208201526020820151151560408201526040820151606082015260006060830151608080840152612b1160a0840182612a79565b949350505050565b60008060008060008060808789031215612b3257600080fd5b612b3b87612868565b9550602087013567ffffffffffffffff80821115612b5857600080fd5b612b648a838b01612884565b9097509550604089013594506060890135915080821115612b8457600080fd5b50612b9189828a01612884565b979a9699509497509295939492505050565b6020808252825182820181905260009190848201906040850190845b8181101561295f57612bf183855180516001600160a01b03168252602080820151151590830152604090810151910152565b9284019260609290920191600101612bbf565b81516001600160a01b031681526020808301511515908201526040808301519082015260608101610485565b602081526000610ba36020830184612a79565b60008060408385031215612c5657600080fd5b50508035926020909101359150565b6bffffffffffffffffffffffff198560601b16815282846014830137601492019182015260340192915050565b634e487b7160e01b600052603260045260246000fd5b600181811c90821680612cbc57607f821691505b602082108103612cdc57634e487b7160e01b600052602260045260246000fd5b50919050565b634e487b7160e01b600052601160045260246000fd5b600082821015612d0a57612d0a612ce2565b500390565b634e487b7160e01b600052603160045260246000fd5b600081612d3457612d34612ce2565b506000190190565b600060018201612d4e57612d4e612ce2565b5060010190565b634e487b7160e01b600052601260045260246000fd5b600082612d7a57612d7a612d55565b500490565b600082612d8e57612d8e612d55565b500690565b6000816000190483118215151615612dad57612dad612ce2565b500290565b60008219821115612dc557612dc5612ce2565b500190565b60008251612ddc818460208701612a1d565b9190910192915050565b634e487b7160e01b600052604160045260246000fd5b6020808252602f908201527f4d6f72652067726f75707320696e20636c7573746572207468616e20636c757360408201526e74657220636f6e73747261696e747360881b606082015260800190565b7f416363657373436f6e74726f6c3a206163636f756e7420000000000000000000815260008351612e83816017850160208801612a1d565b7001034b99036b4b9b9b4b733903937b6329607d1b6017918401918201528351612eb4816028840160208801612a1d565b01602801949350505050565b602081526000610ba36020830184612a4d56fed3889cc5458b268d0544e5534672df1296288ca3f93cbd39bd6f497a5c622811a26469706673582212202b67c7c6c8a47cac46bddebe91778574e7b54825e2ab55f83364cbe68c90d4f864736f6c634300080e0033",
  "linkReferences": {},
  "deployedLinkReferences": {}
}